{
	"contracts/Fund.sol": {
		"Fund": {
			"abi": [
				{
					"inputs": [
						{
							"internalType": "address",
							"name": "funder",
							"type": "address"
						}
					],
					"name": "addressToAmountFunded",
					"outputs": [
						{
							"internalType": "uint256",
							"name": "amountFunded",
							"type": "uint256"
						}
					],
					"stateMutability": "view",
					"type": "function"
				},
				{
					"inputs": [],
					"name": "amountInUSD",
					"outputs": [
						{
							"internalType": "uint256",
							"name": "",
							"type": "uint256"
						}
					],
					"stateMutability": "view",
					"type": "function"
				},
				{
					"inputs": [],
					"name": "fund",
					"outputs": [],
					"stateMutability": "payable",
					"type": "function"
				},
				{
					"inputs": [
						{
							"internalType": "uint256",
							"name": "",
							"type": "uint256"
						}
					],
					"name": "funders",
					"outputs": [
						{
							"internalType": "address",
							"name": "",
							"type": "address"
						}
					],
					"stateMutability": "view",
					"type": "function"
				}
			],
			"devdoc": {
				"kind": "dev",
				"methods": {},
				"version": 1
			},
			"evm": {
				"assembly": "    /* \"contracts/Fund.sol\":125:1275  contract Fund{... */\n  mstore(0x40, 0x80)\n    /* \"contracts/Fund.sol\":283:287  3e18 */\n  0x29a2241af62c0000\n    /* \"contracts/Fund.sol\":255:287  uint256 public amountInUSD= 3e18 */\n  0x00\n  sstore\n    /* \"contracts/Fund.sol\":125:1275  contract Fund{... */\n  callvalue\n  dup1\n  iszero\n  tag_1\n  jumpi\n  revert(0x00, 0x00)\ntag_1:\n  pop\n  dataSize(sub_0)\n  dup1\n  dataOffset(sub_0)\n  0x00\n  codecopy\n  0x00\n  return\nstop\n\nsub_0: assembly {\n        /* \"contracts/Fund.sol\":125:1275  contract Fund{... */\n      mstore(0x40, 0x80)\n      jumpi(tag_1, lt(calldatasize, 0x04))\n      shr(0xe0, calldataload(0x00))\n      dup1\n      0x3e47d6f3\n      eq\n      tag_2\n      jumpi\n      dup1\n      0xb60d4288\n      eq\n      tag_3\n      jumpi\n      dup1\n      0xcd5a8945\n      eq\n      tag_4\n      jumpi\n      dup1\n      0xdc0d3dff\n      eq\n      tag_5\n      jumpi\n    tag_1:\n      revert(0x00, 0x00)\n        /* \"contracts/Fund.sol\":344:421  mapping (address funder => uint256 amountFunded) public addressToAmountFunded */\n    tag_2:\n      callvalue\n      dup1\n      iszero\n      tag_6\n      jumpi\n      revert(0x00, 0x00)\n    tag_6:\n      pop\n      tag_7\n      0x04\n      dup1\n      calldatasize\n      sub\n      dup2\n      add\n      swap1\n      tag_8\n      swap2\n      swap1\n      tag_9\n      jump\t// in\n    tag_8:\n      tag_10\n      jump\t// in\n    tag_7:\n      mload(0x40)\n      tag_11\n      swap2\n      swap1\n      tag_12\n      jump\t// in\n    tag_11:\n      mload(0x40)\n      dup1\n      swap2\n      sub\n      swap1\n      return\n        /* \"contracts/Fund.sol\":492:1264  function fund() public payable {    // payable allows function to make transaction... */\n    tag_3:\n      tag_13\n      tag_14\n      jump\t// in\n    tag_13:\n      stop\n        /* \"contracts/Fund.sol\":255:287  uint256 public amountInUSD= 3e18 */\n    tag_4:\n      callvalue\n      dup1\n      iszero\n      tag_15\n      jumpi\n      revert(0x00, 0x00)\n    tag_15:\n      pop\n      tag_16\n      tag_17\n      jump\t// in\n    tag_16:\n      mload(0x40)\n      tag_18\n      swap2\n      swap1\n      tag_12\n      jump\t// in\n    tag_18:\n      mload(0x40)\n      dup1\n      swap2\n      sub\n      swap1\n      return\n        /* \"contracts/Fund.sol\":313:337  address[] public funders */\n    tag_5:\n      callvalue\n      dup1\n      iszero\n      tag_19\n      jumpi\n      revert(0x00, 0x00)\n    tag_19:\n      pop\n      tag_20\n      0x04\n      dup1\n      calldatasize\n      sub\n      dup2\n      add\n      swap1\n      tag_21\n      swap2\n      swap1\n      tag_22\n      jump\t// in\n    tag_21:\n      tag_23\n      jump\t// in\n    tag_20:\n      mload(0x40)\n      tag_24\n      swap2\n      swap1\n      tag_25\n      jump\t// in\n    tag_24:\n      mload(0x40)\n      dup1\n      swap2\n      sub\n      swap1\n      return\n        /* \"contracts/Fund.sol\":344:421  mapping (address funder => uint256 amountFunded) public addressToAmountFunded */\n    tag_10:\n      mstore(0x20, 0x02)\n      dup1\n      0x00\n      mstore\n      keccak256(0x00, 0x40)\n      0x00\n      swap2\n      pop\n      swap1\n      pop\n      sload\n      dup2\n      jump\t// out\n        /* \"contracts/Fund.sol\":492:1264  function fund() public payable {    // payable allows function to make transaction... */\n    tag_14:\n        /* \"contracts/Fund.sol\":772:783  amountInUSD */\n      sload(0x00)\n        /* \"contracts/Fund.sol\":739:768  msg.value.getConversionRate() */\n      tag_27\n        /* \"contracts/Fund.sol\":739:748  msg.value */\n      callvalue\n        /* \"contracts/Fund.sol\":739:766  msg.value.getConversionRate */\n      tag_28\n        /* \"contracts/Fund.sol\":739:768  msg.value.getConversionRate() */\n      jump\t// in\n    tag_27:\n        /* \"contracts/Fund.sol\":739:783  msg.value.getConversionRate() >= amountInUSD */\n      lt\n      iszero\n        /* \"contracts/Fund.sol\":730:810  require( msg.value.getConversionRate() >= amountInUSD,\"didn't send enough ETH.\") */\n      tag_29\n      jumpi\n      mload(0x40)\n      0x08c379a000000000000000000000000000000000000000000000000000000000\n      dup2\n      mstore\n      0x04\n      add\n      tag_30\n      swap1\n      tag_31\n      jump\t// in\n    tag_30:\n      mload(0x40)\n      dup1\n      swap2\n      sub\n      swap1\n      revert\n    tag_29:\n        /* \"contracts/Fund.sol\":1098:1105  funders */\n      0x01\n        /* \"contracts/Fund.sol\":1111:1121  msg.sender */\n      caller\n        /* \"contracts/Fund.sol\":1098:1122  funders.push(msg.sender) */\n      swap1\n      dup1\n      0x01\n      dup2\n      sload\n      add\n      dup1\n      dup3\n      sstore\n      dup1\n      swap2\n      pop\n      pop\n      0x01\n      swap1\n      sub\n      swap1\n      0x00\n      mstore\n      keccak256(0x00, 0x20)\n      add\n      0x00\n      swap1\n      swap2\n      swap1\n      swap2\n      swap1\n      swap2\n      0x0100\n      exp\n      dup2\n      sload\n      dup2\n      0xffffffffffffffffffffffffffffffffffffffff\n      mul\n      not\n      and\n      swap1\n      dup4\n      0xffffffffffffffffffffffffffffffffffffffff\n      and\n      mul\n      or\n      swap1\n      sstore\n      pop\n        /* \"contracts/Fund.sol\":1205:1214  msg.value */\n      callvalue\n        /* \"contracts/Fund.sol\":1169:1190  addressToAmountFunded */\n      0x02\n        /* \"contracts/Fund.sol\":1169:1202  addressToAmountFunded[msg.sender] */\n      0x00\n        /* \"contracts/Fund.sol\":1191:1201  msg.sender */\n      caller\n        /* \"contracts/Fund.sol\":1169:1202  addressToAmountFunded[msg.sender] */\n      0xffffffffffffffffffffffffffffffffffffffff\n      and\n      0xffffffffffffffffffffffffffffffffffffffff\n      and\n      dup2\n      mstore\n      0x20\n      add\n      swap1\n      dup2\n      mstore\n      0x20\n      add\n      0x00\n      keccak256\n      sload\n        /* \"contracts/Fund.sol\":1169:1214  addressToAmountFunded[msg.sender] + msg.value */\n      tag_33\n      swap2\n      swap1\n      tag_34\n      jump\t// in\n    tag_33:\n        /* \"contracts/Fund.sol\":1133:1154  addressToAmountFunded */\n      0x02\n        /* \"contracts/Fund.sol\":1133:1166  addressToAmountFunded[msg.sender] */\n      0x00\n        /* \"contracts/Fund.sol\":1155:1165  msg.sender */\n      caller\n        /* \"contracts/Fund.sol\":1133:1166  addressToAmountFunded[msg.sender] */\n      0xffffffffffffffffffffffffffffffffffffffff\n      and\n      0xffffffffffffffffffffffffffffffffffffffff\n      and\n      dup2\n      mstore\n      0x20\n      add\n      swap1\n      dup2\n      mstore\n      0x20\n      add\n      0x00\n      keccak256\n        /* \"contracts/Fund.sol\":1133:1214  addressToAmountFunded[msg.sender] = addressToAmountFunded[msg.sender] + msg.value */\n      dup2\n      swap1\n      sstore\n      pop\n        /* \"contracts/Fund.sol\":492:1264  function fund() public payable {    // payable allows function to make transaction... */\n      jump\t// out\n        /* \"contracts/Fund.sol\":255:287  uint256 public amountInUSD= 3e18 */\n    tag_17:\n      sload(0x00)\n      dup2\n      jump\t// out\n        /* \"contracts/Fund.sol\":313:337  address[] public funders */\n    tag_23:\n      0x01\n      dup2\n      dup2\n      sload\n      dup2\n      lt\n      tag_35\n      jumpi\n      0x00\n      dup1\n      revert\n    tag_35:\n      swap1\n      0x00\n      mstore\n      keccak256(0x00, 0x20)\n      add\n      0x00\n      swap2\n      pop\n      sload\n      swap1\n      0x0100\n      exp\n      swap1\n      div\n      0xffffffffffffffffffffffffffffffffffffffff\n      and\n      dup2\n      jump\t// out\n        /* \"contracts/PriceConverter.sol\":951:1244  function getConversionRate(uint256 ethAmount) internal  view returns (uint256) {... */\n    tag_28:\n        /* \"contracts/PriceConverter.sol\":1021:1028  uint256 */\n      0x00\n        /* \"contracts/PriceConverter.sol\":1041:1057  uint256 ethPrice */\n      0x00\n        /* \"contracts/PriceConverter.sol\":1060:1070  getPrice() */\n      tag_38\n        /* \"contracts/PriceConverter.sol\":1060:1068  getPrice */\n      tag_39\n        /* \"contracts/PriceConverter.sol\":1060:1070  getPrice() */\n      jump\t// in\n    tag_38:\n        /* \"contracts/PriceConverter.sol\":1041:1070  uint256 ethPrice = getPrice() */\n      swap1\n      pop\n        /* \"contracts/PriceConverter.sol\":1081:1103  uint256 ethAmountInUsd */\n      0x00\n        /* \"contracts/PriceConverter.sol\":1131:1135  1e18 */\n      0x0de0b6b3a7640000\n        /* \"contracts/PriceConverter.sol\":1118:1127  ethAmount */\n      dup5\n        /* \"contracts/PriceConverter.sol\":1107:1115  ethPrice */\n      dup4\n        /* \"contracts/PriceConverter.sol\":1107:1127  ethPrice * ethAmount */\n      tag_40\n      swap2\n      swap1\n      tag_41\n      jump\t// in\n    tag_40:\n        /* \"contracts/PriceConverter.sol\":1106:1135  (ethPrice * ethAmount) / 1e18 */\n      tag_42\n      swap2\n      swap1\n      tag_43\n      jump\t// in\n    tag_42:\n        /* \"contracts/PriceConverter.sol\":1081:1135  uint256 ethAmountInUsd = (ethPrice * ethAmount) / 1e18 */\n      swap1\n      pop\n        /* \"contracts/PriceConverter.sol\":1222:1236  ethAmountInUsd */\n      dup1\n        /* \"contracts/PriceConverter.sol\":1215:1236  return ethAmountInUsd */\n      swap3\n      pop\n      pop\n      pop\n        /* \"contracts/PriceConverter.sol\":951:1244  function getConversionRate(uint256 ethAmount) internal  view returns (uint256) {... */\n      swap2\n      swap1\n      pop\n      jump\t// out\n        /* \"contracts/PriceConverter.sol\":426:943  function getPrice() internal view returns(uint256){... */\n    tag_39:\n        /* \"contracts/PriceConverter.sol\":468:475  uint256 */\n      0x00\n        /* \"contracts/PriceConverter.sol\":571:602  AggregatorV3Interface priceFeed */\n      0x00\n        /* \"contracts/PriceConverter.sol\":627:669  0x694AA1769357215DE4FAC081bf1f309aDC325306 */\n      0x694aa1769357215de4fac081bf1f309adc325306\n        /* \"contracts/PriceConverter.sol\":571:670  AggregatorV3Interface priceFeed = AggregatorV3Interface(0x694AA1769357215DE4FAC081bf1f309aDC325306) */\n      swap1\n      pop\n        /* \"contracts/PriceConverter.sol\":683:695  int256 price */\n      0x00\n        /* \"contracts/PriceConverter.sol\":702:711  priceFeed */\n      dup2\n        /* \"contracts/PriceConverter.sol\":702:727  priceFeed.latestRoundData */\n      0xffffffffffffffffffffffffffffffffffffffff\n      and\n      0xfeaf968c\n        /* \"contracts/PriceConverter.sol\":702:729  priceFeed.latestRoundData() */\n      mload(0x40)\n      dup2\n      0xffffffff\n      and\n      0xe0\n      shl\n      dup2\n      mstore\n      0x04\n      add\n      0xa0\n      mload(0x40)\n      dup1\n      dup4\n      sub\n      dup2\n      dup7\n      gas\n      staticcall\n      iszero\n      dup1\n      iszero\n      tag_46\n      jumpi\n      returndatacopy(0x00, 0x00, returndatasize)\n      revert(0x00, returndatasize)\n    tag_46:\n      pop\n      pop\n      pop\n      pop\n      mload(0x40)\n      returndatasize\n      not(0x1f)\n      0x1f\n      dup3\n      add\n      and\n      dup3\n      add\n      dup1\n      0x40\n      mstore\n      pop\n      dup2\n      add\n      swap1\n      tag_47\n      swap2\n      swap1\n      tag_48\n      jump\t// in\n    tag_47:\n        /* \"contracts/PriceConverter.sol\":681:729  (,int256 price,,,) = priceFeed.latestRoundData() */\n      pop\n      pop\n      pop\n      swap2\n      pop\n      pop\n        /* \"contracts/PriceConverter.sol\":930:934  1e10 */\n      0x02540be400\n        /* \"contracts/PriceConverter.sol\":924:929  price */\n      dup2\n        /* \"contracts/PriceConverter.sol\":924:934  price*1e10 */\n      tag_49\n      swap2\n      swap1\n      tag_50\n      jump\t// in\n    tag_49:\n        /* \"contracts/PriceConverter.sol\":909:935  return uint256(price*1e10) */\n      swap3\n      pop\n      pop\n      pop\n        /* \"contracts/PriceConverter.sol\":426:943  function getPrice() internal view returns(uint256){... */\n      swap1\n      jump\t// out\n        /* \"#utility.yul\":88:205   */\n    tag_52:\n        /* \"#utility.yul\":197:198   */\n      0x00\n        /* \"#utility.yul\":194:195   */\n      0x00\n        /* \"#utility.yul\":187:199   */\n      revert\n        /* \"#utility.yul\":334:460   */\n    tag_54:\n        /* \"#utility.yul\":371:378   */\n      0x00\n        /* \"#utility.yul\":411:453   */\n      0xffffffffffffffffffffffffffffffffffffffff\n        /* \"#utility.yul\":404:409   */\n      dup3\n        /* \"#utility.yul\":400:454   */\n      and\n        /* \"#utility.yul\":389:454   */\n      swap1\n      pop\n        /* \"#utility.yul\":334:460   */\n      swap2\n      swap1\n      pop\n      jump\t// out\n        /* \"#utility.yul\":466:562   */\n    tag_55:\n        /* \"#utility.yul\":503:510   */\n      0x00\n        /* \"#utility.yul\":532:556   */\n      tag_81\n        /* \"#utility.yul\":550:555   */\n      dup3\n        /* \"#utility.yul\":532:556   */\n      tag_54\n      jump\t// in\n    tag_81:\n        /* \"#utility.yul\":521:556   */\n      swap1\n      pop\n        /* \"#utility.yul\":466:562   */\n      swap2\n      swap1\n      pop\n      jump\t// out\n        /* \"#utility.yul\":568:690   */\n    tag_56:\n        /* \"#utility.yul\":641:665   */\n      tag_83\n        /* \"#utility.yul\":659:664   */\n      dup2\n        /* \"#utility.yul\":641:665   */\n      tag_55\n      jump\t// in\n    tag_83:\n        /* \"#utility.yul\":634:639   */\n      dup2\n        /* \"#utility.yul\":631:666   */\n      eq\n        /* \"#utility.yul\":621:684   */\n      tag_84\n      jumpi\n        /* \"#utility.yul\":680:681   */\n      0x00\n        /* \"#utility.yul\":677:678   */\n      0x00\n        /* \"#utility.yul\":670:682   */\n      revert\n        /* \"#utility.yul\":621:684   */\n    tag_84:\n        /* \"#utility.yul\":568:690   */\n      pop\n      jump\t// out\n        /* \"#utility.yul\":696:835   */\n    tag_57:\n        /* \"#utility.yul\":742:747   */\n      0x00\n        /* \"#utility.yul\":780:786   */\n      dup2\n        /* \"#utility.yul\":767:787   */\n      calldataload\n        /* \"#utility.yul\":758:787   */\n      swap1\n      pop\n        /* \"#utility.yul\":796:829   */\n      tag_86\n        /* \"#utility.yul\":823:828   */\n      dup2\n        /* \"#utility.yul\":796:829   */\n      tag_56\n      jump\t// in\n    tag_86:\n        /* \"#utility.yul\":696:835   */\n      swap3\n      swap2\n      pop\n      pop\n      jump\t// out\n        /* \"#utility.yul\":841:1170   */\n    tag_9:\n        /* \"#utility.yul\":900:906   */\n      0x00\n        /* \"#utility.yul\":949:951   */\n      0x20\n        /* \"#utility.yul\":937:946   */\n      dup3\n        /* \"#utility.yul\":928:935   */\n      dup5\n        /* \"#utility.yul\":924:947   */\n      sub\n        /* \"#utility.yul\":920:952   */\n      slt\n        /* \"#utility.yul\":917:1036   */\n      iszero\n      tag_88\n      jumpi\n        /* \"#utility.yul\":955:1034   */\n      tag_89\n      tag_52\n      jump\t// in\n    tag_89:\n        /* \"#utility.yul\":917:1036   */\n    tag_88:\n        /* \"#utility.yul\":1075:1076   */\n      0x00\n        /* \"#utility.yul\":1100:1153   */\n      tag_90\n        /* \"#utility.yul\":1145:1152   */\n      dup5\n        /* \"#utility.yul\":1136:1142   */\n      dup3\n        /* \"#utility.yul\":1125:1134   */\n      dup6\n        /* \"#utility.yul\":1121:1143   */\n      add\n        /* \"#utility.yul\":1100:1153   */\n      tag_57\n      jump\t// in\n    tag_90:\n        /* \"#utility.yul\":1090:1153   */\n      swap2\n      pop\n        /* \"#utility.yul\":1046:1163   */\n      pop\n        /* \"#utility.yul\":841:1170   */\n      swap3\n      swap2\n      pop\n      pop\n      jump\t// out\n        /* \"#utility.yul\":1176:1253   */\n    tag_58:\n        /* \"#utility.yul\":1213:1220   */\n      0x00\n        /* \"#utility.yul\":1242:1247   */\n      dup2\n        /* \"#utility.yul\":1231:1247   */\n      swap1\n      pop\n        /* \"#utility.yul\":1176:1253   */\n      swap2\n      swap1\n      pop\n      jump\t// out\n        /* \"#utility.yul\":1259:1377   */\n    tag_59:\n        /* \"#utility.yul\":1346:1370   */\n      tag_93\n        /* \"#utility.yul\":1364:1369   */\n      dup2\n        /* \"#utility.yul\":1346:1370   */\n      tag_58\n      jump\t// in\n    tag_93:\n        /* \"#utility.yul\":1341:1344   */\n      dup3\n        /* \"#utility.yul\":1334:1371   */\n      mstore\n        /* \"#utility.yul\":1259:1377   */\n      pop\n      pop\n      jump\t// out\n        /* \"#utility.yul\":1383:1605   */\n    tag_12:\n        /* \"#utility.yul\":1476:1480   */\n      0x00\n        /* \"#utility.yul\":1514:1516   */\n      0x20\n        /* \"#utility.yul\":1503:1512   */\n      dup3\n        /* \"#utility.yul\":1499:1517   */\n      add\n        /* \"#utility.yul\":1491:1517   */\n      swap1\n      pop\n        /* \"#utility.yul\":1527:1598   */\n      tag_95\n        /* \"#utility.yul\":1595:1596   */\n      0x00\n        /* \"#utility.yul\":1584:1593   */\n      dup4\n        /* \"#utility.yul\":1580:1597   */\n      add\n        /* \"#utility.yul\":1571:1577   */\n      dup5\n        /* \"#utility.yul\":1527:1598   */\n      tag_59\n      jump\t// in\n    tag_95:\n        /* \"#utility.yul\":1383:1605   */\n      swap3\n      swap2\n      pop\n      pop\n      jump\t// out\n        /* \"#utility.yul\":1611:1733   */\n    tag_60:\n        /* \"#utility.yul\":1684:1708   */\n      tag_97\n        /* \"#utility.yul\":1702:1707   */\n      dup2\n        /* \"#utility.yul\":1684:1708   */\n      tag_58\n      jump\t// in\n    tag_97:\n        /* \"#utility.yul\":1677:1682   */\n      dup2\n        /* \"#utility.yul\":1674:1709   */\n      eq\n        /* \"#utility.yul\":1664:1727   */\n      tag_98\n      jumpi\n        /* \"#utility.yul\":1723:1724   */\n      0x00\n        /* \"#utility.yul\":1720:1721   */\n      0x00\n        /* \"#utility.yul\":1713:1725   */\n      revert\n        /* \"#utility.yul\":1664:1727   */\n    tag_98:\n        /* \"#utility.yul\":1611:1733   */\n      pop\n      jump\t// out\n        /* \"#utility.yul\":1739:1878   */\n    tag_61:\n        /* \"#utility.yul\":1785:1790   */\n      0x00\n        /* \"#utility.yul\":1823:1829   */\n      dup2\n        /* \"#utility.yul\":1810:1830   */\n      calldataload\n        /* \"#utility.yul\":1801:1830   */\n      swap1\n      pop\n        /* \"#utility.yul\":1839:1872   */\n      tag_100\n        /* \"#utility.yul\":1866:1871   */\n      dup2\n        /* \"#utility.yul\":1839:1872   */\n      tag_60\n      jump\t// in\n    tag_100:\n        /* \"#utility.yul\":1739:1878   */\n      swap3\n      swap2\n      pop\n      pop\n      jump\t// out\n        /* \"#utility.yul\":1884:2213   */\n    tag_22:\n        /* \"#utility.yul\":1943:1949   */\n      0x00\n        /* \"#utility.yul\":1992:1994   */\n      0x20\n        /* \"#utility.yul\":1980:1989   */\n      dup3\n        /* \"#utility.yul\":1971:1978   */\n      dup5\n        /* \"#utility.yul\":1967:1990   */\n      sub\n        /* \"#utility.yul\":1963:1995   */\n      slt\n        /* \"#utility.yul\":1960:2079   */\n      iszero\n      tag_102\n      jumpi\n        /* \"#utility.yul\":1998:2077   */\n      tag_103\n      tag_52\n      jump\t// in\n    tag_103:\n        /* \"#utility.yul\":1960:2079   */\n    tag_102:\n        /* \"#utility.yul\":2118:2119   */\n      0x00\n        /* \"#utility.yul\":2143:2196   */\n      tag_104\n        /* \"#utility.yul\":2188:2195   */\n      dup5\n        /* \"#utility.yul\":2179:2185   */\n      dup3\n        /* \"#utility.yul\":2168:2177   */\n      dup6\n        /* \"#utility.yul\":2164:2186   */\n      add\n        /* \"#utility.yul\":2143:2196   */\n      tag_61\n      jump\t// in\n    tag_104:\n        /* \"#utility.yul\":2133:2196   */\n      swap2\n      pop\n        /* \"#utility.yul\":2089:2206   */\n      pop\n        /* \"#utility.yul\":1884:2213   */\n      swap3\n      swap2\n      pop\n      pop\n      jump\t// out\n        /* \"#utility.yul\":2219:2337   */\n    tag_62:\n        /* \"#utility.yul\":2306:2330   */\n      tag_106\n        /* \"#utility.yul\":2324:2329   */\n      dup2\n        /* \"#utility.yul\":2306:2330   */\n      tag_55\n      jump\t// in\n    tag_106:\n        /* \"#utility.yul\":2301:2304   */\n      dup3\n        /* \"#utility.yul\":2294:2331   */\n      mstore\n        /* \"#utility.yul\":2219:2337   */\n      pop\n      pop\n      jump\t// out\n        /* \"#utility.yul\":2343:2565   */\n    tag_25:\n        /* \"#utility.yul\":2436:2440   */\n      0x00\n        /* \"#utility.yul\":2474:2476   */\n      0x20\n        /* \"#utility.yul\":2463:2472   */\n      dup3\n        /* \"#utility.yul\":2459:2477   */\n      add\n        /* \"#utility.yul\":2451:2477   */\n      swap1\n      pop\n        /* \"#utility.yul\":2487:2558   */\n      tag_108\n        /* \"#utility.yul\":2555:2556   */\n      0x00\n        /* \"#utility.yul\":2544:2553   */\n      dup4\n        /* \"#utility.yul\":2540:2557   */\n      add\n        /* \"#utility.yul\":2531:2537   */\n      dup5\n        /* \"#utility.yul\":2487:2558   */\n      tag_62\n      jump\t// in\n    tag_108:\n        /* \"#utility.yul\":2343:2565   */\n      swap3\n      swap2\n      pop\n      pop\n      jump\t// out\n        /* \"#utility.yul\":2571:2740   */\n    tag_63:\n        /* \"#utility.yul\":2655:2666   */\n      0x00\n        /* \"#utility.yul\":2689:2695   */\n      dup3\n        /* \"#utility.yul\":2684:2687   */\n      dup3\n        /* \"#utility.yul\":2677:2696   */\n      mstore\n        /* \"#utility.yul\":2729:2733   */\n      0x20\n        /* \"#utility.yul\":2724:2727   */\n      dup3\n        /* \"#utility.yul\":2720:2734   */\n      add\n        /* \"#utility.yul\":2705:2734   */\n      swap1\n      pop\n        /* \"#utility.yul\":2571:2740   */\n      swap3\n      swap2\n      pop\n      pop\n      jump\t// out\n        /* \"#utility.yul\":2746:2919   */\n    tag_64:\n        /* \"#utility.yul\":2886:2911   */\n      0x6469646e27742073656e6420656e6f756768204554482e000000000000000000\n        /* \"#utility.yul\":2882:2883   */\n      0x00\n        /* \"#utility.yul\":2874:2880   */\n      dup3\n        /* \"#utility.yul\":2870:2884   */\n      add\n        /* \"#utility.yul\":2863:2912   */\n      mstore\n        /* \"#utility.yul\":2746:2919   */\n      pop\n      jump\t// out\n        /* \"#utility.yul\":2925:3291   */\n    tag_65:\n        /* \"#utility.yul\":3067:3070   */\n      0x00\n        /* \"#utility.yul\":3088:3155   */\n      tag_112\n        /* \"#utility.yul\":3152:3154   */\n      0x17\n        /* \"#utility.yul\":3147:3150   */\n      dup4\n        /* \"#utility.yul\":3088:3155   */\n      tag_63\n      jump\t// in\n    tag_112:\n        /* \"#utility.yul\":3081:3155   */\n      swap2\n      pop\n        /* \"#utility.yul\":3164:3257   */\n      tag_113\n        /* \"#utility.yul\":3253:3256   */\n      dup3\n        /* \"#utility.yul\":3164:3257   */\n      tag_64\n      jump\t// in\n    tag_113:\n        /* \"#utility.yul\":3282:3284   */\n      0x20\n        /* \"#utility.yul\":3277:3280   */\n      dup3\n        /* \"#utility.yul\":3273:3285   */\n      add\n        /* \"#utility.yul\":3266:3285   */\n      swap1\n      pop\n        /* \"#utility.yul\":2925:3291   */\n      swap2\n      swap1\n      pop\n      jump\t// out\n        /* \"#utility.yul\":3297:3716   */\n    tag_31:\n        /* \"#utility.yul\":3463:3467   */\n      0x00\n        /* \"#utility.yul\":3501:3503   */\n      0x20\n        /* \"#utility.yul\":3490:3499   */\n      dup3\n        /* \"#utility.yul\":3486:3504   */\n      add\n        /* \"#utility.yul\":3478:3504   */\n      swap1\n      pop\n        /* \"#utility.yul\":3550:3559   */\n      dup2\n        /* \"#utility.yul\":3544:3548   */\n      dup2\n        /* \"#utility.yul\":3540:3560   */\n      sub\n        /* \"#utility.yul\":3536:3537   */\n      0x00\n        /* \"#utility.yul\":3525:3534   */\n      dup4\n        /* \"#utility.yul\":3521:3538   */\n      add\n        /* \"#utility.yul\":3514:3561   */\n      mstore\n        /* \"#utility.yul\":3578:3709   */\n      tag_115\n        /* \"#utility.yul\":3704:3708   */\n      dup2\n        /* \"#utility.yul\":3578:3709   */\n      tag_65\n      jump\t// in\n    tag_115:\n        /* \"#utility.yul\":3570:3709   */\n      swap1\n      pop\n        /* \"#utility.yul\":3297:3716   */\n      swap2\n      swap1\n      pop\n      jump\t// out\n        /* \"#utility.yul\":3722:3902   */\n    tag_66:\n        /* \"#utility.yul\":3770:3847   */\n      0x4e487b7100000000000000000000000000000000000000000000000000000000\n        /* \"#utility.yul\":3767:3768   */\n      0x00\n        /* \"#utility.yul\":3760:3848   */\n      mstore\n        /* \"#utility.yul\":3867:3871   */\n      0x11\n        /* \"#utility.yul\":3864:3865   */\n      0x04\n        /* \"#utility.yul\":3857:3872   */\n      mstore\n        /* \"#utility.yul\":3891:3895   */\n      0x24\n        /* \"#utility.yul\":3888:3889   */\n      0x00\n        /* \"#utility.yul\":3881:3896   */\n      revert\n        /* \"#utility.yul\":3908:4099   */\n    tag_34:\n        /* \"#utility.yul\":3948:3951   */\n      0x00\n        /* \"#utility.yul\":3967:3987   */\n      tag_118\n        /* \"#utility.yul\":3985:3986   */\n      dup3\n        /* \"#utility.yul\":3967:3987   */\n      tag_58\n      jump\t// in\n    tag_118:\n        /* \"#utility.yul\":3962:3987   */\n      swap2\n      pop\n        /* \"#utility.yul\":4001:4021   */\n      tag_119\n        /* \"#utility.yul\":4019:4020   */\n      dup4\n        /* \"#utility.yul\":4001:4021   */\n      tag_58\n      jump\t// in\n    tag_119:\n        /* \"#utility.yul\":3996:4021   */\n      swap3\n      pop\n        /* \"#utility.yul\":4044:4045   */\n      dup3\n        /* \"#utility.yul\":4041:4042   */\n      dup3\n        /* \"#utility.yul\":4037:4046   */\n      add\n        /* \"#utility.yul\":4030:4046   */\n      swap1\n      pop\n        /* \"#utility.yul\":4065:4068   */\n      dup1\n        /* \"#utility.yul\":4062:4063   */\n      dup3\n        /* \"#utility.yul\":4059:4069   */\n      gt\n        /* \"#utility.yul\":4056:4092   */\n      iszero\n      tag_120\n      jumpi\n        /* \"#utility.yul\":4072:4090   */\n      tag_121\n      tag_66\n      jump\t// in\n    tag_121:\n        /* \"#utility.yul\":4056:4092   */\n    tag_120:\n        /* \"#utility.yul\":3908:4099   */\n      swap3\n      swap2\n      pop\n      pop\n      jump\t// out\n        /* \"#utility.yul\":4105:4515   */\n    tag_41:\n        /* \"#utility.yul\":4145:4152   */\n      0x00\n        /* \"#utility.yul\":4168:4188   */\n      tag_123\n        /* \"#utility.yul\":4186:4187   */\n      dup3\n        /* \"#utility.yul\":4168:4188   */\n      tag_58\n      jump\t// in\n    tag_123:\n        /* \"#utility.yul\":4163:4188   */\n      swap2\n      pop\n        /* \"#utility.yul\":4202:4222   */\n      tag_124\n        /* \"#utility.yul\":4220:4221   */\n      dup4\n        /* \"#utility.yul\":4202:4222   */\n      tag_58\n      jump\t// in\n    tag_124:\n        /* \"#utility.yul\":4197:4222   */\n      swap3\n      pop\n        /* \"#utility.yul\":4257:4258   */\n      dup3\n        /* \"#utility.yul\":4254:4255   */\n      dup3\n        /* \"#utility.yul\":4250:4259   */\n      mul\n        /* \"#utility.yul\":4279:4309   */\n      tag_125\n        /* \"#utility.yul\":4297:4308   */\n      dup2\n        /* \"#utility.yul\":4279:4309   */\n      tag_58\n      jump\t// in\n    tag_125:\n        /* \"#utility.yul\":4268:4309   */\n      swap2\n      pop\n        /* \"#utility.yul\":4458:4459   */\n      dup3\n        /* \"#utility.yul\":4449:4456   */\n      dup3\n        /* \"#utility.yul\":4445:4460   */\n      div\n        /* \"#utility.yul\":4442:4443   */\n      dup5\n        /* \"#utility.yul\":4439:4461   */\n      eq\n        /* \"#utility.yul\":4419:4420   */\n      dup4\n        /* \"#utility.yul\":4412:4421   */\n      iszero\n        /* \"#utility.yul\":4392:4475   */\n      or\n        /* \"#utility.yul\":4369:4508   */\n      tag_126\n      jumpi\n        /* \"#utility.yul\":4488:4506   */\n      tag_127\n      tag_66\n      jump\t// in\n    tag_127:\n        /* \"#utility.yul\":4369:4508   */\n    tag_126:\n        /* \"#utility.yul\":4153:4515   */\n      pop\n        /* \"#utility.yul\":4105:4515   */\n      swap3\n      swap2\n      pop\n      pop\n      jump\t// out\n        /* \"#utility.yul\":4521:4701   */\n    tag_67:\n        /* \"#utility.yul\":4569:4646   */\n      0x4e487b7100000000000000000000000000000000000000000000000000000000\n        /* \"#utility.yul\":4566:4567   */\n      0x00\n        /* \"#utility.yul\":4559:4647   */\n      mstore\n        /* \"#utility.yul\":4666:4670   */\n      0x12\n        /* \"#utility.yul\":4663:4664   */\n      0x04\n        /* \"#utility.yul\":4656:4671   */\n      mstore\n        /* \"#utility.yul\":4690:4694   */\n      0x24\n        /* \"#utility.yul\":4687:4688   */\n      0x00\n        /* \"#utility.yul\":4680:4695   */\n      revert\n        /* \"#utility.yul\":4707:4892   */\n    tag_43:\n        /* \"#utility.yul\":4747:4748   */\n      0x00\n        /* \"#utility.yul\":4764:4784   */\n      tag_130\n        /* \"#utility.yul\":4782:4783   */\n      dup3\n        /* \"#utility.yul\":4764:4784   */\n      tag_58\n      jump\t// in\n    tag_130:\n        /* \"#utility.yul\":4759:4784   */\n      swap2\n      pop\n        /* \"#utility.yul\":4798:4818   */\n      tag_131\n        /* \"#utility.yul\":4816:4817   */\n      dup4\n        /* \"#utility.yul\":4798:4818   */\n      tag_58\n      jump\t// in\n    tag_131:\n        /* \"#utility.yul\":4793:4818   */\n      swap3\n      pop\n        /* \"#utility.yul\":4837:4838   */\n      dup3\n        /* \"#utility.yul\":4827:4862   */\n      tag_132\n      jumpi\n        /* \"#utility.yul\":4842:4860   */\n      tag_133\n      tag_67\n      jump\t// in\n    tag_133:\n        /* \"#utility.yul\":4827:4862   */\n    tag_132:\n        /* \"#utility.yul\":4884:4885   */\n      dup3\n        /* \"#utility.yul\":4881:4882   */\n      dup3\n        /* \"#utility.yul\":4877:4886   */\n      div\n        /* \"#utility.yul\":4872:4886   */\n      swap1\n      pop\n        /* \"#utility.yul\":4707:4892   */\n      swap3\n      swap2\n      pop\n      pop\n      jump\t// out\n        /* \"#utility.yul\":4898:5003   */\n    tag_68:\n        /* \"#utility.yul\":4934:4941   */\n      0x00\n        /* \"#utility.yul\":4974:4996   */\n      0xffffffffffffffffffff\n        /* \"#utility.yul\":4967:4972   */\n      dup3\n        /* \"#utility.yul\":4963:4997   */\n      and\n        /* \"#utility.yul\":4952:4997   */\n      swap1\n      pop\n        /* \"#utility.yul\":4898:5003   */\n      swap2\n      swap1\n      pop\n      jump\t// out\n        /* \"#utility.yul\":5009:5129   */\n    tag_69:\n        /* \"#utility.yul\":5081:5104   */\n      tag_136\n        /* \"#utility.yul\":5098:5103   */\n      dup2\n        /* \"#utility.yul\":5081:5104   */\n      tag_68\n      jump\t// in\n    tag_136:\n        /* \"#utility.yul\":5074:5079   */\n      dup2\n        /* \"#utility.yul\":5071:5105   */\n      eq\n        /* \"#utility.yul\":5061:5123   */\n      tag_137\n      jumpi\n        /* \"#utility.yul\":5119:5120   */\n      0x00\n        /* \"#utility.yul\":5116:5117   */\n      0x00\n        /* \"#utility.yul\":5109:5121   */\n      revert\n        /* \"#utility.yul\":5061:5123   */\n    tag_137:\n        /* \"#utility.yul\":5009:5129   */\n      pop\n      jump\t// out\n        /* \"#utility.yul\":5135:5276   */\n    tag_70:\n        /* \"#utility.yul\":5191:5196   */\n      0x00\n        /* \"#utility.yul\":5222:5228   */\n      dup2\n        /* \"#utility.yul\":5216:5229   */\n      mload\n        /* \"#utility.yul\":5207:5229   */\n      swap1\n      pop\n        /* \"#utility.yul\":5238:5270   */\n      tag_139\n        /* \"#utility.yul\":5264:5269   */\n      dup2\n        /* \"#utility.yul\":5238:5270   */\n      tag_69\n      jump\t// in\n    tag_139:\n        /* \"#utility.yul\":5135:5276   */\n      swap3\n      swap2\n      pop\n      pop\n      jump\t// out\n        /* \"#utility.yul\":5282:5358   */\n    tag_71:\n        /* \"#utility.yul\":5318:5325   */\n      0x00\n        /* \"#utility.yul\":5347:5352   */\n      dup2\n        /* \"#utility.yul\":5336:5352   */\n      swap1\n      pop\n        /* \"#utility.yul\":5282:5358   */\n      swap2\n      swap1\n      pop\n      jump\t// out\n        /* \"#utility.yul\":5364:5484   */\n    tag_72:\n        /* \"#utility.yul\":5436:5459   */\n      tag_142\n        /* \"#utility.yul\":5453:5458   */\n      dup2\n        /* \"#utility.yul\":5436:5459   */\n      tag_71\n      jump\t// in\n    tag_142:\n        /* \"#utility.yul\":5429:5434   */\n      dup2\n        /* \"#utility.yul\":5426:5460   */\n      eq\n        /* \"#utility.yul\":5416:5478   */\n      tag_143\n      jumpi\n        /* \"#utility.yul\":5474:5475   */\n      0x00\n        /* \"#utility.yul\":5471:5472   */\n      0x00\n        /* \"#utility.yul\":5464:5476   */\n      revert\n        /* \"#utility.yul\":5416:5478   */\n    tag_143:\n        /* \"#utility.yul\":5364:5484   */\n      pop\n      jump\t// out\n        /* \"#utility.yul\":5490:5631   */\n    tag_73:\n        /* \"#utility.yul\":5546:5551   */\n      0x00\n        /* \"#utility.yul\":5577:5583   */\n      dup2\n        /* \"#utility.yul\":5571:5584   */\n      mload\n        /* \"#utility.yul\":5562:5584   */\n      swap1\n      pop\n        /* \"#utility.yul\":5593:5625   */\n      tag_145\n        /* \"#utility.yul\":5619:5624   */\n      dup2\n        /* \"#utility.yul\":5593:5625   */\n      tag_72\n      jump\t// in\n    tag_145:\n        /* \"#utility.yul\":5490:5631   */\n      swap3\n      swap2\n      pop\n      pop\n      jump\t// out\n        /* \"#utility.yul\":5637:5780   */\n    tag_74:\n        /* \"#utility.yul\":5694:5699   */\n      0x00\n        /* \"#utility.yul\":5725:5731   */\n      dup2\n        /* \"#utility.yul\":5719:5732   */\n      mload\n        /* \"#utility.yul\":5710:5732   */\n      swap1\n      pop\n        /* \"#utility.yul\":5741:5774   */\n      tag_147\n        /* \"#utility.yul\":5768:5773   */\n      dup2\n        /* \"#utility.yul\":5741:5774   */\n      tag_60\n      jump\t// in\n    tag_147:\n        /* \"#utility.yul\":5637:5780   */\n      swap3\n      swap2\n      pop\n      pop\n      jump\t// out\n        /* \"#utility.yul\":5786:6757   */\n    tag_48:\n        /* \"#utility.yul\":5889:5895   */\n      0x00\n        /* \"#utility.yul\":5897:5903   */\n      0x00\n        /* \"#utility.yul\":5905:5911   */\n      0x00\n        /* \"#utility.yul\":5913:5919   */\n      0x00\n        /* \"#utility.yul\":5921:5927   */\n      0x00\n        /* \"#utility.yul\":5970:5973   */\n      0xa0\n        /* \"#utility.yul\":5958:5967   */\n      dup7\n        /* \"#utility.yul\":5949:5956   */\n      dup9\n        /* \"#utility.yul\":5945:5968   */\n      sub\n        /* \"#utility.yul\":5941:5974   */\n      slt\n        /* \"#utility.yul\":5938:6058   */\n      iszero\n      tag_149\n      jumpi\n        /* \"#utility.yul\":5977:6056   */\n      tag_150\n      tag_52\n      jump\t// in\n    tag_150:\n        /* \"#utility.yul\":5938:6058   */\n    tag_149:\n        /* \"#utility.yul\":6097:6098   */\n      0x00\n        /* \"#utility.yul\":6122:6185   */\n      tag_151\n        /* \"#utility.yul\":6177:6184   */\n      dup9\n        /* \"#utility.yul\":6168:6174   */\n      dup3\n        /* \"#utility.yul\":6157:6166   */\n      dup10\n        /* \"#utility.yul\":6153:6175   */\n      add\n        /* \"#utility.yul\":6122:6185   */\n      tag_70\n      jump\t// in\n    tag_151:\n        /* \"#utility.yul\":6112:6185   */\n      swap6\n      pop\n        /* \"#utility.yul\":6068:6195   */\n      pop\n        /* \"#utility.yul\":6234:6236   */\n      0x20\n        /* \"#utility.yul\":6260:6323   */\n      tag_152\n        /* \"#utility.yul\":6315:6322   */\n      dup9\n        /* \"#utility.yul\":6306:6312   */\n      dup3\n        /* \"#utility.yul\":6295:6304   */\n      dup10\n        /* \"#utility.yul\":6291:6313   */\n      add\n        /* \"#utility.yul\":6260:6323   */\n      tag_73\n      jump\t// in\n    tag_152:\n        /* \"#utility.yul\":6250:6323   */\n      swap5\n      pop\n        /* \"#utility.yul\":6205:6333   */\n      pop\n        /* \"#utility.yul\":6372:6374   */\n      0x40\n        /* \"#utility.yul\":6398:6462   */\n      tag_153\n        /* \"#utility.yul\":6454:6461   */\n      dup9\n        /* \"#utility.yul\":6445:6451   */\n      dup3\n        /* \"#utility.yul\":6434:6443   */\n      dup10\n        /* \"#utility.yul\":6430:6452   */\n      add\n        /* \"#utility.yul\":6398:6462   */\n      tag_74\n      jump\t// in\n    tag_153:\n        /* \"#utility.yul\":6388:6462   */\n      swap4\n      pop\n        /* \"#utility.yul\":6343:6472   */\n      pop\n        /* \"#utility.yul\":6511:6513   */\n      0x60\n        /* \"#utility.yul\":6537:6601   */\n      tag_154\n        /* \"#utility.yul\":6593:6600   */\n      dup9\n        /* \"#utility.yul\":6584:6590   */\n      dup3\n        /* \"#utility.yul\":6573:6582   */\n      dup10\n        /* \"#utility.yul\":6569:6591   */\n      add\n        /* \"#utility.yul\":6537:6601   */\n      tag_74\n      jump\t// in\n    tag_154:\n        /* \"#utility.yul\":6527:6601   */\n      swap3\n      pop\n        /* \"#utility.yul\":6482:6611   */\n      pop\n        /* \"#utility.yul\":6650:6653   */\n      0x80\n        /* \"#utility.yul\":6677:6740   */\n      tag_155\n        /* \"#utility.yul\":6732:6739   */\n      dup9\n        /* \"#utility.yul\":6723:6729   */\n      dup3\n        /* \"#utility.yul\":6712:6721   */\n      dup10\n        /* \"#utility.yul\":6708:6730   */\n      add\n        /* \"#utility.yul\":6677:6740   */\n      tag_70\n      jump\t// in\n    tag_155:\n        /* \"#utility.yul\":6667:6740   */\n      swap2\n      pop\n        /* \"#utility.yul\":6621:6750   */\n      pop\n        /* \"#utility.yul\":5786:6757   */\n      swap3\n      swap6\n      pop\n      swap3\n      swap6\n      swap1\n      swap4\n      pop\n      jump\t// out\n        /* \"#utility.yul\":6763:7319   */\n    tag_50:\n        /* \"#utility.yul\":6802:6809   */\n      0x00\n        /* \"#utility.yul\":6825:6844   */\n      tag_157\n        /* \"#utility.yul\":6842:6843   */\n      dup3\n        /* \"#utility.yul\":6825:6844   */\n      tag_71\n      jump\t// in\n    tag_157:\n        /* \"#utility.yul\":6820:6844   */\n      swap2\n      pop\n        /* \"#utility.yul\":6858:6877   */\n      tag_158\n        /* \"#utility.yul\":6875:6876   */\n      dup4\n        /* \"#utility.yul\":6858:6877   */\n      tag_71\n      jump\t// in\n    tag_158:\n        /* \"#utility.yul\":6853:6877   */\n      swap3\n      pop\n        /* \"#utility.yul\":6912:6913   */\n      dup3\n        /* \"#utility.yul\":6909:6910   */\n      dup3\n        /* \"#utility.yul\":6905:6914   */\n      mul\n        /* \"#utility.yul\":6934:6963   */\n      tag_159\n        /* \"#utility.yul\":6951:6962   */\n      dup2\n        /* \"#utility.yul\":6934:6963   */\n      tag_71\n      jump\t// in\n    tag_159:\n        /* \"#utility.yul\":6923:6963   */\n      swap2\n      pop\n        /* \"#utility.yul\":7021:7087   */\n      0x8000000000000000000000000000000000000000000000000000000000000000\n        /* \"#utility.yul\":7018:7019   */\n      dup5\n        /* \"#utility.yul\":7015:7088   */\n      eq\n        /* \"#utility.yul\":7011:7012   */\n      0x00\n        /* \"#utility.yul\":7008:7009   */\n      dup5\n        /* \"#utility.yul\":7004:7013   */\n      slt\n        /* \"#utility.yul\":7000:7089   */\n      and\n        /* \"#utility.yul\":6997:7112   */\n      iszero\n      tag_160\n      jumpi\n        /* \"#utility.yul\":7092:7110   */\n      tag_161\n      tag_66\n      jump\t// in\n    tag_161:\n        /* \"#utility.yul\":6997:7112   */\n    tag_160:\n        /* \"#utility.yul\":7262:7263   */\n      dup3\n        /* \"#utility.yul\":7253:7260   */\n      dup3\n        /* \"#utility.yul\":7248:7264   */\n      sdiv\n        /* \"#utility.yul\":7245:7246   */\n      dup5\n        /* \"#utility.yul\":7242:7265   */\n      eq\n        /* \"#utility.yul\":7222:7223   */\n      dup4\n        /* \"#utility.yul\":7215:7224   */\n      iszero\n        /* \"#utility.yul\":7195:7279   */\n      or\n        /* \"#utility.yul\":7172:7312   */\n      tag_162\n      jumpi\n        /* \"#utility.yul\":7292:7310   */\n      tag_163\n      tag_66\n      jump\t// in\n    tag_163:\n        /* \"#utility.yul\":7172:7312   */\n    tag_162:\n        /* \"#utility.yul\":6810:7319   */\n      pop\n        /* \"#utility.yul\":6763:7319   */\n      swap3\n      swap2\n      pop\n      pop\n      jump\t// out\n\n    auxdata: 0xa2646970667358221220853fb22e2614e1dc8e6d52776043f5fd8acba967aea9cf0df625efd28896acdb64736f6c634300081e0033\n}\n",
				"bytecode": {
					"linkReferences": {},
					"object": "60806040526729a2241af62c00005f553480156019575f5ffd5b506107ae806100275f395ff3fe60806040526004361061003e575f3560e01c80633e47d6f314610042578063b60d42881461007e578063cd5a894514610088578063dc0d3dff146100b2575b5f5ffd5b34801561004d575f5ffd5b50610068600480360381019061006391906103b6565b6100ee565b60405161007591906103f9565b60405180910390f35b610086610103565b005b348015610093575f5ffd5b5061009c61023b565b6040516100a991906103f9565b60405180910390f35b3480156100bd575f5ffd5b506100d860048036038101906100d3919061043c565b610240565b6040516100e59190610476565b60405180910390f35b6002602052805f5260405f205f915090505481565b5f5461010e3461027b565b101561014f576040517f08c379a0000000000000000000000000000000000000000000000000000000008152600401610146906104e9565b60405180910390fd5b600133908060018154018082558091505060019003905f5260205f20015f9091909190916101000a81548173ffffffffffffffffffffffffffffffffffffffff021916908373ffffffffffffffffffffffffffffffffffffffff1602179055503460025f3373ffffffffffffffffffffffffffffffffffffffff1673ffffffffffffffffffffffffffffffffffffffff1681526020019081526020015f20546101f89190610534565b60025f3373ffffffffffffffffffffffffffffffffffffffff1673ffffffffffffffffffffffffffffffffffffffff1681526020019081526020015f2081905550565b5f5481565b6001818154811061024f575f80fd5b905f5260205f20015f915054906101000a900473ffffffffffffffffffffffffffffffffffffffff1681565b5f5f6102856102b3565b90505f670de0b6b3a7640000848361029d9190610567565b6102a791906105d5565b90508092505050919050565b5f5f73694aa1769357215de4fac081bf1f309adc32530690505f8173ffffffffffffffffffffffffffffffffffffffff1663feaf968c6040518163ffffffff1660e01b815260040160a060405180830381865afa158015610316573d5f5f3e3d5ffd5b505050506040513d601f19601f8201168201806040525081019061033a919061068b565b5050509150506402540be400816103519190610702565b9250505090565b5f5ffd5b5f73ffffffffffffffffffffffffffffffffffffffff82169050919050565b5f6103858261035c565b9050919050565b6103958161037b565b811461039f575f5ffd5b50565b5f813590506103b08161038c565b92915050565b5f602082840312156103cb576103ca610358565b5b5f6103d8848285016103a2565b91505092915050565b5f819050919050565b6103f3816103e1565b82525050565b5f60208201905061040c5f8301846103ea565b92915050565b61041b816103e1565b8114610425575f5ffd5b50565b5f8135905061043681610412565b92915050565b5f6020828403121561045157610450610358565b5b5f61045e84828501610428565b91505092915050565b6104708161037b565b82525050565b5f6020820190506104895f830184610467565b92915050565b5f82825260208201905092915050565b7f6469646e27742073656e6420656e6f756768204554482e0000000000000000005f82015250565b5f6104d360178361048f565b91506104de8261049f565b602082019050919050565b5f6020820190508181035f830152610500816104c7565b9050919050565b7f4e487b71000000000000000000000000000000000000000000000000000000005f52601160045260245ffd5b5f61053e826103e1565b9150610549836103e1565b925082820190508082111561056157610560610507565b5b92915050565b5f610571826103e1565b915061057c836103e1565b925082820261058a816103e1565b915082820484148315176105a1576105a0610507565b5b5092915050565b7f4e487b71000000000000000000000000000000000000000000000000000000005f52601260045260245ffd5b5f6105df826103e1565b91506105ea836103e1565b9250826105fa576105f96105a8565b5b828204905092915050565b5f69ffffffffffffffffffff82169050919050565b61062381610605565b811461062d575f5ffd5b50565b5f8151905061063e8161061a565b92915050565b5f819050919050565b61065681610644565b8114610660575f5ffd5b50565b5f815190506106718161064d565b92915050565b5f8151905061068581610412565b92915050565b5f5f5f5f5f60a086880312156106a4576106a3610358565b5b5f6106b188828901610630565b95505060206106c288828901610663565b94505060406106d388828901610677565b93505060606106e488828901610677565b92505060806106f588828901610630565b9150509295509295909350565b5f61070c82610644565b915061071783610644565b925082820261072581610644565b91507f800000000000000000000000000000000000000000000000000000000000000084145f8412161561075c5761075b610507565b5b828205841483151761077157610770610507565b5b509291505056fea2646970667358221220853fb22e2614e1dc8e6d52776043f5fd8acba967aea9cf0df625efd28896acdb64736f6c634300081e0033",
					"opcodes": "PUSH1 0x80 PUSH1 0x40 MSTORE PUSH8 0x29A2241AF62C0000 PUSH0 SSTORE CALLVALUE DUP1 ISZERO PUSH1 0x19 JUMPI PUSH0 PUSH0 REVERT JUMPDEST POP PUSH2 0x7AE DUP1 PUSH2 0x27 PUSH0 CODECOPY PUSH0 RETURN INVALID PUSH1 0x80 PUSH1 0x40 MSTORE PUSH1 0x4 CALLDATASIZE LT PUSH2 0x3E JUMPI PUSH0 CALLDATALOAD PUSH1 0xE0 SHR DUP1 PUSH4 0x3E47D6F3 EQ PUSH2 0x42 JUMPI DUP1 PUSH4 0xB60D4288 EQ PUSH2 0x7E JUMPI DUP1 PUSH4 0xCD5A8945 EQ PUSH2 0x88 JUMPI DUP1 PUSH4 0xDC0D3DFF EQ PUSH2 0xB2 JUMPI JUMPDEST PUSH0 PUSH0 REVERT JUMPDEST CALLVALUE DUP1 ISZERO PUSH2 0x4D JUMPI PUSH0 PUSH0 REVERT JUMPDEST POP PUSH2 0x68 PUSH1 0x4 DUP1 CALLDATASIZE SUB DUP2 ADD SWAP1 PUSH2 0x63 SWAP2 SWAP1 PUSH2 0x3B6 JUMP JUMPDEST PUSH2 0xEE JUMP JUMPDEST PUSH1 0x40 MLOAD PUSH2 0x75 SWAP2 SWAP1 PUSH2 0x3F9 JUMP JUMPDEST PUSH1 0x40 MLOAD DUP1 SWAP2 SUB SWAP1 RETURN JUMPDEST PUSH2 0x86 PUSH2 0x103 JUMP JUMPDEST STOP JUMPDEST CALLVALUE DUP1 ISZERO PUSH2 0x93 JUMPI PUSH0 PUSH0 REVERT JUMPDEST POP PUSH2 0x9C PUSH2 0x23B JUMP JUMPDEST PUSH1 0x40 MLOAD PUSH2 0xA9 SWAP2 SWAP1 PUSH2 0x3F9 JUMP JUMPDEST PUSH1 0x40 MLOAD DUP1 SWAP2 SUB SWAP1 RETURN JUMPDEST CALLVALUE DUP1 ISZERO PUSH2 0xBD JUMPI PUSH0 PUSH0 REVERT JUMPDEST POP PUSH2 0xD8 PUSH1 0x4 DUP1 CALLDATASIZE SUB DUP2 ADD SWAP1 PUSH2 0xD3 SWAP2 SWAP1 PUSH2 0x43C JUMP JUMPDEST PUSH2 0x240 JUMP JUMPDEST PUSH1 0x40 MLOAD PUSH2 0xE5 SWAP2 SWAP1 PUSH2 0x476 JUMP JUMPDEST PUSH1 0x40 MLOAD DUP1 SWAP2 SUB SWAP1 RETURN JUMPDEST PUSH1 0x2 PUSH1 0x20 MSTORE DUP1 PUSH0 MSTORE PUSH1 0x40 PUSH0 KECCAK256 PUSH0 SWAP2 POP SWAP1 POP SLOAD DUP2 JUMP JUMPDEST PUSH0 SLOAD PUSH2 0x10E CALLVALUE PUSH2 0x27B JUMP JUMPDEST LT ISZERO PUSH2 0x14F JUMPI PUSH1 0x40 MLOAD PUSH32 0x8C379A000000000000000000000000000000000000000000000000000000000 DUP2 MSTORE PUSH1 0x4 ADD PUSH2 0x146 SWAP1 PUSH2 0x4E9 JUMP JUMPDEST PUSH1 0x40 MLOAD DUP1 SWAP2 SUB SWAP1 REVERT JUMPDEST PUSH1 0x1 CALLER SWAP1 DUP1 PUSH1 0x1 DUP2 SLOAD ADD DUP1 DUP3 SSTORE DUP1 SWAP2 POP POP PUSH1 0x1 SWAP1 SUB SWAP1 PUSH0 MSTORE PUSH1 0x20 PUSH0 KECCAK256 ADD PUSH0 SWAP1 SWAP2 SWAP1 SWAP2 SWAP1 SWAP2 PUSH2 0x100 EXP DUP2 SLOAD DUP2 PUSH20 0xFFFFFFFFFFFFFFFFFFFFFFFFFFFFFFFFFFFFFFFF MUL NOT AND SWAP1 DUP4 PUSH20 0xFFFFFFFFFFFFFFFFFFFFFFFFFFFFFFFFFFFFFFFF AND MUL OR SWAP1 SSTORE POP CALLVALUE PUSH1 0x2 PUSH0 CALLER PUSH20 0xFFFFFFFFFFFFFFFFFFFFFFFFFFFFFFFFFFFFFFFF AND PUSH20 0xFFFFFFFFFFFFFFFFFFFFFFFFFFFFFFFFFFFFFFFF AND DUP2 MSTORE PUSH1 0x20 ADD SWAP1 DUP2 MSTORE PUSH1 0x20 ADD PUSH0 KECCAK256 SLOAD PUSH2 0x1F8 SWAP2 SWAP1 PUSH2 0x534 JUMP JUMPDEST PUSH1 0x2 PUSH0 CALLER PUSH20 0xFFFFFFFFFFFFFFFFFFFFFFFFFFFFFFFFFFFFFFFF AND PUSH20 0xFFFFFFFFFFFFFFFFFFFFFFFFFFFFFFFFFFFFFFFF AND DUP2 MSTORE PUSH1 0x20 ADD SWAP1 DUP2 MSTORE PUSH1 0x20 ADD PUSH0 KECCAK256 DUP2 SWAP1 SSTORE POP JUMP JUMPDEST PUSH0 SLOAD DUP2 JUMP JUMPDEST PUSH1 0x1 DUP2 DUP2 SLOAD DUP2 LT PUSH2 0x24F JUMPI PUSH0 DUP1 REVERT JUMPDEST SWAP1 PUSH0 MSTORE PUSH1 0x20 PUSH0 KECCAK256 ADD PUSH0 SWAP2 POP SLOAD SWAP1 PUSH2 0x100 EXP SWAP1 DIV PUSH20 0xFFFFFFFFFFFFFFFFFFFFFFFFFFFFFFFFFFFFFFFF AND DUP2 JUMP JUMPDEST PUSH0 PUSH0 PUSH2 0x285 PUSH2 0x2B3 JUMP JUMPDEST SWAP1 POP PUSH0 PUSH8 0xDE0B6B3A7640000 DUP5 DUP4 PUSH2 0x29D SWAP2 SWAP1 PUSH2 0x567 JUMP JUMPDEST PUSH2 0x2A7 SWAP2 SWAP1 PUSH2 0x5D5 JUMP JUMPDEST SWAP1 POP DUP1 SWAP3 POP POP POP SWAP2 SWAP1 POP JUMP JUMPDEST PUSH0 PUSH0 PUSH20 0x694AA1769357215DE4FAC081BF1F309ADC325306 SWAP1 POP PUSH0 DUP2 PUSH20 0xFFFFFFFFFFFFFFFFFFFFFFFFFFFFFFFFFFFFFFFF AND PUSH4 0xFEAF968C PUSH1 0x40 MLOAD DUP2 PUSH4 0xFFFFFFFF AND PUSH1 0xE0 SHL DUP2 MSTORE PUSH1 0x4 ADD PUSH1 0xA0 PUSH1 0x40 MLOAD DUP1 DUP4 SUB DUP2 DUP7 GAS STATICCALL ISZERO DUP1 ISZERO PUSH2 0x316 JUMPI RETURNDATASIZE PUSH0 PUSH0 RETURNDATACOPY RETURNDATASIZE PUSH0 REVERT JUMPDEST POP POP POP POP PUSH1 0x40 MLOAD RETURNDATASIZE PUSH1 0x1F NOT PUSH1 0x1F DUP3 ADD AND DUP3 ADD DUP1 PUSH1 0x40 MSTORE POP DUP2 ADD SWAP1 PUSH2 0x33A SWAP2 SWAP1 PUSH2 0x68B JUMP JUMPDEST POP POP POP SWAP2 POP POP PUSH5 0x2540BE400 DUP2 PUSH2 0x351 SWAP2 SWAP1 PUSH2 0x702 JUMP JUMPDEST SWAP3 POP POP POP SWAP1 JUMP JUMPDEST PUSH0 PUSH0 REVERT JUMPDEST PUSH0 PUSH20 0xFFFFFFFFFFFFFFFFFFFFFFFFFFFFFFFFFFFFFFFF DUP3 AND SWAP1 POP SWAP2 SWAP1 POP JUMP JUMPDEST PUSH0 PUSH2 0x385 DUP3 PUSH2 0x35C JUMP JUMPDEST SWAP1 POP SWAP2 SWAP1 POP JUMP JUMPDEST PUSH2 0x395 DUP2 PUSH2 0x37B JUMP JUMPDEST DUP2 EQ PUSH2 0x39F JUMPI PUSH0 PUSH0 REVERT JUMPDEST POP JUMP JUMPDEST PUSH0 DUP2 CALLDATALOAD SWAP1 POP PUSH2 0x3B0 DUP2 PUSH2 0x38C JUMP JUMPDEST SWAP3 SWAP2 POP POP JUMP JUMPDEST PUSH0 PUSH1 0x20 DUP3 DUP5 SUB SLT ISZERO PUSH2 0x3CB JUMPI PUSH2 0x3CA PUSH2 0x358 JUMP JUMPDEST JUMPDEST PUSH0 PUSH2 0x3D8 DUP5 DUP3 DUP6 ADD PUSH2 0x3A2 JUMP JUMPDEST SWAP2 POP POP SWAP3 SWAP2 POP POP JUMP JUMPDEST PUSH0 DUP2 SWAP1 POP SWAP2 SWAP1 POP JUMP JUMPDEST PUSH2 0x3F3 DUP2 PUSH2 0x3E1 JUMP JUMPDEST DUP3 MSTORE POP POP JUMP JUMPDEST PUSH0 PUSH1 0x20 DUP3 ADD SWAP1 POP PUSH2 0x40C PUSH0 DUP4 ADD DUP5 PUSH2 0x3EA JUMP JUMPDEST SWAP3 SWAP2 POP POP JUMP JUMPDEST PUSH2 0x41B DUP2 PUSH2 0x3E1 JUMP JUMPDEST DUP2 EQ PUSH2 0x425 JUMPI PUSH0 PUSH0 REVERT JUMPDEST POP JUMP JUMPDEST PUSH0 DUP2 CALLDATALOAD SWAP1 POP PUSH2 0x436 DUP2 PUSH2 0x412 JUMP JUMPDEST SWAP3 SWAP2 POP POP JUMP JUMPDEST PUSH0 PUSH1 0x20 DUP3 DUP5 SUB SLT ISZERO PUSH2 0x451 JUMPI PUSH2 0x450 PUSH2 0x358 JUMP JUMPDEST JUMPDEST PUSH0 PUSH2 0x45E DUP5 DUP3 DUP6 ADD PUSH2 0x428 JUMP JUMPDEST SWAP2 POP POP SWAP3 SWAP2 POP POP JUMP JUMPDEST PUSH2 0x470 DUP2 PUSH2 0x37B JUMP JUMPDEST DUP3 MSTORE POP POP JUMP JUMPDEST PUSH0 PUSH1 0x20 DUP3 ADD SWAP1 POP PUSH2 0x489 PUSH0 DUP4 ADD DUP5 PUSH2 0x467 JUMP JUMPDEST SWAP3 SWAP2 POP POP JUMP JUMPDEST PUSH0 DUP3 DUP3 MSTORE PUSH1 0x20 DUP3 ADD SWAP1 POP SWAP3 SWAP2 POP POP JUMP JUMPDEST PUSH32 0x6469646E27742073656E6420656E6F756768204554482E000000000000000000 PUSH0 DUP3 ADD MSTORE POP JUMP JUMPDEST PUSH0 PUSH2 0x4D3 PUSH1 0x17 DUP4 PUSH2 0x48F JUMP JUMPDEST SWAP2 POP PUSH2 0x4DE DUP3 PUSH2 0x49F JUMP JUMPDEST PUSH1 0x20 DUP3 ADD SWAP1 POP SWAP2 SWAP1 POP JUMP JUMPDEST PUSH0 PUSH1 0x20 DUP3 ADD SWAP1 POP DUP2 DUP2 SUB PUSH0 DUP4 ADD MSTORE PUSH2 0x500 DUP2 PUSH2 0x4C7 JUMP JUMPDEST SWAP1 POP SWAP2 SWAP1 POP JUMP JUMPDEST PUSH32 0x4E487B7100000000000000000000000000000000000000000000000000000000 PUSH0 MSTORE PUSH1 0x11 PUSH1 0x4 MSTORE PUSH1 0x24 PUSH0 REVERT JUMPDEST PUSH0 PUSH2 0x53E DUP3 PUSH2 0x3E1 JUMP JUMPDEST SWAP2 POP PUSH2 0x549 DUP4 PUSH2 0x3E1 JUMP JUMPDEST SWAP3 POP DUP3 DUP3 ADD SWAP1 POP DUP1 DUP3 GT ISZERO PUSH2 0x561 JUMPI PUSH2 0x560 PUSH2 0x507 JUMP JUMPDEST JUMPDEST SWAP3 SWAP2 POP POP JUMP JUMPDEST PUSH0 PUSH2 0x571 DUP3 PUSH2 0x3E1 JUMP JUMPDEST SWAP2 POP PUSH2 0x57C DUP4 PUSH2 0x3E1 JUMP JUMPDEST SWAP3 POP DUP3 DUP3 MUL PUSH2 0x58A DUP2 PUSH2 0x3E1 JUMP JUMPDEST SWAP2 POP DUP3 DUP3 DIV DUP5 EQ DUP4 ISZERO OR PUSH2 0x5A1 JUMPI PUSH2 0x5A0 PUSH2 0x507 JUMP JUMPDEST JUMPDEST POP SWAP3 SWAP2 POP POP JUMP JUMPDEST PUSH32 0x4E487B7100000000000000000000000000000000000000000000000000000000 PUSH0 MSTORE PUSH1 0x12 PUSH1 0x4 MSTORE PUSH1 0x24 PUSH0 REVERT JUMPDEST PUSH0 PUSH2 0x5DF DUP3 PUSH2 0x3E1 JUMP JUMPDEST SWAP2 POP PUSH2 0x5EA DUP4 PUSH2 0x3E1 JUMP JUMPDEST SWAP3 POP DUP3 PUSH2 0x5FA JUMPI PUSH2 0x5F9 PUSH2 0x5A8 JUMP JUMPDEST JUMPDEST DUP3 DUP3 DIV SWAP1 POP SWAP3 SWAP2 POP POP JUMP JUMPDEST PUSH0 PUSH10 0xFFFFFFFFFFFFFFFFFFFF DUP3 AND SWAP1 POP SWAP2 SWAP1 POP JUMP JUMPDEST PUSH2 0x623 DUP2 PUSH2 0x605 JUMP JUMPDEST DUP2 EQ PUSH2 0x62D JUMPI PUSH0 PUSH0 REVERT JUMPDEST POP JUMP JUMPDEST PUSH0 DUP2 MLOAD SWAP1 POP PUSH2 0x63E DUP2 PUSH2 0x61A JUMP JUMPDEST SWAP3 SWAP2 POP POP JUMP JUMPDEST PUSH0 DUP2 SWAP1 POP SWAP2 SWAP1 POP JUMP JUMPDEST PUSH2 0x656 DUP2 PUSH2 0x644 JUMP JUMPDEST DUP2 EQ PUSH2 0x660 JUMPI PUSH0 PUSH0 REVERT JUMPDEST POP JUMP JUMPDEST PUSH0 DUP2 MLOAD SWAP1 POP PUSH2 0x671 DUP2 PUSH2 0x64D JUMP JUMPDEST SWAP3 SWAP2 POP POP JUMP JUMPDEST PUSH0 DUP2 MLOAD SWAP1 POP PUSH2 0x685 DUP2 PUSH2 0x412 JUMP JUMPDEST SWAP3 SWAP2 POP POP JUMP JUMPDEST PUSH0 PUSH0 PUSH0 PUSH0 PUSH0 PUSH1 0xA0 DUP7 DUP9 SUB SLT ISZERO PUSH2 0x6A4 JUMPI PUSH2 0x6A3 PUSH2 0x358 JUMP JUMPDEST JUMPDEST PUSH0 PUSH2 0x6B1 DUP9 DUP3 DUP10 ADD PUSH2 0x630 JUMP JUMPDEST SWAP6 POP POP PUSH1 0x20 PUSH2 0x6C2 DUP9 DUP3 DUP10 ADD PUSH2 0x663 JUMP JUMPDEST SWAP5 POP POP PUSH1 0x40 PUSH2 0x6D3 DUP9 DUP3 DUP10 ADD PUSH2 0x677 JUMP JUMPDEST SWAP4 POP POP PUSH1 0x60 PUSH2 0x6E4 DUP9 DUP3 DUP10 ADD PUSH2 0x677 JUMP JUMPDEST SWAP3 POP POP PUSH1 0x80 PUSH2 0x6F5 DUP9 DUP3 DUP10 ADD PUSH2 0x630 JUMP JUMPDEST SWAP2 POP POP SWAP3 SWAP6 POP SWAP3 SWAP6 SWAP1 SWAP4 POP JUMP JUMPDEST PUSH0 PUSH2 0x70C DUP3 PUSH2 0x644 JUMP JUMPDEST SWAP2 POP PUSH2 0x717 DUP4 PUSH2 0x644 JUMP JUMPDEST SWAP3 POP DUP3 DUP3 MUL PUSH2 0x725 DUP2 PUSH2 0x644 JUMP JUMPDEST SWAP2 POP PUSH32 0x8000000000000000000000000000000000000000000000000000000000000000 DUP5 EQ PUSH0 DUP5 SLT AND ISZERO PUSH2 0x75C JUMPI PUSH2 0x75B PUSH2 0x507 JUMP JUMPDEST JUMPDEST DUP3 DUP3 SDIV DUP5 EQ DUP4 ISZERO OR PUSH2 0x771 JUMPI PUSH2 0x770 PUSH2 0x507 JUMP JUMPDEST JUMPDEST POP SWAP3 SWAP2 POP POP JUMP INVALID LOG2 PUSH5 0x6970667358 0x22 SLT KECCAK256 DUP6 EXTCODEHASH 0xB2 0x2E 0x26 EQ RJUMPI 0xDC8E PUSH14 0x52776043F5FD8ACBA967AEA9CF0D 0xF6 0x25 0xEF 0xD2 DUP9 SWAP7 0xAC 0xDB PUSH5 0x736F6C6343 STOP ADDMOD 0x1E STOP CALLER "
				},
				"gasEstimates": {
					"creation": {
						"codeDepositCost": "393200",
						"executionCost": "22533",
						"totalCost": "415733"
					},
					"external": {
						"addressToAmountFunded(address)": "2780",
						"amountInUSD()": "2446",
						"fund()": "infinite",
						"funders(uint256)": "4988"
					}
				},
				"methodIdentifiers": {
					"addressToAmountFunded(address)": "3e47d6f3",
					"amountInUSD()": "cd5a8945",
					"fund()": "b60d4288",
					"funders(uint256)": "dc0d3dff"
				}
			},
			"storageLayout": {
				"storage": [
					{
						"astId": 55,
						"contract": "contracts/Fund.sol:Fund",
						"label": "amountInUSD",
						"offset": 0,
						"slot": "0",
						"type": "t_uint256"
					},
					{
						"astId": 58,
						"contract": "contracts/Fund.sol:Fund",
						"label": "funders",
						"offset": 0,
						"slot": "1",
						"type": "t_array(t_address)dyn_storage"
					},
					{
						"astId": 62,
						"contract": "contracts/Fund.sol:Fund",
						"label": "addressToAmountFunded",
						"offset": 0,
						"slot": "2",
						"type": "t_mapping(t_address,t_uint256)"
					}
				],
				"types": {
					"t_address": {
						"encoding": "inplace",
						"label": "address",
						"numberOfBytes": "20"
					},
					"t_array(t_address)dyn_storage": {
						"base": "t_address",
						"encoding": "dynamic_array",
						"label": "address[]",
						"numberOfBytes": "32"
					},
					"t_mapping(t_address,t_uint256)": {
						"encoding": "mapping",
						"key": "t_address",
						"label": "mapping(address => uint256)",
						"numberOfBytes": "32",
						"value": "t_uint256"
					},
					"t_uint256": {
						"encoding": "inplace",
						"label": "uint256",
						"numberOfBytes": "32"
					}
				}
			},
			"userdoc": {
				"kind": "user",
				"methods": {},
				"version": 1
			}
		}
	}
}