{
	"contracts/Override.sol": {
		"Override": {
			"abi": [
				{
					"inputs": [
						{
							"internalType": "string",
							"name": "_name",
							"type": "string"
						},
						{
							"internalType": "uint256",
							"name": "_favNum",
							"type": "uint256"
						}
					],
					"name": "addPerson",
					"outputs": [],
					"stateMutability": "nonpayable",
					"type": "function"
				},
				{
					"inputs": [
						{
							"internalType": "uint256",
							"name": "",
							"type": "uint256"
						}
					],
					"name": "listOfPeople",
					"outputs": [
						{
							"internalType": "uint256",
							"name": "favNum",
							"type": "uint256"
						},
						{
							"internalType": "string",
							"name": "name",
							"type": "string"
						}
					],
					"stateMutability": "view",
					"type": "function"
				},
				{
					"inputs": [],
					"name": "mybrother",
					"outputs": [
						{
							"internalType": "uint256",
							"name": "favNum",
							"type": "uint256"
						},
						{
							"internalType": "string",
							"name": "name",
							"type": "string"
						}
					],
					"stateMutability": "view",
					"type": "function"
				},
				{
					"inputs": [
						{
							"internalType": "string",
							"name": "",
							"type": "string"
						}
					],
					"name": "nameToFavNum",
					"outputs": [
						{
							"internalType": "uint256",
							"name": "",
							"type": "uint256"
						}
					],
					"stateMutability": "view",
					"type": "function"
				},
				{
					"inputs": [],
					"name": "retreive",
					"outputs": [
						{
							"internalType": "uint256",
							"name": "",
							"type": "uint256"
						}
					],
					"stateMutability": "view",
					"type": "function"
				},
				{
					"inputs": [
						{
							"internalType": "uint256",
							"name": "_favouriteNumber",
							"type": "uint256"
						}
					],
					"name": "store",
					"outputs": [],
					"stateMutability": "nonpayable",
					"type": "function"
				}
			],
			"devdoc": {
				"kind": "dev",
				"methods": {},
				"version": 1
			},
			"evm": {
				"assembly": "    /* \"contracts/Override.sol\":123:282  contract Override is SimpleStorage{... */\n  mstore(0x40, 0x80)\n    /* \"contracts/SimpleStorage.sol\":603:622  Person(21,\"Tushar\") */\n  mload(0x40)\n  dup1\n  0x40\n  add\n  0x40\n  mstore\n  dup1\n    /* \"contracts/SimpleStorage.sol\":610:612  21 */\n  0x15\n    /* \"contracts/SimpleStorage.sol\":603:622  Person(21,\"Tushar\") */\n  dup2\n  mstore\n  0x20\n  add\n  mload(0x40)\n  dup1\n  0x40\n  add\n  0x40\n  mstore\n  dup1\n  0x06\n  dup2\n  mstore\n  0x20\n  add\n  0x5475736861720000000000000000000000000000000000000000000000000000\n  dup2\n  mstore\n  pop\n  dup2\n  mstore\n  pop\n    /* \"contracts/SimpleStorage.sol\":577:622  Person public mybrother = Person(21,\"Tushar\") */\n  0x03\n  0x00\n  dup3\n  add\n  mload\n  dup2\n  0x00\n  add\n  sstore\n  0x20\n  dup3\n  add\n  mload\n  dup2\n  0x01\n  add\n  swap1\n  dup2\n  tag_1\n  swap2\n  swap1\n  tag_2\n  jump\t// in\ntag_1:\n  pop\n  pop\n  pop\n    /* \"contracts/Override.sol\":123:282  contract Override is SimpleStorage{... */\n  callvalue\n  dup1\n  iszero\n  tag_3\n  jumpi\n  revert(0x00, 0x00)\ntag_3:\n  pop\n  jump(tag_4)\n    /* \"#utility.yul\":7:106   */\ntag_5:\n    /* \"#utility.yul\":59:65   */\n  0x00\n    /* \"#utility.yul\":93:98   */\n  dup2\n    /* \"#utility.yul\":87:99   */\n  mload\n    /* \"#utility.yul\":77:99   */\n  swap1\n  pop\n    /* \"#utility.yul\":7:106   */\n  swap2\n  swap1\n  pop\n  jump\t// out\n    /* \"#utility.yul\":112:292   */\ntag_6:\n    /* \"#utility.yul\":160:237   */\n  0x4e487b7100000000000000000000000000000000000000000000000000000000\n    /* \"#utility.yul\":157:158   */\n  0x00\n    /* \"#utility.yul\":150:238   */\n  mstore\n    /* \"#utility.yul\":257:261   */\n  0x41\n    /* \"#utility.yul\":254:255   */\n  0x04\n    /* \"#utility.yul\":247:262   */\n  mstore\n    /* \"#utility.yul\":281:285   */\n  0x24\n    /* \"#utility.yul\":278:279   */\n  0x00\n    /* \"#utility.yul\":271:286   */\n  revert\n    /* \"#utility.yul\":298:478   */\ntag_7:\n    /* \"#utility.yul\":346:423   */\n  0x4e487b7100000000000000000000000000000000000000000000000000000000\n    /* \"#utility.yul\":343:344   */\n  0x00\n    /* \"#utility.yul\":336:424   */\n  mstore\n    /* \"#utility.yul\":443:447   */\n  0x22\n    /* \"#utility.yul\":440:441   */\n  0x04\n    /* \"#utility.yul\":433:448   */\n  mstore\n    /* \"#utility.yul\":467:471   */\n  0x24\n    /* \"#utility.yul\":464:465   */\n  0x00\n    /* \"#utility.yul\":457:472   */\n  revert\n    /* \"#utility.yul\":484:804   */\ntag_8:\n    /* \"#utility.yul\":528:534   */\n  0x00\n    /* \"#utility.yul\":565:566   */\n  0x02\n    /* \"#utility.yul\":559:563   */\n  dup3\n    /* \"#utility.yul\":555:567   */\n  div\n    /* \"#utility.yul\":545:567   */\n  swap1\n  pop\n    /* \"#utility.yul\":612:613   */\n  0x01\n    /* \"#utility.yul\":606:610   */\n  dup3\n    /* \"#utility.yul\":602:614   */\n  and\n    /* \"#utility.yul\":633:651   */\n  dup1\n    /* \"#utility.yul\":623:704   */\n  tag_30\n  jumpi\n    /* \"#utility.yul\":689:693   */\n  0x7f\n    /* \"#utility.yul\":681:687   */\n  dup3\n    /* \"#utility.yul\":677:694   */\n  and\n    /* \"#utility.yul\":667:694   */\n  swap2\n  pop\n    /* \"#utility.yul\":623:704   */\ntag_30:\n    /* \"#utility.yul\":751:753   */\n  0x20\n    /* \"#utility.yul\":743:749   */\n  dup3\n    /* \"#utility.yul\":740:754   */\n  lt\n    /* \"#utility.yul\":720:738   */\n  dup2\n    /* \"#utility.yul\":717:755   */\n  sub\n    /* \"#utility.yul\":714:798   */\n  tag_31\n  jumpi\n    /* \"#utility.yul\":770:788   */\n  tag_32\n  tag_7\n  jump\t// in\ntag_32:\n    /* \"#utility.yul\":714:798   */\ntag_31:\n    /* \"#utility.yul\":535:804   */\n  pop\n    /* \"#utility.yul\":484:804   */\n  swap2\n  swap1\n  pop\n  jump\t// out\n    /* \"#utility.yul\":810:951   */\ntag_9:\n    /* \"#utility.yul\":859:863   */\n  0x00\n    /* \"#utility.yul\":882:885   */\n  dup2\n    /* \"#utility.yul\":874:885   */\n  swap1\n  pop\n    /* \"#utility.yul\":905:908   */\n  dup2\n    /* \"#utility.yul\":902:903   */\n  0x00\n    /* \"#utility.yul\":895:909   */\n  mstore\n    /* \"#utility.yul\":939:943   */\n  0x20\n    /* \"#utility.yul\":936:937   */\n  0x00\n    /* \"#utility.yul\":926:944   */\n  keccak256\n    /* \"#utility.yul\":918:944   */\n  swap1\n  pop\n    /* \"#utility.yul\":810:951   */\n  swap2\n  swap1\n  pop\n  jump\t// out\n    /* \"#utility.yul\":957:1050   */\ntag_10:\n    /* \"#utility.yul\":994:1000   */\n  0x00\n    /* \"#utility.yul\":1041:1043   */\n  0x20\n    /* \"#utility.yul\":1036:1038   */\n  0x1f\n    /* \"#utility.yul\":1029:1034   */\n  dup4\n    /* \"#utility.yul\":1025:1039   */\n  add\n    /* \"#utility.yul\":1021:1044   */\n  div\n    /* \"#utility.yul\":1011:1044   */\n  swap1\n  pop\n    /* \"#utility.yul\":957:1050   */\n  swap2\n  swap1\n  pop\n  jump\t// out\n    /* \"#utility.yul\":1056:1163   */\ntag_11:\n    /* \"#utility.yul\":1100:1108   */\n  0x00\n    /* \"#utility.yul\":1150:1155   */\n  dup3\n    /* \"#utility.yul\":1144:1148   */\n  dup3\n    /* \"#utility.yul\":1140:1156   */\n  shl\n    /* \"#utility.yul\":1119:1156   */\n  swap1\n  pop\n    /* \"#utility.yul\":1056:1163   */\n  swap3\n  swap2\n  pop\n  pop\n  jump\t// out\n    /* \"#utility.yul\":1169:1562   */\ntag_12:\n    /* \"#utility.yul\":1238:1244   */\n  0x00\n    /* \"#utility.yul\":1288:1289   */\n  0x08\n    /* \"#utility.yul\":1276:1286   */\n  dup4\n    /* \"#utility.yul\":1272:1290   */\n  mul\n    /* \"#utility.yul\":1311:1408   */\n  tag_37\n    /* \"#utility.yul\":1341:1407   */\n  0xffffffffffffffffffffffffffffffffffffffffffffffffffffffffffffffff\n    /* \"#utility.yul\":1330:1339   */\n  dup3\n    /* \"#utility.yul\":1311:1408   */\n  tag_11\n  jump\t// in\ntag_37:\n    /* \"#utility.yul\":1429:1468   */\n  tag_38\n    /* \"#utility.yul\":1459:1467   */\n  dup7\n    /* \"#utility.yul\":1448:1457   */\n  dup4\n    /* \"#utility.yul\":1429:1468   */\n  tag_11\n  jump\t// in\ntag_38:\n    /* \"#utility.yul\":1417:1468   */\n  swap6\n  pop\n    /* \"#utility.yul\":1501:1505   */\n  dup1\n    /* \"#utility.yul\":1497:1506   */\n  not\n    /* \"#utility.yul\":1490:1495   */\n  dup5\n    /* \"#utility.yul\":1486:1507   */\n  and\n    /* \"#utility.yul\":1477:1507   */\n  swap4\n  pop\n    /* \"#utility.yul\":1550:1554   */\n  dup1\n    /* \"#utility.yul\":1540:1548   */\n  dup7\n    /* \"#utility.yul\":1536:1555   */\n  and\n    /* \"#utility.yul\":1529:1534   */\n  dup5\n    /* \"#utility.yul\":1526:1556   */\n  or\n    /* \"#utility.yul\":1516:1556   */\n  swap3\n  pop\n    /* \"#utility.yul\":1245:1562   */\n  pop\n  pop\n    /* \"#utility.yul\":1169:1562   */\n  swap4\n  swap3\n  pop\n  pop\n  pop\n  jump\t// out\n    /* \"#utility.yul\":1568:1645   */\ntag_13:\n    /* \"#utility.yul\":1605:1612   */\n  0x00\n    /* \"#utility.yul\":1634:1639   */\n  dup2\n    /* \"#utility.yul\":1623:1639   */\n  swap1\n  pop\n    /* \"#utility.yul\":1568:1645   */\n  swap2\n  swap1\n  pop\n  jump\t// out\n    /* \"#utility.yul\":1651:1711   */\ntag_14:\n    /* \"#utility.yul\":1679:1682   */\n  0x00\n    /* \"#utility.yul\":1700:1705   */\n  dup2\n    /* \"#utility.yul\":1693:1705   */\n  swap1\n  pop\n    /* \"#utility.yul\":1651:1711   */\n  swap2\n  swap1\n  pop\n  jump\t// out\n    /* \"#utility.yul\":1717:1859   */\ntag_15:\n    /* \"#utility.yul\":1767:1776   */\n  0x00\n    /* \"#utility.yul\":1800:1853   */\n  tag_42\n    /* \"#utility.yul\":1818:1852   */\n  tag_43\n    /* \"#utility.yul\":1827:1851   */\n  tag_44\n    /* \"#utility.yul\":1845:1850   */\n  dup5\n    /* \"#utility.yul\":1827:1851   */\n  tag_13\n  jump\t// in\ntag_44:\n    /* \"#utility.yul\":1818:1852   */\n  tag_14\n  jump\t// in\ntag_43:\n    /* \"#utility.yul\":1800:1853   */\n  tag_13\n  jump\t// in\ntag_42:\n    /* \"#utility.yul\":1787:1853   */\n  swap1\n  pop\n    /* \"#utility.yul\":1717:1859   */\n  swap2\n  swap1\n  pop\n  jump\t// out\n    /* \"#utility.yul\":1865:1940   */\ntag_16:\n    /* \"#utility.yul\":1908:1911   */\n  0x00\n    /* \"#utility.yul\":1929:1934   */\n  dup2\n    /* \"#utility.yul\":1922:1934   */\n  swap1\n  pop\n    /* \"#utility.yul\":1865:1940   */\n  swap2\n  swap1\n  pop\n  jump\t// out\n    /* \"#utility.yul\":1946:2215   */\ntag_17:\n    /* \"#utility.yul\":2056:2095   */\n  tag_47\n    /* \"#utility.yul\":2087:2094   */\n  dup4\n    /* \"#utility.yul\":2056:2095   */\n  tag_15\n  jump\t// in\ntag_47:\n    /* \"#utility.yul\":2117:2208   */\n  tag_48\n    /* \"#utility.yul\":2166:2207   */\n  tag_49\n    /* \"#utility.yul\":2190:2206   */\n  dup3\n    /* \"#utility.yul\":2166:2207   */\n  tag_16\n  jump\t// in\ntag_49:\n    /* \"#utility.yul\":2158:2164   */\n  dup5\n    /* \"#utility.yul\":2151:2155   */\n  dup5\n    /* \"#utility.yul\":2145:2156   */\n  sload\n    /* \"#utility.yul\":2117:2208   */\n  tag_12\n  jump\t// in\ntag_48:\n    /* \"#utility.yul\":2111:2115   */\n  dup3\n    /* \"#utility.yul\":2104:2209   */\n  sstore\n    /* \"#utility.yul\":2022:2215   */\n  pop\n    /* \"#utility.yul\":1946:2215   */\n  pop\n  pop\n  pop\n  jump\t// out\n    /* \"#utility.yul\":2221:2294   */\ntag_18:\n    /* \"#utility.yul\":2266:2269   */\n  0x00\n    /* \"#utility.yul\":2287:2288   */\n  0x00\n    /* \"#utility.yul\":2280:2288   */\n  swap1\n  pop\n    /* \"#utility.yul\":2221:2294   */\n  swap1\n  jump\t// out\n    /* \"#utility.yul\":2300:2489   */\ntag_19:\n    /* \"#utility.yul\":2377:2409   */\n  tag_52\n  tag_18\n  jump\t// in\ntag_52:\n    /* \"#utility.yul\":2418:2483   */\n  tag_53\n    /* \"#utility.yul\":2476:2482   */\n  dup2\n    /* \"#utility.yul\":2468:2474   */\n  dup5\n    /* \"#utility.yul\":2462:2466   */\n  dup5\n    /* \"#utility.yul\":2418:2483   */\n  tag_17\n  jump\t// in\ntag_53:\n    /* \"#utility.yul\":2353:2489   */\n  pop\n    /* \"#utility.yul\":2300:2489   */\n  pop\n  pop\n  jump\t// out\n    /* \"#utility.yul\":2495:2681   */\ntag_20:\n    /* \"#utility.yul\":2555:2675   */\ntag_55:\n    /* \"#utility.yul\":2572:2575   */\n  dup2\n    /* \"#utility.yul\":2565:2570   */\n  dup2\n    /* \"#utility.yul\":2562:2576   */\n  lt\n    /* \"#utility.yul\":2555:2675   */\n  iszero\n  tag_57\n  jumpi\n    /* \"#utility.yul\":2626:2665   */\n  tag_58\n    /* \"#utility.yul\":2663:2664   */\n  0x00\n    /* \"#utility.yul\":2656:2661   */\n  dup3\n    /* \"#utility.yul\":2626:2665   */\n  tag_19\n  jump\t// in\ntag_58:\n    /* \"#utility.yul\":2599:2600   */\n  0x01\n    /* \"#utility.yul\":2592:2597   */\n  dup2\n    /* \"#utility.yul\":2588:2601   */\n  add\n    /* \"#utility.yul\":2579:2601   */\n  swap1\n  pop\n    /* \"#utility.yul\":2555:2675   */\n  jump(tag_55)\ntag_57:\n    /* \"#utility.yul\":2495:2681   */\n  pop\n  pop\n  jump\t// out\n    /* \"#utility.yul\":2687:3230   */\ntag_21:\n    /* \"#utility.yul\":2788:2790   */\n  0x1f\n    /* \"#utility.yul\":2783:2786   */\n  dup3\n    /* \"#utility.yul\":2780:2791   */\n  gt\n    /* \"#utility.yul\":2777:3223   */\n  iszero\n  tag_60\n  jumpi\n    /* \"#utility.yul\":2822:2860   */\n  tag_61\n    /* \"#utility.yul\":2854:2859   */\n  dup2\n    /* \"#utility.yul\":2822:2860   */\n  tag_9\n  jump\t// in\ntag_61:\n    /* \"#utility.yul\":2906:2935   */\n  tag_62\n    /* \"#utility.yul\":2924:2934   */\n  dup5\n    /* \"#utility.yul\":2906:2935   */\n  tag_10\n  jump\t// in\ntag_62:\n    /* \"#utility.yul\":2896:2904   */\n  dup2\n    /* \"#utility.yul\":2892:2936   */\n  add\n    /* \"#utility.yul\":3089:3091   */\n  0x20\n    /* \"#utility.yul\":3077:3087   */\n  dup6\n    /* \"#utility.yul\":3074:3092   */\n  lt\n    /* \"#utility.yul\":3071:3120   */\n  iszero\n  tag_63\n  jumpi\n    /* \"#utility.yul\":3110:3118   */\n  dup2\n    /* \"#utility.yul\":3095:3118   */\n  swap1\n  pop\n    /* \"#utility.yul\":3071:3120   */\ntag_63:\n    /* \"#utility.yul\":3133:3213   */\n  tag_64\n    /* \"#utility.yul\":3189:3211   */\n  tag_65\n    /* \"#utility.yul\":3207:3210   */\n  dup6\n    /* \"#utility.yul\":3189:3211   */\n  tag_10\n  jump\t// in\ntag_65:\n    /* \"#utility.yul\":3179:3187   */\n  dup4\n    /* \"#utility.yul\":3175:3212   */\n  add\n    /* \"#utility.yul\":3162:3173   */\n  dup3\n    /* \"#utility.yul\":3133:3213   */\n  tag_20\n  jump\t// in\ntag_64:\n    /* \"#utility.yul\":2792:3223   */\n  pop\n  pop\n    /* \"#utility.yul\":2777:3223   */\ntag_60:\n    /* \"#utility.yul\":2687:3230   */\n  pop\n  pop\n  pop\n  jump\t// out\n    /* \"#utility.yul\":3236:3353   */\ntag_22:\n    /* \"#utility.yul\":3290:3298   */\n  0x00\n    /* \"#utility.yul\":3340:3345   */\n  dup3\n    /* \"#utility.yul\":3334:3338   */\n  dup3\n    /* \"#utility.yul\":3330:3346   */\n  shr\n    /* \"#utility.yul\":3309:3346   */\n  swap1\n  pop\n    /* \"#utility.yul\":3236:3353   */\n  swap3\n  swap2\n  pop\n  pop\n  jump\t// out\n    /* \"#utility.yul\":3359:3528   */\ntag_23:\n    /* \"#utility.yul\":3403:3409   */\n  0x00\n    /* \"#utility.yul\":3436:3487   */\n  tag_68\n    /* \"#utility.yul\":3484:3485   */\n  0x00\n    /* \"#utility.yul\":3480:3486   */\n  not\n    /* \"#utility.yul\":3472:3477   */\n  dup5\n    /* \"#utility.yul\":3469:3470   */\n  0x08\n    /* \"#utility.yul\":3465:3478   */\n  mul\n    /* \"#utility.yul\":3436:3487   */\n  tag_22\n  jump\t// in\ntag_68:\n    /* \"#utility.yul\":3432:3488   */\n  not\n    /* \"#utility.yul\":3517:3521   */\n  dup1\n    /* \"#utility.yul\":3511:3515   */\n  dup4\n    /* \"#utility.yul\":3507:3522   */\n  and\n    /* \"#utility.yul\":3497:3522   */\n  swap2\n  pop\n    /* \"#utility.yul\":3410:3528   */\n  pop\n    /* \"#utility.yul\":3359:3528   */\n  swap3\n  swap2\n  pop\n  pop\n  jump\t// out\n    /* \"#utility.yul\":3533:3828   */\ntag_24:\n    /* \"#utility.yul\":3609:3613   */\n  0x00\n    /* \"#utility.yul\":3755:3784   */\n  tag_70\n    /* \"#utility.yul\":3780:3783   */\n  dup4\n    /* \"#utility.yul\":3774:3778   */\n  dup4\n    /* \"#utility.yul\":3755:3784   */\n  tag_23\n  jump\t// in\ntag_70:\n    /* \"#utility.yul\":3747:3784   */\n  swap2\n  pop\n    /* \"#utility.yul\":3817:3820   */\n  dup3\n    /* \"#utility.yul\":3814:3815   */\n  0x02\n    /* \"#utility.yul\":3810:3821   */\n  mul\n    /* \"#utility.yul\":3804:3808   */\n  dup3\n    /* \"#utility.yul\":3801:3822   */\n  or\n    /* \"#utility.yul\":3793:3822   */\n  swap1\n  pop\n    /* \"#utility.yul\":3533:3828   */\n  swap3\n  swap2\n  pop\n  pop\n  jump\t// out\n    /* \"#utility.yul\":3833:5228   */\ntag_2:\n    /* \"#utility.yul\":3950:3987   */\n  tag_72\n    /* \"#utility.yul\":3983:3986   */\n  dup3\n    /* \"#utility.yul\":3950:3987   */\n  tag_5\n  jump\t// in\ntag_72:\n    /* \"#utility.yul\":4052:4070   */\n  0xffffffffffffffff\n    /* \"#utility.yul\":4044:4050   */\n  dup2\n    /* \"#utility.yul\":4041:4071   */\n  gt\n    /* \"#utility.yul\":4038:4094   */\n  iszero\n  tag_73\n  jumpi\n    /* \"#utility.yul\":4074:4092   */\n  tag_74\n  tag_6\n  jump\t// in\ntag_74:\n    /* \"#utility.yul\":4038:4094   */\ntag_73:\n    /* \"#utility.yul\":4118:4156   */\n  tag_75\n    /* \"#utility.yul\":4150:4154   */\n  dup3\n    /* \"#utility.yul\":4144:4155   */\n  sload\n    /* \"#utility.yul\":4118:4156   */\n  tag_8\n  jump\t// in\ntag_75:\n    /* \"#utility.yul\":4203:4270   */\n  tag_76\n    /* \"#utility.yul\":4263:4269   */\n  dup3\n    /* \"#utility.yul\":4255:4261   */\n  dup3\n    /* \"#utility.yul\":4249:4253   */\n  dup6\n    /* \"#utility.yul\":4203:4270   */\n  tag_21\n  jump\t// in\ntag_76:\n    /* \"#utility.yul\":4297:4298   */\n  0x00\n    /* \"#utility.yul\":4321:4325   */\n  0x20\n    /* \"#utility.yul\":4308:4325   */\n  swap1\n  pop\n    /* \"#utility.yul\":4353:4355   */\n  0x1f\n    /* \"#utility.yul\":4345:4351   */\n  dup4\n    /* \"#utility.yul\":4342:4356   */\n  gt\n    /* \"#utility.yul\":4370:4371   */\n  0x01\n    /* \"#utility.yul\":4365:4983   */\n  dup2\n  eq\n  tag_78\n  jumpi\n    /* \"#utility.yul\":5027:5028   */\n  0x00\n    /* \"#utility.yul\":5044:5050   */\n  dup5\n    /* \"#utility.yul\":5041:5118   */\n  iszero\n  tag_79\n  jumpi\n    /* \"#utility.yul\":5093:5102   */\n  dup3\n    /* \"#utility.yul\":5088:5091   */\n  dup8\n    /* \"#utility.yul\":5084:5103   */\n  add\n    /* \"#utility.yul\":5078:5104   */\n  mload\n    /* \"#utility.yul\":5069:5104   */\n  swap1\n  pop\n    /* \"#utility.yul\":5041:5118   */\ntag_79:\n    /* \"#utility.yul\":5144:5211   */\n  tag_80\n    /* \"#utility.yul\":5204:5210   */\n  dup6\n    /* \"#utility.yul\":5197:5202   */\n  dup3\n    /* \"#utility.yul\":5144:5211   */\n  tag_24\n  jump\t// in\ntag_80:\n    /* \"#utility.yul\":5138:5142   */\n  dup7\n    /* \"#utility.yul\":5131:5212   */\n  sstore\n    /* \"#utility.yul\":5000:5222   */\n  pop\n    /* \"#utility.yul\":4335:5222   */\n  jump(tag_77)\n    /* \"#utility.yul\":4365:4983   */\ntag_78:\n    /* \"#utility.yul\":4417:4421   */\n  0x1f\n    /* \"#utility.yul\":4413:4422   */\n  not\n    /* \"#utility.yul\":4405:4411   */\n  dup5\n    /* \"#utility.yul\":4401:4423   */\n  and\n    /* \"#utility.yul\":4451:4488   */\n  tag_81\n    /* \"#utility.yul\":4483:4487   */\n  dup7\n    /* \"#utility.yul\":4451:4488   */\n  tag_9\n  jump\t// in\ntag_81:\n    /* \"#utility.yul\":4510:4511   */\n  0x00\n    /* \"#utility.yul\":4524:4732   */\ntag_82:\n    /* \"#utility.yul\":4538:4545   */\n  dup3\n    /* \"#utility.yul\":4535:4536   */\n  dup2\n    /* \"#utility.yul\":4532:4546   */\n  lt\n    /* \"#utility.yul\":4524:4732   */\n  iszero\n  tag_84\n  jumpi\n    /* \"#utility.yul\":4617:4626   */\n  dup5\n    /* \"#utility.yul\":4612:4615   */\n  dup10\n    /* \"#utility.yul\":4608:4627   */\n  add\n    /* \"#utility.yul\":4602:4628   */\n  mload\n    /* \"#utility.yul\":4594:4600   */\n  dup3\n    /* \"#utility.yul\":4587:4629   */\n  sstore\n    /* \"#utility.yul\":4668:4669   */\n  0x01\n    /* \"#utility.yul\":4660:4666   */\n  dup3\n    /* \"#utility.yul\":4656:4670   */\n  add\n    /* \"#utility.yul\":4646:4670   */\n  swap2\n  pop\n    /* \"#utility.yul\":4715:4717   */\n  0x20\n    /* \"#utility.yul\":4704:4713   */\n  dup6\n    /* \"#utility.yul\":4700:4718   */\n  add\n    /* \"#utility.yul\":4687:4718   */\n  swap5\n  pop\n    /* \"#utility.yul\":4561:4565   */\n  0x20\n    /* \"#utility.yul\":4558:4559   */\n  dup2\n    /* \"#utility.yul\":4554:4566   */\n  add\n    /* \"#utility.yul\":4549:4566   */\n  swap1\n  pop\n    /* \"#utility.yul\":4524:4732   */\n  jump(tag_82)\ntag_84:\n    /* \"#utility.yul\":4760:4766   */\n  dup7\n    /* \"#utility.yul\":4751:4758   */\n  dup4\n    /* \"#utility.yul\":4748:4767   */\n  lt\n    /* \"#utility.yul\":4745:4924   */\n  iszero\n  tag_85\n  jumpi\n    /* \"#utility.yul\":4818:4827   */\n  dup5\n    /* \"#utility.yul\":4813:4816   */\n  dup10\n    /* \"#utility.yul\":4809:4828   */\n  add\n    /* \"#utility.yul\":4803:4829   */\n  mload\n    /* \"#utility.yul\":4861:4909   */\n  tag_86\n    /* \"#utility.yul\":4903:4907   */\n  0x1f\n    /* \"#utility.yul\":4895:4901   */\n  dup10\n    /* \"#utility.yul\":4891:4908   */\n  and\n    /* \"#utility.yul\":4880:4889   */\n  dup3\n    /* \"#utility.yul\":4861:4909   */\n  tag_23\n  jump\t// in\ntag_86:\n    /* \"#utility.yul\":4853:4859   */\n  dup4\n    /* \"#utility.yul\":4846:4910   */\n  sstore\n    /* \"#utility.yul\":4768:4924   */\n  pop\n    /* \"#utility.yul\":4745:4924   */\ntag_85:\n    /* \"#utility.yul\":4970:4971   */\n  0x01\n    /* \"#utility.yul\":4966:4967   */\n  0x02\n    /* \"#utility.yul\":4958:4964   */\n  dup9\n    /* \"#utility.yul\":4954:4968   */\n  mul\n    /* \"#utility.yul\":4950:4972   */\n  add\n    /* \"#utility.yul\":4944:4948   */\n  dup9\n    /* \"#utility.yul\":4937:4973   */\n  sstore\n    /* \"#utility.yul\":4372:4983   */\n  pop\n  pop\n  pop\n    /* \"#utility.yul\":4335:5222   */\ntag_77:\n  pop\n    /* \"#utility.yul\":3925:5228   */\n  pop\n  pop\n  pop\n    /* \"#utility.yul\":3833:5228   */\n  pop\n  pop\n  jump\t// out\n    /* \"contracts/Override.sol\":123:282  contract Override is SimpleStorage{... */\ntag_4:\n  dataSize(sub_0)\n  dup1\n  dataOffset(sub_0)\n  0x00\n  codecopy\n  0x00\n  return\nstop\n\nsub_0: assembly {\n        /* \"contracts/Override.sol\":123:282  contract Override is SimpleStorage{... */\n      mstore(0x40, 0x80)\n      callvalue\n      dup1\n      iszero\n      tag_1\n      jumpi\n      revert(0x00, 0x00)\n    tag_1:\n      pop\n      jumpi(tag_2, lt(calldatasize, 0x04))\n      shr(0xe0, calldataload(0x00))\n      dup1\n      0x06c62c2c\n      eq\n      tag_3\n      jumpi\n      dup1\n      0x2ebce631\n      eq\n      tag_4\n      jumpi\n      dup1\n      0x6057361d\n      eq\n      tag_5\n      jumpi\n      dup1\n      0x6f760f41\n      eq\n      tag_6\n      jumpi\n      dup1\n      0xacce3cce\n      eq\n      tag_7\n      jumpi\n      dup1\n      0xb05784b8\n      eq\n      tag_8\n      jumpi\n    tag_2:\n      revert(0x00, 0x00)\n        /* \"contracts/SimpleStorage.sol\":525:568  mapping(string => uint) public nameToFavNum */\n    tag_3:\n      tag_9\n      0x04\n      dup1\n      calldatasize\n      sub\n      dup2\n      add\n      swap1\n      tag_10\n      swap2\n      swap1\n      tag_11\n      jump\t// in\n    tag_10:\n      tag_12\n      jump\t// in\n    tag_9:\n      mload(0x40)\n      tag_13\n      swap2\n      swap1\n      tag_14\n      jump\t// in\n    tag_13:\n      mload(0x40)\n      dup1\n      swap2\n      sub\n      swap1\n      return\n        /* \"contracts/SimpleStorage.sol\":488:516  Person[] public listOfPeople */\n    tag_4:\n      tag_15\n      0x04\n      dup1\n      calldatasize\n      sub\n      dup2\n      add\n      swap1\n      tag_16\n      swap2\n      swap1\n      tag_17\n      jump\t// in\n    tag_16:\n      tag_18\n      jump\t// in\n    tag_15:\n      mload(0x40)\n      tag_19\n      swap3\n      swap2\n      swap1\n      tag_20\n      jump\t// in\n    tag_19:\n      mload(0x40)\n      dup1\n      swap2\n      sub\n      swap1\n      return\n        /* \"contracts/Override.sol\":166:277  function store(uint _favouriteNumber) public override {... */\n    tag_5:\n      tag_21\n      0x04\n      dup1\n      calldatasize\n      sub\n      dup2\n      add\n      swap1\n      tag_22\n      swap2\n      swap1\n      tag_17\n      jump\t// in\n    tag_22:\n      tag_23\n      jump\t// in\n    tag_21:\n      stop\n        /* \"contracts/SimpleStorage.sol\":914:1074  function addPerson(string memory _name, uint _favNum) public {... */\n    tag_6:\n      tag_24\n      0x04\n      dup1\n      calldatasize\n      sub\n      dup2\n      add\n      swap1\n      tag_25\n      swap2\n      swap1\n      tag_26\n      jump\t// in\n    tag_25:\n      tag_27\n      jump\t// in\n    tag_24:\n      stop\n        /* \"contracts/SimpleStorage.sol\":577:622  Person public mybrother = Person(21,\"Tushar\") */\n    tag_7:\n      tag_28\n      tag_29\n      jump\t// in\n    tag_28:\n      mload(0x40)\n      tag_30\n      swap3\n      swap2\n      swap1\n      tag_20\n      jump\t// in\n    tag_30:\n      mload(0x40)\n      dup1\n      swap2\n      sub\n      swap1\n      return\n        /* \"contracts/SimpleStorage.sol\":816:906  function retreive() public view returns (uint) {... */\n    tag_8:\n      tag_31\n      tag_32\n      jump\t// in\n    tag_31:\n      mload(0x40)\n      tag_33\n      swap2\n      swap1\n      tag_14\n      jump\t// in\n    tag_33:\n      mload(0x40)\n      dup1\n      swap2\n      sub\n      swap1\n      return\n        /* \"contracts/SimpleStorage.sol\":525:568  mapping(string => uint) public nameToFavNum */\n    tag_12:\n      0x02\n      dup2\n      dup1\n      mload\n      0x20\n      dup2\n      add\n      dup3\n      add\n      dup1\n      mload\n      dup5\n      dup3\n      mstore\n      0x20\n      dup4\n      add\n      0x20\n      dup6\n      add\n      keccak256\n      dup2\n      dup4\n      mstore\n      dup1\n      swap6\n      pop\n      pop\n      pop\n      pop\n      pop\n      pop\n      0x00\n      swap2\n      pop\n      swap1\n      pop\n      sload\n      dup2\n      jump\t// out\n        /* \"contracts/SimpleStorage.sol\":488:516  Person[] public listOfPeople */\n    tag_18:\n      0x01\n      dup2\n      dup2\n      sload\n      dup2\n      lt\n      tag_34\n      jumpi\n      0x00\n      dup1\n      revert\n    tag_34:\n      swap1\n      0x00\n      mstore\n      keccak256(0x00, 0x20)\n      swap1\n      0x02\n      mul\n      add\n      0x00\n      swap2\n      pop\n      swap1\n      pop\n      dup1\n      0x00\n      add\n      sload\n      swap1\n      dup1\n      0x01\n      add\n      dup1\n      sload\n      tag_36\n      swap1\n      tag_37\n      jump\t// in\n    tag_36:\n      dup1\n      0x1f\n      add\n      0x20\n      dup1\n      swap2\n      div\n      mul\n      0x20\n      add\n      mload(0x40)\n      swap1\n      dup2\n      add\n      0x40\n      mstore\n      dup1\n      swap3\n      swap2\n      swap1\n      dup2\n      dup2\n      mstore\n      0x20\n      add\n      dup3\n      dup1\n      sload\n      tag_38\n      swap1\n      tag_37\n      jump\t// in\n    tag_38:\n      dup1\n      iszero\n      tag_39\n      jumpi\n      dup1\n      0x1f\n      lt\n      tag_40\n      jumpi\n      0x0100\n      dup1\n      dup4\n      sload\n      div\n      mul\n      dup4\n      mstore\n      swap2\n      0x20\n      add\n      swap2\n      jump(tag_39)\n    tag_40:\n      dup3\n      add\n      swap2\n      swap1\n      0x00\n      mstore\n      keccak256(0x00, 0x20)\n      swap1\n    tag_41:\n      dup2\n      sload\n      dup2\n      mstore\n      swap1\n      0x01\n      add\n      swap1\n      0x20\n      add\n      dup1\n      dup4\n      gt\n      tag_41\n      jumpi\n      dup3\n      swap1\n      sub\n      0x1f\n      and\n      dup3\n      add\n      swap2\n    tag_39:\n      pop\n      pop\n      pop\n      pop\n      pop\n      swap1\n      pop\n      dup3\n      jump\t// out\n        /* \"contracts/Override.sol\":166:277  function store(uint _favouriteNumber) public override {... */\n    tag_23:\n        /* \"contracts/Override.sol\":268:269  5 */\n      0x05\n        /* \"contracts/Override.sol\":251:267  _favouriteNumber */\n      dup2\n        /* \"contracts/Override.sol\":251:269  _favouriteNumber+5 */\n      tag_43\n      swap2\n      swap1\n      tag_44\n      jump\t// in\n    tag_43:\n        /* \"contracts/Override.sol\":231:248  myFavouriteNumber */\n      0x00\n        /* \"contracts/Override.sol\":231:269  myFavouriteNumber = _favouriteNumber+5 */\n      dup2\n      swap1\n      sstore\n      pop\n        /* \"contracts/Override.sol\":166:277  function store(uint _favouriteNumber) public override {... */\n      pop\n      jump\t// out\n        /* \"contracts/SimpleStorage.sol\":914:1074  function addPerson(string memory _name, uint _favNum) public {... */\n    tag_27:\n        /* \"contracts/SimpleStorage.sol\":986:998  listOfPeople */\n      0x01\n        /* \"contracts/SimpleStorage.sol\":1004:1025  Person(_favNum,_name) */\n      mload(0x40)\n      dup1\n      0x40\n      add\n      0x40\n      mstore\n      dup1\n        /* \"contracts/SimpleStorage.sol\":1011:1018  _favNum */\n      dup4\n        /* \"contracts/SimpleStorage.sol\":1004:1025  Person(_favNum,_name) */\n      dup2\n      mstore\n      0x20\n      add\n        /* \"contracts/SimpleStorage.sol\":1019:1024  _name */\n      dup5\n        /* \"contracts/SimpleStorage.sol\":1004:1025  Person(_favNum,_name) */\n      dup2\n      mstore\n      pop\n        /* \"contracts/SimpleStorage.sol\":986:1026  listOfPeople.push(Person(_favNum,_name)) */\n      swap1\n      dup1\n      0x01\n      dup2\n      sload\n      add\n      dup1\n      dup3\n      sstore\n      dup1\n      swap2\n      pop\n      pop\n      0x01\n      swap1\n      sub\n      swap1\n      0x00\n      mstore\n      keccak256(0x00, 0x20)\n      swap1\n      0x02\n      mul\n      add\n      0x00\n      swap1\n      swap2\n      swap1\n      swap2\n      swap1\n      swap2\n      pop\n      0x00\n      dup3\n      add\n      mload\n      dup2\n      0x00\n      add\n      sstore\n      0x20\n      dup3\n      add\n      mload\n      dup2\n      0x01\n      add\n      swap1\n      dup2\n      tag_47\n      swap2\n      swap1\n      tag_48\n      jump\t// in\n    tag_47:\n      pop\n      pop\n      pop\n        /* \"contracts/SimpleStorage.sol\":1059:1066  _favNum */\n      dup1\n        /* \"contracts/SimpleStorage.sol\":1037:1049  nameToFavNum */\n      0x02\n        /* \"contracts/SimpleStorage.sol\":1050:1055  _name */\n      dup4\n        /* \"contracts/SimpleStorage.sol\":1037:1056  nameToFavNum[_name] */\n      mload(0x40)\n      tag_49\n      swap2\n      swap1\n      tag_50\n      jump\t// in\n    tag_49:\n      swap1\n      dup2\n      mstore\n      0x20\n      add\n      mload(0x40)\n      dup1\n      swap2\n      sub\n      swap1\n      keccak256\n        /* \"contracts/SimpleStorage.sol\":1037:1066  nameToFavNum[_name] = _favNum */\n      dup2\n      swap1\n      sstore\n      pop\n        /* \"contracts/SimpleStorage.sol\":914:1074  function addPerson(string memory _name, uint _favNum) public {... */\n      pop\n      pop\n      jump\t// out\n        /* \"contracts/SimpleStorage.sol\":577:622  Person public mybrother = Person(21,\"Tushar\") */\n    tag_29:\n      0x03\n      dup1\n      0x00\n      add\n      sload\n      swap1\n      dup1\n      0x01\n      add\n      dup1\n      sload\n      tag_51\n      swap1\n      tag_37\n      jump\t// in\n    tag_51:\n      dup1\n      0x1f\n      add\n      0x20\n      dup1\n      swap2\n      div\n      mul\n      0x20\n      add\n      mload(0x40)\n      swap1\n      dup2\n      add\n      0x40\n      mstore\n      dup1\n      swap3\n      swap2\n      swap1\n      dup2\n      dup2\n      mstore\n      0x20\n      add\n      dup3\n      dup1\n      sload\n      tag_52\n      swap1\n      tag_37\n      jump\t// in\n    tag_52:\n      dup1\n      iszero\n      tag_53\n      jumpi\n      dup1\n      0x1f\n      lt\n      tag_54\n      jumpi\n      0x0100\n      dup1\n      dup4\n      sload\n      div\n      mul\n      dup4\n      mstore\n      swap2\n      0x20\n      add\n      swap2\n      jump(tag_53)\n    tag_54:\n      dup3\n      add\n      swap2\n      swap1\n      0x00\n      mstore\n      keccak256(0x00, 0x20)\n      swap1\n    tag_55:\n      dup2\n      sload\n      dup2\n      mstore\n      swap1\n      0x01\n      add\n      swap1\n      0x20\n      add\n      dup1\n      dup4\n      gt\n      tag_55\n      jumpi\n      dup3\n      swap1\n      sub\n      0x1f\n      and\n      dup3\n      add\n      swap2\n    tag_53:\n      pop\n      pop\n      pop\n      pop\n      pop\n      swap1\n      pop\n      dup3\n      jump\t// out\n        /* \"contracts/SimpleStorage.sol\":816:906  function retreive() public view returns (uint) {... */\n    tag_32:\n        /* \"contracts/SimpleStorage.sol\":857:861  uint */\n      0x00\n        /* \"contracts/SimpleStorage.sol\":881:898  myFavouriteNumber */\n      sload(0x00)\n        /* \"contracts/SimpleStorage.sol\":874:898  return myFavouriteNumber */\n      swap1\n      pop\n        /* \"contracts/SimpleStorage.sol\":816:906  function retreive() public view returns (uint) {... */\n      swap1\n      jump\t// out\n        /* \"#utility.yul\":7:82   */\n    tag_57:\n        /* \"#utility.yul\":40:46   */\n      0x00\n        /* \"#utility.yul\":73:75   */\n      0x40\n        /* \"#utility.yul\":67:76   */\n      mload\n        /* \"#utility.yul\":57:76   */\n      swap1\n      pop\n        /* \"#utility.yul\":7:82   */\n      swap1\n      jump\t// out\n        /* \"#utility.yul\":88:205   */\n    tag_58:\n        /* \"#utility.yul\":197:198   */\n      0x00\n        /* \"#utility.yul\":194:195   */\n      0x00\n        /* \"#utility.yul\":187:199   */\n      revert\n        /* \"#utility.yul\":211:328   */\n    tag_59:\n        /* \"#utility.yul\":320:321   */\n      0x00\n        /* \"#utility.yul\":317:318   */\n      0x00\n        /* \"#utility.yul\":310:322   */\n      revert\n        /* \"#utility.yul\":334:451   */\n    tag_60:\n        /* \"#utility.yul\":443:444   */\n      0x00\n        /* \"#utility.yul\":440:441   */\n      0x00\n        /* \"#utility.yul\":433:445   */\n      revert\n        /* \"#utility.yul\":457:574   */\n    tag_61:\n        /* \"#utility.yul\":566:567   */\n      0x00\n        /* \"#utility.yul\":563:564   */\n      0x00\n        /* \"#utility.yul\":556:568   */\n      revert\n        /* \"#utility.yul\":580:682   */\n    tag_62:\n        /* \"#utility.yul\":621:627   */\n      0x00\n        /* \"#utility.yul\":672:674   */\n      0x1f\n        /* \"#utility.yul\":668:675   */\n      not\n        /* \"#utility.yul\":663:665   */\n      0x1f\n        /* \"#utility.yul\":656:661   */\n      dup4\n        /* \"#utility.yul\":652:666   */\n      add\n        /* \"#utility.yul\":648:676   */\n      and\n        /* \"#utility.yul\":638:676   */\n      swap1\n      pop\n        /* \"#utility.yul\":580:682   */\n      swap2\n      swap1\n      pop\n      jump\t// out\n        /* \"#utility.yul\":688:868   */\n    tag_63:\n        /* \"#utility.yul\":736:813   */\n      0x4e487b7100000000000000000000000000000000000000000000000000000000\n        /* \"#utility.yul\":733:734   */\n      0x00\n        /* \"#utility.yul\":726:814   */\n      mstore\n        /* \"#utility.yul\":833:837   */\n      0x41\n        /* \"#utility.yul\":830:831   */\n      0x04\n        /* \"#utility.yul\":823:838   */\n      mstore\n        /* \"#utility.yul\":857:861   */\n      0x24\n        /* \"#utility.yul\":854:855   */\n      0x00\n        /* \"#utility.yul\":847:862   */\n      revert\n        /* \"#utility.yul\":874:1155   */\n    tag_64:\n        /* \"#utility.yul\":957:984   */\n      tag_106\n        /* \"#utility.yul\":979:983   */\n      dup3\n        /* \"#utility.yul\":957:984   */\n      tag_62\n      jump\t// in\n    tag_106:\n        /* \"#utility.yul\":949:955   */\n      dup2\n        /* \"#utility.yul\":945:985   */\n      add\n        /* \"#utility.yul\":1087:1093   */\n      dup2\n        /* \"#utility.yul\":1075:1085   */\n      dup2\n        /* \"#utility.yul\":1072:1094   */\n      lt\n        /* \"#utility.yul\":1051:1069   */\n      0xffffffffffffffff\n        /* \"#utility.yul\":1039:1049   */\n      dup3\n        /* \"#utility.yul\":1036:1070   */\n      gt\n        /* \"#utility.yul\":1033:1095   */\n      or\n        /* \"#utility.yul\":1030:1118   */\n      iszero\n      tag_107\n      jumpi\n        /* \"#utility.yul\":1098:1116   */\n      tag_108\n      tag_63\n      jump\t// in\n    tag_108:\n        /* \"#utility.yul\":1030:1118   */\n    tag_107:\n        /* \"#utility.yul\":1138:1148   */\n      dup1\n        /* \"#utility.yul\":1134:1136   */\n      0x40\n        /* \"#utility.yul\":1127:1149   */\n      mstore\n        /* \"#utility.yul\":917:1155   */\n      pop\n        /* \"#utility.yul\":874:1155   */\n      pop\n      pop\n      jump\t// out\n        /* \"#utility.yul\":1161:1290   */\n    tag_65:\n        /* \"#utility.yul\":1195:1201   */\n      0x00\n        /* \"#utility.yul\":1222:1242   */\n      tag_110\n      tag_57\n      jump\t// in\n    tag_110:\n        /* \"#utility.yul\":1212:1242   */\n      swap1\n      pop\n        /* \"#utility.yul\":1251:1284   */\n      tag_111\n        /* \"#utility.yul\":1279:1283   */\n      dup3\n        /* \"#utility.yul\":1271:1277   */\n      dup3\n        /* \"#utility.yul\":1251:1284   */\n      tag_64\n      jump\t// in\n    tag_111:\n        /* \"#utility.yul\":1161:1290   */\n      swap2\n      swap1\n      pop\n      jump\t// out\n        /* \"#utility.yul\":1296:1604   */\n    tag_66:\n        /* \"#utility.yul\":1358:1362   */\n      0x00\n        /* \"#utility.yul\":1448:1466   */\n      0xffffffffffffffff\n        /* \"#utility.yul\":1440:1446   */\n      dup3\n        /* \"#utility.yul\":1437:1467   */\n      gt\n        /* \"#utility.yul\":1434:1490   */\n      iszero\n      tag_113\n      jumpi\n        /* \"#utility.yul\":1470:1488   */\n      tag_114\n      tag_63\n      jump\t// in\n    tag_114:\n        /* \"#utility.yul\":1434:1490   */\n    tag_113:\n        /* \"#utility.yul\":1508:1537   */\n      tag_115\n        /* \"#utility.yul\":1530:1536   */\n      dup3\n        /* \"#utility.yul\":1508:1537   */\n      tag_62\n      jump\t// in\n    tag_115:\n        /* \"#utility.yul\":1500:1537   */\n      swap1\n      pop\n        /* \"#utility.yul\":1592:1596   */\n      0x20\n        /* \"#utility.yul\":1586:1590   */\n      dup2\n        /* \"#utility.yul\":1582:1597   */\n      add\n        /* \"#utility.yul\":1574:1597   */\n      swap1\n      pop\n        /* \"#utility.yul\":1296:1604   */\n      swap2\n      swap1\n      pop\n      jump\t// out\n        /* \"#utility.yul\":1610:1758   */\n    tag_67:\n        /* \"#utility.yul\":1708:1714   */\n      dup3\n        /* \"#utility.yul\":1703:1706   */\n      dup2\n        /* \"#utility.yul\":1698:1701   */\n      dup4\n        /* \"#utility.yul\":1685:1715   */\n      calldatacopy\n        /* \"#utility.yul\":1749:1750   */\n      0x00\n        /* \"#utility.yul\":1740:1746   */\n      dup4\n        /* \"#utility.yul\":1735:1738   */\n      dup4\n        /* \"#utility.yul\":1731:1747   */\n      add\n        /* \"#utility.yul\":1724:1751   */\n      mstore\n        /* \"#utility.yul\":1610:1758   */\n      pop\n      pop\n      pop\n      jump\t// out\n        /* \"#utility.yul\":1764:2189   */\n    tag_68:\n        /* \"#utility.yul\":1842:1847   */\n      0x00\n        /* \"#utility.yul\":1867:1933   */\n      tag_118\n        /* \"#utility.yul\":1883:1932   */\n      tag_119\n        /* \"#utility.yul\":1925:1931   */\n      dup5\n        /* \"#utility.yul\":1883:1932   */\n      tag_66\n      jump\t// in\n    tag_119:\n        /* \"#utility.yul\":1867:1933   */\n      tag_65\n      jump\t// in\n    tag_118:\n        /* \"#utility.yul\":1858:1933   */\n      swap1\n      pop\n        /* \"#utility.yul\":1956:1962   */\n      dup3\n        /* \"#utility.yul\":1949:1954   */\n      dup2\n        /* \"#utility.yul\":1942:1963   */\n      mstore\n        /* \"#utility.yul\":1994:1998   */\n      0x20\n        /* \"#utility.yul\":1987:1992   */\n      dup2\n        /* \"#utility.yul\":1983:1999   */\n      add\n        /* \"#utility.yul\":2032:2035   */\n      dup5\n        /* \"#utility.yul\":2023:2029   */\n      dup5\n        /* \"#utility.yul\":2018:2021   */\n      dup5\n        /* \"#utility.yul\":2014:2030   */\n      add\n        /* \"#utility.yul\":2011:2036   */\n      gt\n        /* \"#utility.yul\":2008:2120   */\n      iszero\n      tag_120\n      jumpi\n        /* \"#utility.yul\":2039:2118   */\n      tag_121\n      tag_61\n      jump\t// in\n    tag_121:\n        /* \"#utility.yul\":2008:2120   */\n    tag_120:\n        /* \"#utility.yul\":2129:2183   */\n      tag_122\n        /* \"#utility.yul\":2176:2182   */\n      dup5\n        /* \"#utility.yul\":2171:2174   */\n      dup3\n        /* \"#utility.yul\":2166:2169   */\n      dup6\n        /* \"#utility.yul\":2129:2183   */\n      tag_67\n      jump\t// in\n    tag_122:\n        /* \"#utility.yul\":1848:2189   */\n      pop\n        /* \"#utility.yul\":1764:2189   */\n      swap4\n      swap3\n      pop\n      pop\n      pop\n      jump\t// out\n        /* \"#utility.yul\":2209:2549   */\n    tag_69:\n        /* \"#utility.yul\":2265:2270   */\n      0x00\n        /* \"#utility.yul\":2314:2317   */\n      dup3\n        /* \"#utility.yul\":2307:2311   */\n      0x1f\n        /* \"#utility.yul\":2299:2305   */\n      dup4\n        /* \"#utility.yul\":2295:2312   */\n      add\n        /* \"#utility.yul\":2291:2318   */\n      slt\n        /* \"#utility.yul\":2281:2403   */\n      tag_124\n      jumpi\n        /* \"#utility.yul\":2322:2401   */\n      tag_125\n      tag_60\n      jump\t// in\n    tag_125:\n        /* \"#utility.yul\":2281:2403   */\n    tag_124:\n        /* \"#utility.yul\":2439:2445   */\n      dup2\n        /* \"#utility.yul\":2426:2446   */\n      calldataload\n        /* \"#utility.yul\":2464:2543   */\n      tag_126\n        /* \"#utility.yul\":2539:2542   */\n      dup5\n        /* \"#utility.yul\":2531:2537   */\n      dup3\n        /* \"#utility.yul\":2524:2528   */\n      0x20\n        /* \"#utility.yul\":2516:2522   */\n      dup7\n        /* \"#utility.yul\":2512:2529   */\n      add\n        /* \"#utility.yul\":2464:2543   */\n      tag_68\n      jump\t// in\n    tag_126:\n        /* \"#utility.yul\":2455:2543   */\n      swap2\n      pop\n        /* \"#utility.yul\":2271:2549   */\n      pop\n        /* \"#utility.yul\":2209:2549   */\n      swap3\n      swap2\n      pop\n      pop\n      jump\t// out\n        /* \"#utility.yul\":2555:3064   */\n    tag_11:\n        /* \"#utility.yul\":2624:2630   */\n      0x00\n        /* \"#utility.yul\":2673:2675   */\n      0x20\n        /* \"#utility.yul\":2661:2670   */\n      dup3\n        /* \"#utility.yul\":2652:2659   */\n      dup5\n        /* \"#utility.yul\":2648:2671   */\n      sub\n        /* \"#utility.yul\":2644:2676   */\n      slt\n        /* \"#utility.yul\":2641:2760   */\n      iszero\n      tag_128\n      jumpi\n        /* \"#utility.yul\":2679:2758   */\n      tag_129\n      tag_58\n      jump\t// in\n    tag_129:\n        /* \"#utility.yul\":2641:2760   */\n    tag_128:\n        /* \"#utility.yul\":2827:2828   */\n      0x00\n        /* \"#utility.yul\":2816:2825   */\n      dup3\n        /* \"#utility.yul\":2812:2829   */\n      add\n        /* \"#utility.yul\":2799:2830   */\n      calldataload\n        /* \"#utility.yul\":2857:2875   */\n      0xffffffffffffffff\n        /* \"#utility.yul\":2849:2855   */\n      dup2\n        /* \"#utility.yul\":2846:2876   */\n      gt\n        /* \"#utility.yul\":2843:2960   */\n      iszero\n      tag_130\n      jumpi\n        /* \"#utility.yul\":2879:2958   */\n      tag_131\n      tag_59\n      jump\t// in\n    tag_131:\n        /* \"#utility.yul\":2843:2960   */\n    tag_130:\n        /* \"#utility.yul\":2984:3047   */\n      tag_132\n        /* \"#utility.yul\":3039:3046   */\n      dup5\n        /* \"#utility.yul\":3030:3036   */\n      dup3\n        /* \"#utility.yul\":3019:3028   */\n      dup6\n        /* \"#utility.yul\":3015:3037   */\n      add\n        /* \"#utility.yul\":2984:3047   */\n      tag_69\n      jump\t// in\n    tag_132:\n        /* \"#utility.yul\":2974:3047   */\n      swap2\n      pop\n        /* \"#utility.yul\":2770:3057   */\n      pop\n        /* \"#utility.yul\":2555:3064   */\n      swap3\n      swap2\n      pop\n      pop\n      jump\t// out\n        /* \"#utility.yul\":3070:3147   */\n    tag_70:\n        /* \"#utility.yul\":3107:3114   */\n      0x00\n        /* \"#utility.yul\":3136:3141   */\n      dup2\n        /* \"#utility.yul\":3125:3141   */\n      swap1\n      pop\n        /* \"#utility.yul\":3070:3147   */\n      swap2\n      swap1\n      pop\n      jump\t// out\n        /* \"#utility.yul\":3153:3271   */\n    tag_71:\n        /* \"#utility.yul\":3240:3264   */\n      tag_135\n        /* \"#utility.yul\":3258:3263   */\n      dup2\n        /* \"#utility.yul\":3240:3264   */\n      tag_70\n      jump\t// in\n    tag_135:\n        /* \"#utility.yul\":3235:3238   */\n      dup3\n        /* \"#utility.yul\":3228:3265   */\n      mstore\n        /* \"#utility.yul\":3153:3271   */\n      pop\n      pop\n      jump\t// out\n        /* \"#utility.yul\":3277:3499   */\n    tag_14:\n        /* \"#utility.yul\":3370:3374   */\n      0x00\n        /* \"#utility.yul\":3408:3410   */\n      0x20\n        /* \"#utility.yul\":3397:3406   */\n      dup3\n        /* \"#utility.yul\":3393:3411   */\n      add\n        /* \"#utility.yul\":3385:3411   */\n      swap1\n      pop\n        /* \"#utility.yul\":3421:3492   */\n      tag_137\n        /* \"#utility.yul\":3489:3490   */\n      0x00\n        /* \"#utility.yul\":3478:3487   */\n      dup4\n        /* \"#utility.yul\":3474:3491   */\n      add\n        /* \"#utility.yul\":3465:3471   */\n      dup5\n        /* \"#utility.yul\":3421:3492   */\n      tag_71\n      jump\t// in\n    tag_137:\n        /* \"#utility.yul\":3277:3499   */\n      swap3\n      swap2\n      pop\n      pop\n      jump\t// out\n        /* \"#utility.yul\":3505:3627   */\n    tag_72:\n        /* \"#utility.yul\":3578:3602   */\n      tag_139\n        /* \"#utility.yul\":3596:3601   */\n      dup2\n        /* \"#utility.yul\":3578:3602   */\n      tag_70\n      jump\t// in\n    tag_139:\n        /* \"#utility.yul\":3571:3576   */\n      dup2\n        /* \"#utility.yul\":3568:3603   */\n      eq\n        /* \"#utility.yul\":3558:3621   */\n      tag_140\n      jumpi\n        /* \"#utility.yul\":3617:3618   */\n      0x00\n        /* \"#utility.yul\":3614:3615   */\n      0x00\n        /* \"#utility.yul\":3607:3619   */\n      revert\n        /* \"#utility.yul\":3558:3621   */\n    tag_140:\n        /* \"#utility.yul\":3505:3627   */\n      pop\n      jump\t// out\n        /* \"#utility.yul\":3633:3772   */\n    tag_73:\n        /* \"#utility.yul\":3679:3684   */\n      0x00\n        /* \"#utility.yul\":3717:3723   */\n      dup2\n        /* \"#utility.yul\":3704:3724   */\n      calldataload\n        /* \"#utility.yul\":3695:3724   */\n      swap1\n      pop\n        /* \"#utility.yul\":3733:3766   */\n      tag_142\n        /* \"#utility.yul\":3760:3765   */\n      dup2\n        /* \"#utility.yul\":3733:3766   */\n      tag_72\n      jump\t// in\n    tag_142:\n        /* \"#utility.yul\":3633:3772   */\n      swap3\n      swap2\n      pop\n      pop\n      jump\t// out\n        /* \"#utility.yul\":3778:4107   */\n    tag_17:\n        /* \"#utility.yul\":3837:3843   */\n      0x00\n        /* \"#utility.yul\":3886:3888   */\n      0x20\n        /* \"#utility.yul\":3874:3883   */\n      dup3\n        /* \"#utility.yul\":3865:3872   */\n      dup5\n        /* \"#utility.yul\":3861:3884   */\n      sub\n        /* \"#utility.yul\":3857:3889   */\n      slt\n        /* \"#utility.yul\":3854:3973   */\n      iszero\n      tag_144\n      jumpi\n        /* \"#utility.yul\":3892:3971   */\n      tag_145\n      tag_58\n      jump\t// in\n    tag_145:\n        /* \"#utility.yul\":3854:3973   */\n    tag_144:\n        /* \"#utility.yul\":4012:4013   */\n      0x00\n        /* \"#utility.yul\":4037:4090   */\n      tag_146\n        /* \"#utility.yul\":4082:4089   */\n      dup5\n        /* \"#utility.yul\":4073:4079   */\n      dup3\n        /* \"#utility.yul\":4062:4071   */\n      dup6\n        /* \"#utility.yul\":4058:4080   */\n      add\n        /* \"#utility.yul\":4037:4090   */\n      tag_73\n      jump\t// in\n    tag_146:\n        /* \"#utility.yul\":4027:4090   */\n      swap2\n      pop\n        /* \"#utility.yul\":3983:4100   */\n      pop\n        /* \"#utility.yul\":3778:4107   */\n      swap3\n      swap2\n      pop\n      pop\n      jump\t// out\n        /* \"#utility.yul\":4113:4212   */\n    tag_74:\n        /* \"#utility.yul\":4165:4171   */\n      0x00\n        /* \"#utility.yul\":4199:4204   */\n      dup2\n        /* \"#utility.yul\":4193:4205   */\n      mload\n        /* \"#utility.yul\":4183:4205   */\n      swap1\n      pop\n        /* \"#utility.yul\":4113:4212   */\n      swap2\n      swap1\n      pop\n      jump\t// out\n        /* \"#utility.yul\":4218:4387   */\n    tag_75:\n        /* \"#utility.yul\":4302:4313   */\n      0x00\n        /* \"#utility.yul\":4336:4342   */\n      dup3\n        /* \"#utility.yul\":4331:4334   */\n      dup3\n        /* \"#utility.yul\":4324:4343   */\n      mstore\n        /* \"#utility.yul\":4376:4380   */\n      0x20\n        /* \"#utility.yul\":4371:4374   */\n      dup3\n        /* \"#utility.yul\":4367:4381   */\n      add\n        /* \"#utility.yul\":4352:4381   */\n      swap1\n      pop\n        /* \"#utility.yul\":4218:4387   */\n      swap3\n      swap2\n      pop\n      pop\n      jump\t// out\n        /* \"#utility.yul\":4393:4532   */\n    tag_76:\n        /* \"#utility.yul\":4482:4488   */\n      dup3\n        /* \"#utility.yul\":4477:4480   */\n      dup2\n        /* \"#utility.yul\":4472:4475   */\n      dup4\n        /* \"#utility.yul\":4466:4489   */\n      mcopy\n        /* \"#utility.yul\":4523:4524   */\n      0x00\n        /* \"#utility.yul\":4514:4520   */\n      dup4\n        /* \"#utility.yul\":4509:4512   */\n      dup4\n        /* \"#utility.yul\":4505:4521   */\n      add\n        /* \"#utility.yul\":4498:4525   */\n      mstore\n        /* \"#utility.yul\":4393:4532   */\n      pop\n      pop\n      pop\n      jump\t// out\n        /* \"#utility.yul\":4538:4915   */\n    tag_77:\n        /* \"#utility.yul\":4626:4629   */\n      0x00\n        /* \"#utility.yul\":4654:4693   */\n      tag_151\n        /* \"#utility.yul\":4687:4692   */\n      dup3\n        /* \"#utility.yul\":4654:4693   */\n      tag_74\n      jump\t// in\n    tag_151:\n        /* \"#utility.yul\":4709:4780   */\n      tag_152\n        /* \"#utility.yul\":4773:4779   */\n      dup2\n        /* \"#utility.yul\":4768:4771   */\n      dup6\n        /* \"#utility.yul\":4709:4780   */\n      tag_75\n      jump\t// in\n    tag_152:\n        /* \"#utility.yul\":4702:4780   */\n      swap4\n      pop\n        /* \"#utility.yul\":4789:4854   */\n      tag_153\n        /* \"#utility.yul\":4847:4853   */\n      dup2\n        /* \"#utility.yul\":4842:4845   */\n      dup6\n        /* \"#utility.yul\":4835:4839   */\n      0x20\n        /* \"#utility.yul\":4828:4833   */\n      dup7\n        /* \"#utility.yul\":4824:4840   */\n      add\n        /* \"#utility.yul\":4789:4854   */\n      tag_76\n      jump\t// in\n    tag_153:\n        /* \"#utility.yul\":4879:4908   */\n      tag_154\n        /* \"#utility.yul\":4901:4907   */\n      dup2\n        /* \"#utility.yul\":4879:4908   */\n      tag_62\n      jump\t// in\n    tag_154:\n        /* \"#utility.yul\":4874:4877   */\n      dup5\n        /* \"#utility.yul\":4870:4909   */\n      add\n        /* \"#utility.yul\":4863:4909   */\n      swap2\n      pop\n        /* \"#utility.yul\":4630:4915   */\n      pop\n        /* \"#utility.yul\":4538:4915   */\n      swap3\n      swap2\n      pop\n      pop\n      jump\t// out\n        /* \"#utility.yul\":4921:5344   */\n    tag_20:\n        /* \"#utility.yul\":5062:5066   */\n      0x00\n        /* \"#utility.yul\":5100:5102   */\n      0x40\n        /* \"#utility.yul\":5089:5098   */\n      dup3\n        /* \"#utility.yul\":5085:5103   */\n      add\n        /* \"#utility.yul\":5077:5103   */\n      swap1\n      pop\n        /* \"#utility.yul\":5113:5184   */\n      tag_156\n        /* \"#utility.yul\":5181:5182   */\n      0x00\n        /* \"#utility.yul\":5170:5179   */\n      dup4\n        /* \"#utility.yul\":5166:5183   */\n      add\n        /* \"#utility.yul\":5157:5163   */\n      dup6\n        /* \"#utility.yul\":5113:5184   */\n      tag_71\n      jump\t// in\n    tag_156:\n        /* \"#utility.yul\":5231:5240   */\n      dup2\n        /* \"#utility.yul\":5225:5229   */\n      dup2\n        /* \"#utility.yul\":5221:5241   */\n      sub\n        /* \"#utility.yul\":5216:5218   */\n      0x20\n        /* \"#utility.yul\":5205:5214   */\n      dup4\n        /* \"#utility.yul\":5201:5219   */\n      add\n        /* \"#utility.yul\":5194:5242   */\n      mstore\n        /* \"#utility.yul\":5259:5337   */\n      tag_157\n        /* \"#utility.yul\":5332:5336   */\n      dup2\n        /* \"#utility.yul\":5323:5329   */\n      dup5\n        /* \"#utility.yul\":5259:5337   */\n      tag_77\n      jump\t// in\n    tag_157:\n        /* \"#utility.yul\":5251:5337   */\n      swap1\n      pop\n        /* \"#utility.yul\":4921:5344   */\n      swap4\n      swap3\n      pop\n      pop\n      pop\n      jump\t// out\n        /* \"#utility.yul\":5350:6004   */\n    tag_26:\n        /* \"#utility.yul\":5428:5434   */\n      0x00\n        /* \"#utility.yul\":5436:5442   */\n      0x00\n        /* \"#utility.yul\":5485:5487   */\n      0x40\n        /* \"#utility.yul\":5473:5482   */\n      dup4\n        /* \"#utility.yul\":5464:5471   */\n      dup6\n        /* \"#utility.yul\":5460:5483   */\n      sub\n        /* \"#utility.yul\":5456:5488   */\n      slt\n        /* \"#utility.yul\":5453:5572   */\n      iszero\n      tag_159\n      jumpi\n        /* \"#utility.yul\":5491:5570   */\n      tag_160\n      tag_58\n      jump\t// in\n    tag_160:\n        /* \"#utility.yul\":5453:5572   */\n    tag_159:\n        /* \"#utility.yul\":5639:5640   */\n      0x00\n        /* \"#utility.yul\":5628:5637   */\n      dup4\n        /* \"#utility.yul\":5624:5641   */\n      add\n        /* \"#utility.yul\":5611:5642   */\n      calldataload\n        /* \"#utility.yul\":5669:5687   */\n      0xffffffffffffffff\n        /* \"#utility.yul\":5661:5667   */\n      dup2\n        /* \"#utility.yul\":5658:5688   */\n      gt\n        /* \"#utility.yul\":5655:5772   */\n      iszero\n      tag_161\n      jumpi\n        /* \"#utility.yul\":5691:5770   */\n      tag_162\n      tag_59\n      jump\t// in\n    tag_162:\n        /* \"#utility.yul\":5655:5772   */\n    tag_161:\n        /* \"#utility.yul\":5796:5859   */\n      tag_163\n        /* \"#utility.yul\":5851:5858   */\n      dup6\n        /* \"#utility.yul\":5842:5848   */\n      dup3\n        /* \"#utility.yul\":5831:5840   */\n      dup7\n        /* \"#utility.yul\":5827:5849   */\n      add\n        /* \"#utility.yul\":5796:5859   */\n      tag_69\n      jump\t// in\n    tag_163:\n        /* \"#utility.yul\":5786:5859   */\n      swap3\n      pop\n        /* \"#utility.yul\":5582:5869   */\n      pop\n        /* \"#utility.yul\":5908:5910   */\n      0x20\n        /* \"#utility.yul\":5934:5987   */\n      tag_164\n        /* \"#utility.yul\":5979:5986   */\n      dup6\n        /* \"#utility.yul\":5970:5976   */\n      dup3\n        /* \"#utility.yul\":5959:5968   */\n      dup7\n        /* \"#utility.yul\":5955:5977   */\n      add\n        /* \"#utility.yul\":5934:5987   */\n      tag_73\n      jump\t// in\n    tag_164:\n        /* \"#utility.yul\":5924:5987   */\n      swap2\n      pop\n        /* \"#utility.yul\":5879:5997   */\n      pop\n        /* \"#utility.yul\":5350:6004   */\n      swap3\n      pop\n      swap3\n      swap1\n      pop\n      jump\t// out\n        /* \"#utility.yul\":6010:6190   */\n    tag_78:\n        /* \"#utility.yul\":6058:6135   */\n      0x4e487b7100000000000000000000000000000000000000000000000000000000\n        /* \"#utility.yul\":6055:6056   */\n      0x00\n        /* \"#utility.yul\":6048:6136   */\n      mstore\n        /* \"#utility.yul\":6155:6159   */\n      0x22\n        /* \"#utility.yul\":6152:6153   */\n      0x04\n        /* \"#utility.yul\":6145:6160   */\n      mstore\n        /* \"#utility.yul\":6179:6183   */\n      0x24\n        /* \"#utility.yul\":6176:6177   */\n      0x00\n        /* \"#utility.yul\":6169:6184   */\n      revert\n        /* \"#utility.yul\":6196:6516   */\n    tag_37:\n        /* \"#utility.yul\":6240:6246   */\n      0x00\n        /* \"#utility.yul\":6277:6278   */\n      0x02\n        /* \"#utility.yul\":6271:6275   */\n      dup3\n        /* \"#utility.yul\":6267:6279   */\n      div\n        /* \"#utility.yul\":6257:6279   */\n      swap1\n      pop\n        /* \"#utility.yul\":6324:6325   */\n      0x01\n        /* \"#utility.yul\":6318:6322   */\n      dup3\n        /* \"#utility.yul\":6314:6326   */\n      and\n        /* \"#utility.yul\":6345:6363   */\n      dup1\n        /* \"#utility.yul\":6335:6416   */\n      tag_167\n      jumpi\n        /* \"#utility.yul\":6401:6405   */\n      0x7f\n        /* \"#utility.yul\":6393:6399   */\n      dup3\n        /* \"#utility.yul\":6389:6406   */\n      and\n        /* \"#utility.yul\":6379:6406   */\n      swap2\n      pop\n        /* \"#utility.yul\":6335:6416   */\n    tag_167:\n        /* \"#utility.yul\":6463:6465   */\n      0x20\n        /* \"#utility.yul\":6455:6461   */\n      dup3\n        /* \"#utility.yul\":6452:6466   */\n      lt\n        /* \"#utility.yul\":6432:6450   */\n      dup2\n        /* \"#utility.yul\":6429:6467   */\n      sub\n        /* \"#utility.yul\":6426:6510   */\n      tag_168\n      jumpi\n        /* \"#utility.yul\":6482:6500   */\n      tag_169\n      tag_78\n      jump\t// in\n    tag_169:\n        /* \"#utility.yul\":6426:6510   */\n    tag_168:\n        /* \"#utility.yul\":6247:6516   */\n      pop\n        /* \"#utility.yul\":6196:6516   */\n      swap2\n      swap1\n      pop\n      jump\t// out\n        /* \"#utility.yul\":6522:6702   */\n    tag_79:\n        /* \"#utility.yul\":6570:6647   */\n      0x4e487b7100000000000000000000000000000000000000000000000000000000\n        /* \"#utility.yul\":6567:6568   */\n      0x00\n        /* \"#utility.yul\":6560:6648   */\n      mstore\n        /* \"#utility.yul\":6667:6671   */\n      0x11\n        /* \"#utility.yul\":6664:6665   */\n      0x04\n        /* \"#utility.yul\":6657:6672   */\n      mstore\n        /* \"#utility.yul\":6691:6695   */\n      0x24\n        /* \"#utility.yul\":6688:6689   */\n      0x00\n        /* \"#utility.yul\":6681:6696   */\n      revert\n        /* \"#utility.yul\":6708:6899   */\n    tag_44:\n        /* \"#utility.yul\":6748:6751   */\n      0x00\n        /* \"#utility.yul\":6767:6787   */\n      tag_172\n        /* \"#utility.yul\":6785:6786   */\n      dup3\n        /* \"#utility.yul\":6767:6787   */\n      tag_70\n      jump\t// in\n    tag_172:\n        /* \"#utility.yul\":6762:6787   */\n      swap2\n      pop\n        /* \"#utility.yul\":6801:6821   */\n      tag_173\n        /* \"#utility.yul\":6819:6820   */\n      dup4\n        /* \"#utility.yul\":6801:6821   */\n      tag_70\n      jump\t// in\n    tag_173:\n        /* \"#utility.yul\":6796:6821   */\n      swap3\n      pop\n        /* \"#utility.yul\":6844:6845   */\n      dup3\n        /* \"#utility.yul\":6841:6842   */\n      dup3\n        /* \"#utility.yul\":6837:6846   */\n      add\n        /* \"#utility.yul\":6830:6846   */\n      swap1\n      pop\n        /* \"#utility.yul\":6865:6868   */\n      dup1\n        /* \"#utility.yul\":6862:6863   */\n      dup3\n        /* \"#utility.yul\":6859:6869   */\n      gt\n        /* \"#utility.yul\":6856:6892   */\n      iszero\n      tag_174\n      jumpi\n        /* \"#utility.yul\":6872:6890   */\n      tag_175\n      tag_79\n      jump\t// in\n    tag_175:\n        /* \"#utility.yul\":6856:6892   */\n    tag_174:\n        /* \"#utility.yul\":6708:6899   */\n      swap3\n      swap2\n      pop\n      pop\n      jump\t// out\n        /* \"#utility.yul\":6905:7046   */\n    tag_80:\n        /* \"#utility.yul\":6954:6958   */\n      0x00\n        /* \"#utility.yul\":6977:6980   */\n      dup2\n        /* \"#utility.yul\":6969:6980   */\n      swap1\n      pop\n        /* \"#utility.yul\":7000:7003   */\n      dup2\n        /* \"#utility.yul\":6997:6998   */\n      0x00\n        /* \"#utility.yul\":6990:7004   */\n      mstore\n        /* \"#utility.yul\":7034:7038   */\n      0x20\n        /* \"#utility.yul\":7031:7032   */\n      0x00\n        /* \"#utility.yul\":7021:7039   */\n      keccak256\n        /* \"#utility.yul\":7013:7039   */\n      swap1\n      pop\n        /* \"#utility.yul\":6905:7046   */\n      swap2\n      swap1\n      pop\n      jump\t// out\n        /* \"#utility.yul\":7052:7145   */\n    tag_81:\n        /* \"#utility.yul\":7089:7095   */\n      0x00\n        /* \"#utility.yul\":7136:7138   */\n      0x20\n        /* \"#utility.yul\":7131:7133   */\n      0x1f\n        /* \"#utility.yul\":7124:7129   */\n      dup4\n        /* \"#utility.yul\":7120:7134   */\n      add\n        /* \"#utility.yul\":7116:7139   */\n      div\n        /* \"#utility.yul\":7106:7139   */\n      swap1\n      pop\n        /* \"#utility.yul\":7052:7145   */\n      swap2\n      swap1\n      pop\n      jump\t// out\n        /* \"#utility.yul\":7151:7258   */\n    tag_82:\n        /* \"#utility.yul\":7195:7203   */\n      0x00\n        /* \"#utility.yul\":7245:7250   */\n      dup3\n        /* \"#utility.yul\":7239:7243   */\n      dup3\n        /* \"#utility.yul\":7235:7251   */\n      shl\n        /* \"#utility.yul\":7214:7251   */\n      swap1\n      pop\n        /* \"#utility.yul\":7151:7258   */\n      swap3\n      swap2\n      pop\n      pop\n      jump\t// out\n        /* \"#utility.yul\":7264:7657   */\n    tag_83:\n        /* \"#utility.yul\":7333:7339   */\n      0x00\n        /* \"#utility.yul\":7383:7384   */\n      0x08\n        /* \"#utility.yul\":7371:7381   */\n      dup4\n        /* \"#utility.yul\":7367:7385   */\n      mul\n        /* \"#utility.yul\":7406:7503   */\n      tag_180\n        /* \"#utility.yul\":7436:7502   */\n      0xffffffffffffffffffffffffffffffffffffffffffffffffffffffffffffffff\n        /* \"#utility.yul\":7425:7434   */\n      dup3\n        /* \"#utility.yul\":7406:7503   */\n      tag_82\n      jump\t// in\n    tag_180:\n        /* \"#utility.yul\":7524:7563   */\n      tag_181\n        /* \"#utility.yul\":7554:7562   */\n      dup7\n        /* \"#utility.yul\":7543:7552   */\n      dup4\n        /* \"#utility.yul\":7524:7563   */\n      tag_82\n      jump\t// in\n    tag_181:\n        /* \"#utility.yul\":7512:7563   */\n      swap6\n      pop\n        /* \"#utility.yul\":7596:7600   */\n      dup1\n        /* \"#utility.yul\":7592:7601   */\n      not\n        /* \"#utility.yul\":7585:7590   */\n      dup5\n        /* \"#utility.yul\":7581:7602   */\n      and\n        /* \"#utility.yul\":7572:7602   */\n      swap4\n      pop\n        /* \"#utility.yul\":7645:7649   */\n      dup1\n        /* \"#utility.yul\":7635:7643   */\n      dup7\n        /* \"#utility.yul\":7631:7650   */\n      and\n        /* \"#utility.yul\":7624:7629   */\n      dup5\n        /* \"#utility.yul\":7621:7651   */\n      or\n        /* \"#utility.yul\":7611:7651   */\n      swap3\n      pop\n        /* \"#utility.yul\":7340:7657   */\n      pop\n      pop\n        /* \"#utility.yul\":7264:7657   */\n      swap4\n      swap3\n      pop\n      pop\n      pop\n      jump\t// out\n        /* \"#utility.yul\":7663:7723   */\n    tag_84:\n        /* \"#utility.yul\":7691:7694   */\n      0x00\n        /* \"#utility.yul\":7712:7717   */\n      dup2\n        /* \"#utility.yul\":7705:7717   */\n      swap1\n      pop\n        /* \"#utility.yul\":7663:7723   */\n      swap2\n      swap1\n      pop\n      jump\t// out\n        /* \"#utility.yul\":7729:7871   */\n    tag_85:\n        /* \"#utility.yul\":7779:7788   */\n      0x00\n        /* \"#utility.yul\":7812:7865   */\n      tag_184\n        /* \"#utility.yul\":7830:7864   */\n      tag_185\n        /* \"#utility.yul\":7839:7863   */\n      tag_186\n        /* \"#utility.yul\":7857:7862   */\n      dup5\n        /* \"#utility.yul\":7839:7863   */\n      tag_70\n      jump\t// in\n    tag_186:\n        /* \"#utility.yul\":7830:7864   */\n      tag_84\n      jump\t// in\n    tag_185:\n        /* \"#utility.yul\":7812:7865   */\n      tag_70\n      jump\t// in\n    tag_184:\n        /* \"#utility.yul\":7799:7865   */\n      swap1\n      pop\n        /* \"#utility.yul\":7729:7871   */\n      swap2\n      swap1\n      pop\n      jump\t// out\n        /* \"#utility.yul\":7877:7952   */\n    tag_86:\n        /* \"#utility.yul\":7920:7923   */\n      0x00\n        /* \"#utility.yul\":7941:7946   */\n      dup2\n        /* \"#utility.yul\":7934:7946   */\n      swap1\n      pop\n        /* \"#utility.yul\":7877:7952   */\n      swap2\n      swap1\n      pop\n      jump\t// out\n        /* \"#utility.yul\":7958:8227   */\n    tag_87:\n        /* \"#utility.yul\":8068:8107   */\n      tag_189\n        /* \"#utility.yul\":8099:8106   */\n      dup4\n        /* \"#utility.yul\":8068:8107   */\n      tag_85\n      jump\t// in\n    tag_189:\n        /* \"#utility.yul\":8129:8220   */\n      tag_190\n        /* \"#utility.yul\":8178:8219   */\n      tag_191\n        /* \"#utility.yul\":8202:8218   */\n      dup3\n        /* \"#utility.yul\":8178:8219   */\n      tag_86\n      jump\t// in\n    tag_191:\n        /* \"#utility.yul\":8170:8176   */\n      dup5\n        /* \"#utility.yul\":8163:8167   */\n      dup5\n        /* \"#utility.yul\":8157:8168   */\n      sload\n        /* \"#utility.yul\":8129:8220   */\n      tag_83\n      jump\t// in\n    tag_190:\n        /* \"#utility.yul\":8123:8127   */\n      dup3\n        /* \"#utility.yul\":8116:8221   */\n      sstore\n        /* \"#utility.yul\":8034:8227   */\n      pop\n        /* \"#utility.yul\":7958:8227   */\n      pop\n      pop\n      pop\n      jump\t// out\n        /* \"#utility.yul\":8233:8306   */\n    tag_88:\n        /* \"#utility.yul\":8278:8281   */\n      0x00\n        /* \"#utility.yul\":8299:8300   */\n      0x00\n        /* \"#utility.yul\":8292:8300   */\n      swap1\n      pop\n        /* \"#utility.yul\":8233:8306   */\n      swap1\n      jump\t// out\n        /* \"#utility.yul\":8312:8501   */\n    tag_89:\n        /* \"#utility.yul\":8389:8421   */\n      tag_194\n      tag_88\n      jump\t// in\n    tag_194:\n        /* \"#utility.yul\":8430:8495   */\n      tag_195\n        /* \"#utility.yul\":8488:8494   */\n      dup2\n        /* \"#utility.yul\":8480:8486   */\n      dup5\n        /* \"#utility.yul\":8474:8478   */\n      dup5\n        /* \"#utility.yul\":8430:8495   */\n      tag_87\n      jump\t// in\n    tag_195:\n        /* \"#utility.yul\":8365:8501   */\n      pop\n        /* \"#utility.yul\":8312:8501   */\n      pop\n      pop\n      jump\t// out\n        /* \"#utility.yul\":8507:8693   */\n    tag_90:\n        /* \"#utility.yul\":8567:8687   */\n    tag_197:\n        /* \"#utility.yul\":8584:8587   */\n      dup2\n        /* \"#utility.yul\":8577:8582   */\n      dup2\n        /* \"#utility.yul\":8574:8588   */\n      lt\n        /* \"#utility.yul\":8567:8687   */\n      iszero\n      tag_199\n      jumpi\n        /* \"#utility.yul\":8638:8677   */\n      tag_200\n        /* \"#utility.yul\":8675:8676   */\n      0x00\n        /* \"#utility.yul\":8668:8673   */\n      dup3\n        /* \"#utility.yul\":8638:8677   */\n      tag_89\n      jump\t// in\n    tag_200:\n        /* \"#utility.yul\":8611:8612   */\n      0x01\n        /* \"#utility.yul\":8604:8609   */\n      dup2\n        /* \"#utility.yul\":8600:8613   */\n      add\n        /* \"#utility.yul\":8591:8613   */\n      swap1\n      pop\n        /* \"#utility.yul\":8567:8687   */\n      jump(tag_197)\n    tag_199:\n        /* \"#utility.yul\":8507:8693   */\n      pop\n      pop\n      jump\t// out\n        /* \"#utility.yul\":8699:9242   */\n    tag_91:\n        /* \"#utility.yul\":8800:8802   */\n      0x1f\n        /* \"#utility.yul\":8795:8798   */\n      dup3\n        /* \"#utility.yul\":8792:8803   */\n      gt\n        /* \"#utility.yul\":8789:9235   */\n      iszero\n      tag_202\n      jumpi\n        /* \"#utility.yul\":8834:8872   */\n      tag_203\n        /* \"#utility.yul\":8866:8871   */\n      dup2\n        /* \"#utility.yul\":8834:8872   */\n      tag_80\n      jump\t// in\n    tag_203:\n        /* \"#utility.yul\":8918:8947   */\n      tag_204\n        /* \"#utility.yul\":8936:8946   */\n      dup5\n        /* \"#utility.yul\":8918:8947   */\n      tag_81\n      jump\t// in\n    tag_204:\n        /* \"#utility.yul\":8908:8916   */\n      dup2\n        /* \"#utility.yul\":8904:8948   */\n      add\n        /* \"#utility.yul\":9101:9103   */\n      0x20\n        /* \"#utility.yul\":9089:9099   */\n      dup6\n        /* \"#utility.yul\":9086:9104   */\n      lt\n        /* \"#utility.yul\":9083:9132   */\n      iszero\n      tag_205\n      jumpi\n        /* \"#utility.yul\":9122:9130   */\n      dup2\n        /* \"#utility.yul\":9107:9130   */\n      swap1\n      pop\n        /* \"#utility.yul\":9083:9132   */\n    tag_205:\n        /* \"#utility.yul\":9145:9225   */\n      tag_206\n        /* \"#utility.yul\":9201:9223   */\n      tag_207\n        /* \"#utility.yul\":9219:9222   */\n      dup6\n        /* \"#utility.yul\":9201:9223   */\n      tag_81\n      jump\t// in\n    tag_207:\n        /* \"#utility.yul\":9191:9199   */\n      dup4\n        /* \"#utility.yul\":9187:9224   */\n      add\n        /* \"#utility.yul\":9174:9185   */\n      dup3\n        /* \"#utility.yul\":9145:9225   */\n      tag_90\n      jump\t// in\n    tag_206:\n        /* \"#utility.yul\":8804:9235   */\n      pop\n      pop\n        /* \"#utility.yul\":8789:9235   */\n    tag_202:\n        /* \"#utility.yul\":8699:9242   */\n      pop\n      pop\n      pop\n      jump\t// out\n        /* \"#utility.yul\":9248:9365   */\n    tag_92:\n        /* \"#utility.yul\":9302:9310   */\n      0x00\n        /* \"#utility.yul\":9352:9357   */\n      dup3\n        /* \"#utility.yul\":9346:9350   */\n      dup3\n        /* \"#utility.yul\":9342:9358   */\n      shr\n        /* \"#utility.yul\":9321:9358   */\n      swap1\n      pop\n        /* \"#utility.yul\":9248:9365   */\n      swap3\n      swap2\n      pop\n      pop\n      jump\t// out\n        /* \"#utility.yul\":9371:9540   */\n    tag_93:\n        /* \"#utility.yul\":9415:9421   */\n      0x00\n        /* \"#utility.yul\":9448:9499   */\n      tag_210\n        /* \"#utility.yul\":9496:9497   */\n      0x00\n        /* \"#utility.yul\":9492:9498   */\n      not\n        /* \"#utility.yul\":9484:9489   */\n      dup5\n        /* \"#utility.yul\":9481:9482   */\n      0x08\n        /* \"#utility.yul\":9477:9490   */\n      mul\n        /* \"#utility.yul\":9448:9499   */\n      tag_92\n      jump\t// in\n    tag_210:\n        /* \"#utility.yul\":9444:9500   */\n      not\n        /* \"#utility.yul\":9529:9533   */\n      dup1\n        /* \"#utility.yul\":9523:9527   */\n      dup4\n        /* \"#utility.yul\":9519:9534   */\n      and\n        /* \"#utility.yul\":9509:9534   */\n      swap2\n      pop\n        /* \"#utility.yul\":9422:9540   */\n      pop\n        /* \"#utility.yul\":9371:9540   */\n      swap3\n      swap2\n      pop\n      pop\n      jump\t// out\n        /* \"#utility.yul\":9545:9840   */\n    tag_94:\n        /* \"#utility.yul\":9621:9625   */\n      0x00\n        /* \"#utility.yul\":9767:9796   */\n      tag_212\n        /* \"#utility.yul\":9792:9795   */\n      dup4\n        /* \"#utility.yul\":9786:9790   */\n      dup4\n        /* \"#utility.yul\":9767:9796   */\n      tag_93\n      jump\t// in\n    tag_212:\n        /* \"#utility.yul\":9759:9796   */\n      swap2\n      pop\n        /* \"#utility.yul\":9829:9832   */\n      dup3\n        /* \"#utility.yul\":9826:9827   */\n      0x02\n        /* \"#utility.yul\":9822:9833   */\n      mul\n        /* \"#utility.yul\":9816:9820   */\n      dup3\n        /* \"#utility.yul\":9813:9834   */\n      or\n        /* \"#utility.yul\":9805:9834   */\n      swap1\n      pop\n        /* \"#utility.yul\":9545:9840   */\n      swap3\n      swap2\n      pop\n      pop\n      jump\t// out\n        /* \"#utility.yul\":9845:11240   */\n    tag_48:\n        /* \"#utility.yul\":9962:9999   */\n      tag_214\n        /* \"#utility.yul\":9995:9998   */\n      dup3\n        /* \"#utility.yul\":9962:9999   */\n      tag_74\n      jump\t// in\n    tag_214:\n        /* \"#utility.yul\":10064:10082   */\n      0xffffffffffffffff\n        /* \"#utility.yul\":10056:10062   */\n      dup2\n        /* \"#utility.yul\":10053:10083   */\n      gt\n        /* \"#utility.yul\":10050:10106   */\n      iszero\n      tag_215\n      jumpi\n        /* \"#utility.yul\":10086:10104   */\n      tag_216\n      tag_63\n      jump\t// in\n    tag_216:\n        /* \"#utility.yul\":10050:10106   */\n    tag_215:\n        /* \"#utility.yul\":10130:10168   */\n      tag_217\n        /* \"#utility.yul\":10162:10166   */\n      dup3\n        /* \"#utility.yul\":10156:10167   */\n      sload\n        /* \"#utility.yul\":10130:10168   */\n      tag_37\n      jump\t// in\n    tag_217:\n        /* \"#utility.yul\":10215:10282   */\n      tag_218\n        /* \"#utility.yul\":10275:10281   */\n      dup3\n        /* \"#utility.yul\":10267:10273   */\n      dup3\n        /* \"#utility.yul\":10261:10265   */\n      dup6\n        /* \"#utility.yul\":10215:10282   */\n      tag_91\n      jump\t// in\n    tag_218:\n        /* \"#utility.yul\":10309:10310   */\n      0x00\n        /* \"#utility.yul\":10333:10337   */\n      0x20\n        /* \"#utility.yul\":10320:10337   */\n      swap1\n      pop\n        /* \"#utility.yul\":10365:10367   */\n      0x1f\n        /* \"#utility.yul\":10357:10363   */\n      dup4\n        /* \"#utility.yul\":10354:10368   */\n      gt\n        /* \"#utility.yul\":10382:10383   */\n      0x01\n        /* \"#utility.yul\":10377:10995   */\n      dup2\n      eq\n      tag_220\n      jumpi\n        /* \"#utility.yul\":11039:11040   */\n      0x00\n        /* \"#utility.yul\":11056:11062   */\n      dup5\n        /* \"#utility.yul\":11053:11130   */\n      iszero\n      tag_221\n      jumpi\n        /* \"#utility.yul\":11105:11114   */\n      dup3\n        /* \"#utility.yul\":11100:11103   */\n      dup8\n        /* \"#utility.yul\":11096:11115   */\n      add\n        /* \"#utility.yul\":11090:11116   */\n      mload\n        /* \"#utility.yul\":11081:11116   */\n      swap1\n      pop\n        /* \"#utility.yul\":11053:11130   */\n    tag_221:\n        /* \"#utility.yul\":11156:11223   */\n      tag_222\n        /* \"#utility.yul\":11216:11222   */\n      dup6\n        /* \"#utility.yul\":11209:11214   */\n      dup3\n        /* \"#utility.yul\":11156:11223   */\n      tag_94\n      jump\t// in\n    tag_222:\n        /* \"#utility.yul\":11150:11154   */\n      dup7\n        /* \"#utility.yul\":11143:11224   */\n      sstore\n        /* \"#utility.yul\":11012:11234   */\n      pop\n        /* \"#utility.yul\":10347:11234   */\n      jump(tag_219)\n        /* \"#utility.yul\":10377:10995   */\n    tag_220:\n        /* \"#utility.yul\":10429:10433   */\n      0x1f\n        /* \"#utility.yul\":10425:10434   */\n      not\n        /* \"#utility.yul\":10417:10423   */\n      dup5\n        /* \"#utility.yul\":10413:10435   */\n      and\n        /* \"#utility.yul\":10463:10500   */\n      tag_223\n        /* \"#utility.yul\":10495:10499   */\n      dup7\n        /* \"#utility.yul\":10463:10500   */\n      tag_80\n      jump\t// in\n    tag_223:\n        /* \"#utility.yul\":10522:10523   */\n      0x00\n        /* \"#utility.yul\":10536:10744   */\n    tag_224:\n        /* \"#utility.yul\":10550:10557   */\n      dup3\n        /* \"#utility.yul\":10547:10548   */\n      dup2\n        /* \"#utility.yul\":10544:10558   */\n      lt\n        /* \"#utility.yul\":10536:10744   */\n      iszero\n      tag_226\n      jumpi\n        /* \"#utility.yul\":10629:10638   */\n      dup5\n        /* \"#utility.yul\":10624:10627   */\n      dup10\n        /* \"#utility.yul\":10620:10639   */\n      add\n        /* \"#utility.yul\":10614:10640   */\n      mload\n        /* \"#utility.yul\":10606:10612   */\n      dup3\n        /* \"#utility.yul\":10599:10641   */\n      sstore\n        /* \"#utility.yul\":10680:10681   */\n      0x01\n        /* \"#utility.yul\":10672:10678   */\n      dup3\n        /* \"#utility.yul\":10668:10682   */\n      add\n        /* \"#utility.yul\":10658:10682   */\n      swap2\n      pop\n        /* \"#utility.yul\":10727:10729   */\n      0x20\n        /* \"#utility.yul\":10716:10725   */\n      dup6\n        /* \"#utility.yul\":10712:10730   */\n      add\n        /* \"#utility.yul\":10699:10730   */\n      swap5\n      pop\n        /* \"#utility.yul\":10573:10577   */\n      0x20\n        /* \"#utility.yul\":10570:10571   */\n      dup2\n        /* \"#utility.yul\":10566:10578   */\n      add\n        /* \"#utility.yul\":10561:10578   */\n      swap1\n      pop\n        /* \"#utility.yul\":10536:10744   */\n      jump(tag_224)\n    tag_226:\n        /* \"#utility.yul\":10772:10778   */\n      dup7\n        /* \"#utility.yul\":10763:10770   */\n      dup4\n        /* \"#utility.yul\":10760:10779   */\n      lt\n        /* \"#utility.yul\":10757:10936   */\n      iszero\n      tag_227\n      jumpi\n        /* \"#utility.yul\":10830:10839   */\n      dup5\n        /* \"#utility.yul\":10825:10828   */\n      dup10\n        /* \"#utility.yul\":10821:10840   */\n      add\n        /* \"#utility.yul\":10815:10841   */\n      mload\n        /* \"#utility.yul\":10873:10921   */\n      tag_228\n        /* \"#utility.yul\":10915:10919   */\n      0x1f\n        /* \"#utility.yul\":10907:10913   */\n      dup10\n        /* \"#utility.yul\":10903:10920   */\n      and\n        /* \"#utility.yul\":10892:10901   */\n      dup3\n        /* \"#utility.yul\":10873:10921   */\n      tag_93\n      jump\t// in\n    tag_228:\n        /* \"#utility.yul\":10865:10871   */\n      dup4\n        /* \"#utility.yul\":10858:10922   */\n      sstore\n        /* \"#utility.yul\":10780:10936   */\n      pop\n        /* \"#utility.yul\":10757:10936   */\n    tag_227:\n        /* \"#utility.yul\":10982:10983   */\n      0x01\n        /* \"#utility.yul\":10978:10979   */\n      0x02\n        /* \"#utility.yul\":10970:10976   */\n      dup9\n        /* \"#utility.yul\":10966:10980   */\n      mul\n        /* \"#utility.yul\":10962:10984   */\n      add\n        /* \"#utility.yul\":10956:10960   */\n      dup9\n        /* \"#utility.yul\":10949:10985   */\n      sstore\n        /* \"#utility.yul\":10384:10995   */\n      pop\n      pop\n      pop\n        /* \"#utility.yul\":10347:11234   */\n    tag_219:\n      pop\n        /* \"#utility.yul\":9937:11240   */\n      pop\n      pop\n      pop\n        /* \"#utility.yul\":9845:11240   */\n      pop\n      pop\n      jump\t// out\n        /* \"#utility.yul\":11246:11394   */\n    tag_95:\n        /* \"#utility.yul\":11348:11359   */\n      0x00\n        /* \"#utility.yul\":11385:11388   */\n      dup2\n        /* \"#utility.yul\":11370:11388   */\n      swap1\n      pop\n        /* \"#utility.yul\":11246:11394   */\n      swap3\n      swap2\n      pop\n      pop\n      jump\t// out\n        /* \"#utility.yul\":11400:11790   */\n    tag_96:\n        /* \"#utility.yul\":11506:11509   */\n      0x00\n        /* \"#utility.yul\":11534:11573   */\n      tag_231\n        /* \"#utility.yul\":11567:11572   */\n      dup3\n        /* \"#utility.yul\":11534:11573   */\n      tag_74\n      jump\t// in\n    tag_231:\n        /* \"#utility.yul\":11589:11678   */\n      tag_232\n        /* \"#utility.yul\":11671:11677   */\n      dup2\n        /* \"#utility.yul\":11666:11669   */\n      dup6\n        /* \"#utility.yul\":11589:11678   */\n      tag_95\n      jump\t// in\n    tag_232:\n        /* \"#utility.yul\":11582:11678   */\n      swap4\n      pop\n        /* \"#utility.yul\":11687:11752   */\n      tag_233\n        /* \"#utility.yul\":11745:11751   */\n      dup2\n        /* \"#utility.yul\":11740:11743   */\n      dup6\n        /* \"#utility.yul\":11733:11737   */\n      0x20\n        /* \"#utility.yul\":11726:11731   */\n      dup7\n        /* \"#utility.yul\":11722:11738   */\n      add\n        /* \"#utility.yul\":11687:11752   */\n      tag_76\n      jump\t// in\n    tag_233:\n        /* \"#utility.yul\":11777:11783   */\n      dup1\n        /* \"#utility.yul\":11772:11775   */\n      dup5\n        /* \"#utility.yul\":11768:11784   */\n      add\n        /* \"#utility.yul\":11761:11784   */\n      swap2\n      pop\n        /* \"#utility.yul\":11510:11790   */\n      pop\n        /* \"#utility.yul\":11400:11790   */\n      swap3\n      swap2\n      pop\n      pop\n      jump\t// out\n        /* \"#utility.yul\":11796:12071   */\n    tag_50:\n        /* \"#utility.yul\":11928:11931   */\n      0x00\n        /* \"#utility.yul\":11950:12045   */\n      tag_235\n        /* \"#utility.yul\":12041:12044   */\n      dup3\n        /* \"#utility.yul\":12032:12038   */\n      dup5\n        /* \"#utility.yul\":11950:12045   */\n      tag_96\n      jump\t// in\n    tag_235:\n        /* \"#utility.yul\":11943:12045   */\n      swap2\n      pop\n        /* \"#utility.yul\":12062:12065   */\n      dup2\n        /* \"#utility.yul\":12055:12065   */\n      swap1\n      pop\n        /* \"#utility.yul\":11796:12071   */\n      swap3\n      swap2\n      pop\n      pop\n      jump\t// out\n\n    auxdata: 0xa264697066735822122084ec23c13cfeb94d46ae16018fa3183710d6aec232df6b31359d0335b79f458064736f6c634300081e0033\n}\n",
				"bytecode": {
					"linkReferences": {},
					"object": "60806040526040518060400160405280601581526020016040518060400160405280600681526020017f547573686172000000000000000000000000000000000000000000000000000081525081525060035f820151815f0155602082015181600101908161006e91906102bf565b50505034801561007c575f5ffd5b5061038e565b5f81519050919050565b7f4e487b71000000000000000000000000000000000000000000000000000000005f52604160045260245ffd5b7f4e487b71000000000000000000000000000000000000000000000000000000005f52602260045260245ffd5b5f60028204905060018216806100fd57607f821691505b6020821081036101105761010f6100b9565b5b50919050565b5f819050815f5260205f209050919050565b5f6020601f8301049050919050565b5f82821b905092915050565b5f600883026101727fffffffffffffffffffffffffffffffffffffffffffffffffffffffffffffffff82610137565b61017c8683610137565b95508019841693508086168417925050509392505050565b5f819050919050565b5f819050919050565b5f6101c06101bb6101b684610194565b61019d565b610194565b9050919050565b5f819050919050565b6101d9836101a6565b6101ed6101e5826101c7565b848454610143565b825550505050565b5f5f905090565b6102046101f5565b61020f8184846101d0565b505050565b5b81811015610232576102275f826101fc565b600181019050610215565b5050565b601f8211156102775761024881610116565b61025184610128565b81016020851015610260578190505b61027461026c85610128565b830182610214565b50505b505050565b5f82821c905092915050565b5f6102975f198460080261027c565b1980831691505092915050565b5f6102af8383610288565b9150826002028217905092915050565b6102c882610082565b67ffffffffffffffff8111156102e1576102e061008c565b5b6102eb82546100e6565b6102f6828285610236565b5f60209050601f831160018114610327575f8415610315578287015190505b61031f85826102a4565b865550610386565b601f19841661033586610116565b5f5b8281101561035c57848901518255600182019150602085019450602081019050610337565b868310156103795784890151610375601f891682610288565b8355505b6001600288020188555050505b505050505050565b610a088061039b5f395ff3fe608060405234801561000f575f5ffd5b5060043610610060575f3560e01c806306c62c2c146100645780632ebce631146100945780636057361d146100c55780636f760f41146100e1578063acce3cce146100fd578063b05784b81461011c575b5f5ffd5b61007e600480360381019061007991906104a1565b61013a565b60405161008b9190610500565b60405180910390f35b6100ae60048036038101906100a99190610543565b610167565b6040516100bc9291906105ce565b60405180910390f35b6100df60048036038101906100da9190610543565b61021c565b005b6100fb60048036038101906100f691906105fc565b610231565b005b6101056102b5565b6040516101139291906105ce565b60405180910390f35b61012461034c565b6040516101319190610500565b60405180910390f35b6002818051602081018201805184825260208301602085012081835280955050505050505f915090505481565b60018181548110610176575f80fd5b905f5260205f2090600202015f91509050805f01549080600101805461019b90610683565b80601f01602080910402602001604051908101604052809291908181526020018280546101c790610683565b80156102125780601f106101e957610100808354040283529160200191610212565b820191905f5260205f20905b8154815290600101906020018083116101f557829003601f168201915b5050505050905082565b60058161022991906106e0565b5f8190555050565b6001604051806040016040528083815260200184815250908060018154018082558091505060019003905f5260205f2090600202015f909190919091505f820151815f0155602082015181600101908161028b91906108b3565b5050508060028360405161029f91906109bc565b9081526020016040518091039020819055505050565b6003805f0154908060010180546102cb90610683565b80601f01602080910402602001604051908101604052809291908181526020018280546102f790610683565b80156103425780601f1061031957610100808354040283529160200191610342565b820191905f5260205f20905b81548152906001019060200180831161032557829003601f168201915b5050505050905082565b5f5f54905090565b5f604051905090565b5f5ffd5b5f5ffd5b5f5ffd5b5f5ffd5b5f601f19601f8301169050919050565b7f4e487b71000000000000000000000000000000000000000000000000000000005f52604160045260245ffd5b6103b38261036d565b810181811067ffffffffffffffff821117156103d2576103d161037d565b5b80604052505050565b5f6103e4610354565b90506103f082826103aa565b919050565b5f67ffffffffffffffff82111561040f5761040e61037d565b5b6104188261036d565b9050602081019050919050565b828183375f83830152505050565b5f610445610440846103f5565b6103db565b90508281526020810184848401111561046157610460610369565b5b61046c848285610425565b509392505050565b5f82601f83011261048857610487610365565b5b8135610498848260208601610433565b91505092915050565b5f602082840312156104b6576104b561035d565b5b5f82013567ffffffffffffffff8111156104d3576104d2610361565b5b6104df84828501610474565b91505092915050565b5f819050919050565b6104fa816104e8565b82525050565b5f6020820190506105135f8301846104f1565b92915050565b610522816104e8565b811461052c575f5ffd5b50565b5f8135905061053d81610519565b92915050565b5f602082840312156105585761055761035d565b5b5f6105658482850161052f565b91505092915050565b5f81519050919050565b5f82825260208201905092915050565b8281835e5f83830152505050565b5f6105a08261056e565b6105aa8185610578565b93506105ba818560208601610588565b6105c38161036d565b840191505092915050565b5f6040820190506105e15f8301856104f1565b81810360208301526105f38184610596565b90509392505050565b5f5f604083850312156106125761061161035d565b5b5f83013567ffffffffffffffff81111561062f5761062e610361565b5b61063b85828601610474565b925050602061064c8582860161052f565b9150509250929050565b7f4e487b71000000000000000000000000000000000000000000000000000000005f52602260045260245ffd5b5f600282049050600182168061069a57607f821691505b6020821081036106ad576106ac610656565b5b50919050565b7f4e487b71000000000000000000000000000000000000000000000000000000005f52601160045260245ffd5b5f6106ea826104e8565b91506106f5836104e8565b925082820190508082111561070d5761070c6106b3565b5b92915050565b5f819050815f5260205f209050919050565b5f6020601f8301049050919050565b5f82821b905092915050565b5f6008830261076f7fffffffffffffffffffffffffffffffffffffffffffffffffffffffffffffffff82610734565b6107798683610734565b95508019841693508086168417925050509392505050565b5f819050919050565b5f6107b46107af6107aa846104e8565b610791565b6104e8565b9050919050565b5f819050919050565b6107cd8361079a565b6107e16107d9826107bb565b848454610740565b825550505050565b5f5f905090565b6107f86107e9565b6108038184846107c4565b505050565b5b818110156108265761081b5f826107f0565b600181019050610809565b5050565b601f82111561086b5761083c81610713565b61084584610725565b81016020851015610854578190505b61086861086085610725565b830182610808565b50505b505050565b5f82821c905092915050565b5f61088b5f1984600802610870565b1980831691505092915050565b5f6108a3838361087c565b9150826002028217905092915050565b6108bc8261056e565b67ffffffffffffffff8111156108d5576108d461037d565b5b6108df8254610683565b6108ea82828561082a565b5f60209050601f83116001811461091b575f8415610909578287015190505b6109138582610898565b86555061097a565b601f19841661092986610713565b5f5b828110156109505784890151825560018201915060208501945060208101905061092b565b8683101561096d5784890151610969601f89168261087c565b8355505b6001600288020188555050505b505050505050565b5f81905092915050565b5f6109968261056e565b6109a08185610982565b93506109b0818560208601610588565b80840191505092915050565b5f6109c7828461098c565b91508190509291505056fea264697066735822122084ec23c13cfeb94d46ae16018fa3183710d6aec232df6b31359d0335b79f458064736f6c634300081e0033",
					"opcodes": "PUSH1 0x80 PUSH1 0x40 MSTORE PUSH1 0x40 MLOAD DUP1 PUSH1 0x40 ADD PUSH1 0x40 MSTORE DUP1 PUSH1 0x15 DUP2 MSTORE PUSH1 0x20 ADD PUSH1 0x40 MLOAD DUP1 PUSH1 0x40 ADD PUSH1 0x40 MSTORE DUP1 PUSH1 0x6 DUP2 MSTORE PUSH1 0x20 ADD PUSH32 0x5475736861720000000000000000000000000000000000000000000000000000 DUP2 MSTORE POP DUP2 MSTORE POP PUSH1 0x3 PUSH0 DUP3 ADD MLOAD DUP2 PUSH0 ADD SSTORE PUSH1 0x20 DUP3 ADD MLOAD DUP2 PUSH1 0x1 ADD SWAP1 DUP2 PUSH2 0x6E SWAP2 SWAP1 PUSH2 0x2BF JUMP JUMPDEST POP POP POP CALLVALUE DUP1 ISZERO PUSH2 0x7C JUMPI PUSH0 PUSH0 REVERT JUMPDEST POP PUSH2 0x38E JUMP JUMPDEST PUSH0 DUP2 MLOAD SWAP1 POP SWAP2 SWAP1 POP JUMP JUMPDEST PUSH32 0x4E487B7100000000000000000000000000000000000000000000000000000000 PUSH0 MSTORE PUSH1 0x41 PUSH1 0x4 MSTORE PUSH1 0x24 PUSH0 REVERT JUMPDEST PUSH32 0x4E487B7100000000000000000000000000000000000000000000000000000000 PUSH0 MSTORE PUSH1 0x22 PUSH1 0x4 MSTORE PUSH1 0x24 PUSH0 REVERT JUMPDEST PUSH0 PUSH1 0x2 DUP3 DIV SWAP1 POP PUSH1 0x1 DUP3 AND DUP1 PUSH2 0xFD JUMPI PUSH1 0x7F DUP3 AND SWAP2 POP JUMPDEST PUSH1 0x20 DUP3 LT DUP2 SUB PUSH2 0x110 JUMPI PUSH2 0x10F PUSH2 0xB9 JUMP JUMPDEST JUMPDEST POP SWAP2 SWAP1 POP JUMP JUMPDEST PUSH0 DUP2 SWAP1 POP DUP2 PUSH0 MSTORE PUSH1 0x20 PUSH0 KECCAK256 SWAP1 POP SWAP2 SWAP1 POP JUMP JUMPDEST PUSH0 PUSH1 0x20 PUSH1 0x1F DUP4 ADD DIV SWAP1 POP SWAP2 SWAP1 POP JUMP JUMPDEST PUSH0 DUP3 DUP3 SHL SWAP1 POP SWAP3 SWAP2 POP POP JUMP JUMPDEST PUSH0 PUSH1 0x8 DUP4 MUL PUSH2 0x172 PUSH32 0xFFFFFFFFFFFFFFFFFFFFFFFFFFFFFFFFFFFFFFFFFFFFFFFFFFFFFFFFFFFFFFFF DUP3 PUSH2 0x137 JUMP JUMPDEST PUSH2 0x17C DUP7 DUP4 PUSH2 0x137 JUMP JUMPDEST SWAP6 POP DUP1 NOT DUP5 AND SWAP4 POP DUP1 DUP7 AND DUP5 OR SWAP3 POP POP POP SWAP4 SWAP3 POP POP POP JUMP JUMPDEST PUSH0 DUP2 SWAP1 POP SWAP2 SWAP1 POP JUMP JUMPDEST PUSH0 DUP2 SWAP1 POP SWAP2 SWAP1 POP JUMP JUMPDEST PUSH0 PUSH2 0x1C0 PUSH2 0x1BB PUSH2 0x1B6 DUP5 PUSH2 0x194 JUMP JUMPDEST PUSH2 0x19D JUMP JUMPDEST PUSH2 0x194 JUMP JUMPDEST SWAP1 POP SWAP2 SWAP1 POP JUMP JUMPDEST PUSH0 DUP2 SWAP1 POP SWAP2 SWAP1 POP JUMP JUMPDEST PUSH2 0x1D9 DUP4 PUSH2 0x1A6 JUMP JUMPDEST PUSH2 0x1ED PUSH2 0x1E5 DUP3 PUSH2 0x1C7 JUMP JUMPDEST DUP5 DUP5 SLOAD PUSH2 0x143 JUMP JUMPDEST DUP3 SSTORE POP POP POP POP JUMP JUMPDEST PUSH0 PUSH0 SWAP1 POP SWAP1 JUMP JUMPDEST PUSH2 0x204 PUSH2 0x1F5 JUMP JUMPDEST PUSH2 0x20F DUP2 DUP5 DUP5 PUSH2 0x1D0 JUMP JUMPDEST POP POP POP JUMP JUMPDEST JUMPDEST DUP2 DUP2 LT ISZERO PUSH2 0x232 JUMPI PUSH2 0x227 PUSH0 DUP3 PUSH2 0x1FC JUMP JUMPDEST PUSH1 0x1 DUP2 ADD SWAP1 POP PUSH2 0x215 JUMP JUMPDEST POP POP JUMP JUMPDEST PUSH1 0x1F DUP3 GT ISZERO PUSH2 0x277 JUMPI PUSH2 0x248 DUP2 PUSH2 0x116 JUMP JUMPDEST PUSH2 0x251 DUP5 PUSH2 0x128 JUMP JUMPDEST DUP2 ADD PUSH1 0x20 DUP6 LT ISZERO PUSH2 0x260 JUMPI DUP2 SWAP1 POP JUMPDEST PUSH2 0x274 PUSH2 0x26C DUP6 PUSH2 0x128 JUMP JUMPDEST DUP4 ADD DUP3 PUSH2 0x214 JUMP JUMPDEST POP POP JUMPDEST POP POP POP JUMP JUMPDEST PUSH0 DUP3 DUP3 SHR SWAP1 POP SWAP3 SWAP2 POP POP JUMP JUMPDEST PUSH0 PUSH2 0x297 PUSH0 NOT DUP5 PUSH1 0x8 MUL PUSH2 0x27C JUMP JUMPDEST NOT DUP1 DUP4 AND SWAP2 POP POP SWAP3 SWAP2 POP POP JUMP JUMPDEST PUSH0 PUSH2 0x2AF DUP4 DUP4 PUSH2 0x288 JUMP JUMPDEST SWAP2 POP DUP3 PUSH1 0x2 MUL DUP3 OR SWAP1 POP SWAP3 SWAP2 POP POP JUMP JUMPDEST PUSH2 0x2C8 DUP3 PUSH2 0x82 JUMP JUMPDEST PUSH8 0xFFFFFFFFFFFFFFFF DUP2 GT ISZERO PUSH2 0x2E1 JUMPI PUSH2 0x2E0 PUSH2 0x8C JUMP JUMPDEST JUMPDEST PUSH2 0x2EB DUP3 SLOAD PUSH2 0xE6 JUMP JUMPDEST PUSH2 0x2F6 DUP3 DUP3 DUP6 PUSH2 0x236 JUMP JUMPDEST PUSH0 PUSH1 0x20 SWAP1 POP PUSH1 0x1F DUP4 GT PUSH1 0x1 DUP2 EQ PUSH2 0x327 JUMPI PUSH0 DUP5 ISZERO PUSH2 0x315 JUMPI DUP3 DUP8 ADD MLOAD SWAP1 POP JUMPDEST PUSH2 0x31F DUP6 DUP3 PUSH2 0x2A4 JUMP JUMPDEST DUP7 SSTORE POP PUSH2 0x386 JUMP JUMPDEST PUSH1 0x1F NOT DUP5 AND PUSH2 0x335 DUP7 PUSH2 0x116 JUMP JUMPDEST PUSH0 JUMPDEST DUP3 DUP2 LT ISZERO PUSH2 0x35C JUMPI DUP5 DUP10 ADD MLOAD DUP3 SSTORE PUSH1 0x1 DUP3 ADD SWAP2 POP PUSH1 0x20 DUP6 ADD SWAP5 POP PUSH1 0x20 DUP2 ADD SWAP1 POP PUSH2 0x337 JUMP JUMPDEST DUP7 DUP4 LT ISZERO PUSH2 0x379 JUMPI DUP5 DUP10 ADD MLOAD PUSH2 0x375 PUSH1 0x1F DUP10 AND DUP3 PUSH2 0x288 JUMP JUMPDEST DUP4 SSTORE POP JUMPDEST PUSH1 0x1 PUSH1 0x2 DUP9 MUL ADD DUP9 SSTORE POP POP POP JUMPDEST POP POP POP POP POP POP JUMP JUMPDEST PUSH2 0xA08 DUP1 PUSH2 0x39B PUSH0 CODECOPY PUSH0 RETURN INVALID PUSH1 0x80 PUSH1 0x40 MSTORE CALLVALUE DUP1 ISZERO PUSH2 0xF JUMPI PUSH0 PUSH0 REVERT JUMPDEST POP PUSH1 0x4 CALLDATASIZE LT PUSH2 0x60 JUMPI PUSH0 CALLDATALOAD PUSH1 0xE0 SHR DUP1 PUSH4 0x6C62C2C EQ PUSH2 0x64 JUMPI DUP1 PUSH4 0x2EBCE631 EQ PUSH2 0x94 JUMPI DUP1 PUSH4 0x6057361D EQ PUSH2 0xC5 JUMPI DUP1 PUSH4 0x6F760F41 EQ PUSH2 0xE1 JUMPI DUP1 PUSH4 0xACCE3CCE EQ PUSH2 0xFD JUMPI DUP1 PUSH4 0xB05784B8 EQ PUSH2 0x11C JUMPI JUMPDEST PUSH0 PUSH0 REVERT JUMPDEST PUSH2 0x7E PUSH1 0x4 DUP1 CALLDATASIZE SUB DUP2 ADD SWAP1 PUSH2 0x79 SWAP2 SWAP1 PUSH2 0x4A1 JUMP JUMPDEST PUSH2 0x13A JUMP JUMPDEST PUSH1 0x40 MLOAD PUSH2 0x8B SWAP2 SWAP1 PUSH2 0x500 JUMP JUMPDEST PUSH1 0x40 MLOAD DUP1 SWAP2 SUB SWAP1 RETURN JUMPDEST PUSH2 0xAE PUSH1 0x4 DUP1 CALLDATASIZE SUB DUP2 ADD SWAP1 PUSH2 0xA9 SWAP2 SWAP1 PUSH2 0x543 JUMP JUMPDEST PUSH2 0x167 JUMP JUMPDEST PUSH1 0x40 MLOAD PUSH2 0xBC SWAP3 SWAP2 SWAP1 PUSH2 0x5CE JUMP JUMPDEST PUSH1 0x40 MLOAD DUP1 SWAP2 SUB SWAP1 RETURN JUMPDEST PUSH2 0xDF PUSH1 0x4 DUP1 CALLDATASIZE SUB DUP2 ADD SWAP1 PUSH2 0xDA SWAP2 SWAP1 PUSH2 0x543 JUMP JUMPDEST PUSH2 0x21C JUMP JUMPDEST STOP JUMPDEST PUSH2 0xFB PUSH1 0x4 DUP1 CALLDATASIZE SUB DUP2 ADD SWAP1 PUSH2 0xF6 SWAP2 SWAP1 PUSH2 0x5FC JUMP JUMPDEST PUSH2 0x231 JUMP JUMPDEST STOP JUMPDEST PUSH2 0x105 PUSH2 0x2B5 JUMP JUMPDEST PUSH1 0x40 MLOAD PUSH2 0x113 SWAP3 SWAP2 SWAP1 PUSH2 0x5CE JUMP JUMPDEST PUSH1 0x40 MLOAD DUP1 SWAP2 SUB SWAP1 RETURN JUMPDEST PUSH2 0x124 PUSH2 0x34C JUMP JUMPDEST PUSH1 0x40 MLOAD PUSH2 0x131 SWAP2 SWAP1 PUSH2 0x500 JUMP JUMPDEST PUSH1 0x40 MLOAD DUP1 SWAP2 SUB SWAP1 RETURN JUMPDEST PUSH1 0x2 DUP2 DUP1 MLOAD PUSH1 0x20 DUP2 ADD DUP3 ADD DUP1 MLOAD DUP5 DUP3 MSTORE PUSH1 0x20 DUP4 ADD PUSH1 0x20 DUP6 ADD KECCAK256 DUP2 DUP4 MSTORE DUP1 SWAP6 POP POP POP POP POP POP PUSH0 SWAP2 POP SWAP1 POP SLOAD DUP2 JUMP JUMPDEST PUSH1 0x1 DUP2 DUP2 SLOAD DUP2 LT PUSH2 0x176 JUMPI PUSH0 DUP1 REVERT JUMPDEST SWAP1 PUSH0 MSTORE PUSH1 0x20 PUSH0 KECCAK256 SWAP1 PUSH1 0x2 MUL ADD PUSH0 SWAP2 POP SWAP1 POP DUP1 PUSH0 ADD SLOAD SWAP1 DUP1 PUSH1 0x1 ADD DUP1 SLOAD PUSH2 0x19B SWAP1 PUSH2 0x683 JUMP JUMPDEST DUP1 PUSH1 0x1F ADD PUSH1 0x20 DUP1 SWAP2 DIV MUL PUSH1 0x20 ADD PUSH1 0x40 MLOAD SWAP1 DUP2 ADD PUSH1 0x40 MSTORE DUP1 SWAP3 SWAP2 SWAP1 DUP2 DUP2 MSTORE PUSH1 0x20 ADD DUP3 DUP1 SLOAD PUSH2 0x1C7 SWAP1 PUSH2 0x683 JUMP JUMPDEST DUP1 ISZERO PUSH2 0x212 JUMPI DUP1 PUSH1 0x1F LT PUSH2 0x1E9 JUMPI PUSH2 0x100 DUP1 DUP4 SLOAD DIV MUL DUP4 MSTORE SWAP2 PUSH1 0x20 ADD SWAP2 PUSH2 0x212 JUMP JUMPDEST DUP3 ADD SWAP2 SWAP1 PUSH0 MSTORE PUSH1 0x20 PUSH0 KECCAK256 SWAP1 JUMPDEST DUP2 SLOAD DUP2 MSTORE SWAP1 PUSH1 0x1 ADD SWAP1 PUSH1 0x20 ADD DUP1 DUP4 GT PUSH2 0x1F5 JUMPI DUP3 SWAP1 SUB PUSH1 0x1F AND DUP3 ADD SWAP2 JUMPDEST POP POP POP POP POP SWAP1 POP DUP3 JUMP JUMPDEST PUSH1 0x5 DUP2 PUSH2 0x229 SWAP2 SWAP1 PUSH2 0x6E0 JUMP JUMPDEST PUSH0 DUP2 SWAP1 SSTORE POP POP JUMP JUMPDEST PUSH1 0x1 PUSH1 0x40 MLOAD DUP1 PUSH1 0x40 ADD PUSH1 0x40 MSTORE DUP1 DUP4 DUP2 MSTORE PUSH1 0x20 ADD DUP5 DUP2 MSTORE POP SWAP1 DUP1 PUSH1 0x1 DUP2 SLOAD ADD DUP1 DUP3 SSTORE DUP1 SWAP2 POP POP PUSH1 0x1 SWAP1 SUB SWAP1 PUSH0 MSTORE PUSH1 0x20 PUSH0 KECCAK256 SWAP1 PUSH1 0x2 MUL ADD PUSH0 SWAP1 SWAP2 SWAP1 SWAP2 SWAP1 SWAP2 POP PUSH0 DUP3 ADD MLOAD DUP2 PUSH0 ADD SSTORE PUSH1 0x20 DUP3 ADD MLOAD DUP2 PUSH1 0x1 ADD SWAP1 DUP2 PUSH2 0x28B SWAP2 SWAP1 PUSH2 0x8B3 JUMP JUMPDEST POP POP POP DUP1 PUSH1 0x2 DUP4 PUSH1 0x40 MLOAD PUSH2 0x29F SWAP2 SWAP1 PUSH2 0x9BC JUMP JUMPDEST SWAP1 DUP2 MSTORE PUSH1 0x20 ADD PUSH1 0x40 MLOAD DUP1 SWAP2 SUB SWAP1 KECCAK256 DUP2 SWAP1 SSTORE POP POP POP JUMP JUMPDEST PUSH1 0x3 DUP1 PUSH0 ADD SLOAD SWAP1 DUP1 PUSH1 0x1 ADD DUP1 SLOAD PUSH2 0x2CB SWAP1 PUSH2 0x683 JUMP JUMPDEST DUP1 PUSH1 0x1F ADD PUSH1 0x20 DUP1 SWAP2 DIV MUL PUSH1 0x20 ADD PUSH1 0x40 MLOAD SWAP1 DUP2 ADD PUSH1 0x40 MSTORE DUP1 SWAP3 SWAP2 SWAP1 DUP2 DUP2 MSTORE PUSH1 0x20 ADD DUP3 DUP1 SLOAD PUSH2 0x2F7 SWAP1 PUSH2 0x683 JUMP JUMPDEST DUP1 ISZERO PUSH2 0x342 JUMPI DUP1 PUSH1 0x1F LT PUSH2 0x319 JUMPI PUSH2 0x100 DUP1 DUP4 SLOAD DIV MUL DUP4 MSTORE SWAP2 PUSH1 0x20 ADD SWAP2 PUSH2 0x342 JUMP JUMPDEST DUP3 ADD SWAP2 SWAP1 PUSH0 MSTORE PUSH1 0x20 PUSH0 KECCAK256 SWAP1 JUMPDEST DUP2 SLOAD DUP2 MSTORE SWAP1 PUSH1 0x1 ADD SWAP1 PUSH1 0x20 ADD DUP1 DUP4 GT PUSH2 0x325 JUMPI DUP3 SWAP1 SUB PUSH1 0x1F AND DUP3 ADD SWAP2 JUMPDEST POP POP POP POP POP SWAP1 POP DUP3 JUMP JUMPDEST PUSH0 PUSH0 SLOAD SWAP1 POP SWAP1 JUMP JUMPDEST PUSH0 PUSH1 0x40 MLOAD SWAP1 POP SWAP1 JUMP JUMPDEST PUSH0 PUSH0 REVERT JUMPDEST PUSH0 PUSH0 REVERT JUMPDEST PUSH0 PUSH0 REVERT JUMPDEST PUSH0 PUSH0 REVERT JUMPDEST PUSH0 PUSH1 0x1F NOT PUSH1 0x1F DUP4 ADD AND SWAP1 POP SWAP2 SWAP1 POP JUMP JUMPDEST PUSH32 0x4E487B7100000000000000000000000000000000000000000000000000000000 PUSH0 MSTORE PUSH1 0x41 PUSH1 0x4 MSTORE PUSH1 0x24 PUSH0 REVERT JUMPDEST PUSH2 0x3B3 DUP3 PUSH2 0x36D JUMP JUMPDEST DUP2 ADD DUP2 DUP2 LT PUSH8 0xFFFFFFFFFFFFFFFF DUP3 GT OR ISZERO PUSH2 0x3D2 JUMPI PUSH2 0x3D1 PUSH2 0x37D JUMP JUMPDEST JUMPDEST DUP1 PUSH1 0x40 MSTORE POP POP POP JUMP JUMPDEST PUSH0 PUSH2 0x3E4 PUSH2 0x354 JUMP JUMPDEST SWAP1 POP PUSH2 0x3F0 DUP3 DUP3 PUSH2 0x3AA JUMP JUMPDEST SWAP2 SWAP1 POP JUMP JUMPDEST PUSH0 PUSH8 0xFFFFFFFFFFFFFFFF DUP3 GT ISZERO PUSH2 0x40F JUMPI PUSH2 0x40E PUSH2 0x37D JUMP JUMPDEST JUMPDEST PUSH2 0x418 DUP3 PUSH2 0x36D JUMP JUMPDEST SWAP1 POP PUSH1 0x20 DUP2 ADD SWAP1 POP SWAP2 SWAP1 POP JUMP JUMPDEST DUP3 DUP2 DUP4 CALLDATACOPY PUSH0 DUP4 DUP4 ADD MSTORE POP POP POP JUMP JUMPDEST PUSH0 PUSH2 0x445 PUSH2 0x440 DUP5 PUSH2 0x3F5 JUMP JUMPDEST PUSH2 0x3DB JUMP JUMPDEST SWAP1 POP DUP3 DUP2 MSTORE PUSH1 0x20 DUP2 ADD DUP5 DUP5 DUP5 ADD GT ISZERO PUSH2 0x461 JUMPI PUSH2 0x460 PUSH2 0x369 JUMP JUMPDEST JUMPDEST PUSH2 0x46C DUP5 DUP3 DUP6 PUSH2 0x425 JUMP JUMPDEST POP SWAP4 SWAP3 POP POP POP JUMP JUMPDEST PUSH0 DUP3 PUSH1 0x1F DUP4 ADD SLT PUSH2 0x488 JUMPI PUSH2 0x487 PUSH2 0x365 JUMP JUMPDEST JUMPDEST DUP2 CALLDATALOAD PUSH2 0x498 DUP5 DUP3 PUSH1 0x20 DUP7 ADD PUSH2 0x433 JUMP JUMPDEST SWAP2 POP POP SWAP3 SWAP2 POP POP JUMP JUMPDEST PUSH0 PUSH1 0x20 DUP3 DUP5 SUB SLT ISZERO PUSH2 0x4B6 JUMPI PUSH2 0x4B5 PUSH2 0x35D JUMP JUMPDEST JUMPDEST PUSH0 DUP3 ADD CALLDATALOAD PUSH8 0xFFFFFFFFFFFFFFFF DUP2 GT ISZERO PUSH2 0x4D3 JUMPI PUSH2 0x4D2 PUSH2 0x361 JUMP JUMPDEST JUMPDEST PUSH2 0x4DF DUP5 DUP3 DUP6 ADD PUSH2 0x474 JUMP JUMPDEST SWAP2 POP POP SWAP3 SWAP2 POP POP JUMP JUMPDEST PUSH0 DUP2 SWAP1 POP SWAP2 SWAP1 POP JUMP JUMPDEST PUSH2 0x4FA DUP2 PUSH2 0x4E8 JUMP JUMPDEST DUP3 MSTORE POP POP JUMP JUMPDEST PUSH0 PUSH1 0x20 DUP3 ADD SWAP1 POP PUSH2 0x513 PUSH0 DUP4 ADD DUP5 PUSH2 0x4F1 JUMP JUMPDEST SWAP3 SWAP2 POP POP JUMP JUMPDEST PUSH2 0x522 DUP2 PUSH2 0x4E8 JUMP JUMPDEST DUP2 EQ PUSH2 0x52C JUMPI PUSH0 PUSH0 REVERT JUMPDEST POP JUMP JUMPDEST PUSH0 DUP2 CALLDATALOAD SWAP1 POP PUSH2 0x53D DUP2 PUSH2 0x519 JUMP JUMPDEST SWAP3 SWAP2 POP POP JUMP JUMPDEST PUSH0 PUSH1 0x20 DUP3 DUP5 SUB SLT ISZERO PUSH2 0x558 JUMPI PUSH2 0x557 PUSH2 0x35D JUMP JUMPDEST JUMPDEST PUSH0 PUSH2 0x565 DUP5 DUP3 DUP6 ADD PUSH2 0x52F JUMP JUMPDEST SWAP2 POP POP SWAP3 SWAP2 POP POP JUMP JUMPDEST PUSH0 DUP2 MLOAD SWAP1 POP SWAP2 SWAP1 POP JUMP JUMPDEST PUSH0 DUP3 DUP3 MSTORE PUSH1 0x20 DUP3 ADD SWAP1 POP SWAP3 SWAP2 POP POP JUMP JUMPDEST DUP3 DUP2 DUP4 MCOPY PUSH0 DUP4 DUP4 ADD MSTORE POP POP POP JUMP JUMPDEST PUSH0 PUSH2 0x5A0 DUP3 PUSH2 0x56E JUMP JUMPDEST PUSH2 0x5AA DUP2 DUP6 PUSH2 0x578 JUMP JUMPDEST SWAP4 POP PUSH2 0x5BA DUP2 DUP6 PUSH1 0x20 DUP7 ADD PUSH2 0x588 JUMP JUMPDEST PUSH2 0x5C3 DUP2 PUSH2 0x36D JUMP JUMPDEST DUP5 ADD SWAP2 POP POP SWAP3 SWAP2 POP POP JUMP JUMPDEST PUSH0 PUSH1 0x40 DUP3 ADD SWAP1 POP PUSH2 0x5E1 PUSH0 DUP4 ADD DUP6 PUSH2 0x4F1 JUMP JUMPDEST DUP2 DUP2 SUB PUSH1 0x20 DUP4 ADD MSTORE PUSH2 0x5F3 DUP2 DUP5 PUSH2 0x596 JUMP JUMPDEST SWAP1 POP SWAP4 SWAP3 POP POP POP JUMP JUMPDEST PUSH0 PUSH0 PUSH1 0x40 DUP4 DUP6 SUB SLT ISZERO PUSH2 0x612 JUMPI PUSH2 0x611 PUSH2 0x35D JUMP JUMPDEST JUMPDEST PUSH0 DUP4 ADD CALLDATALOAD PUSH8 0xFFFFFFFFFFFFFFFF DUP2 GT ISZERO PUSH2 0x62F JUMPI PUSH2 0x62E PUSH2 0x361 JUMP JUMPDEST JUMPDEST PUSH2 0x63B DUP6 DUP3 DUP7 ADD PUSH2 0x474 JUMP JUMPDEST SWAP3 POP POP PUSH1 0x20 PUSH2 0x64C DUP6 DUP3 DUP7 ADD PUSH2 0x52F JUMP JUMPDEST SWAP2 POP POP SWAP3 POP SWAP3 SWAP1 POP JUMP JUMPDEST PUSH32 0x4E487B7100000000000000000000000000000000000000000000000000000000 PUSH0 MSTORE PUSH1 0x22 PUSH1 0x4 MSTORE PUSH1 0x24 PUSH0 REVERT JUMPDEST PUSH0 PUSH1 0x2 DUP3 DIV SWAP1 POP PUSH1 0x1 DUP3 AND DUP1 PUSH2 0x69A JUMPI PUSH1 0x7F DUP3 AND SWAP2 POP JUMPDEST PUSH1 0x20 DUP3 LT DUP2 SUB PUSH2 0x6AD JUMPI PUSH2 0x6AC PUSH2 0x656 JUMP JUMPDEST JUMPDEST POP SWAP2 SWAP1 POP JUMP JUMPDEST PUSH32 0x4E487B7100000000000000000000000000000000000000000000000000000000 PUSH0 MSTORE PUSH1 0x11 PUSH1 0x4 MSTORE PUSH1 0x24 PUSH0 REVERT JUMPDEST PUSH0 PUSH2 0x6EA DUP3 PUSH2 0x4E8 JUMP JUMPDEST SWAP2 POP PUSH2 0x6F5 DUP4 PUSH2 0x4E8 JUMP JUMPDEST SWAP3 POP DUP3 DUP3 ADD SWAP1 POP DUP1 DUP3 GT ISZERO PUSH2 0x70D JUMPI PUSH2 0x70C PUSH2 0x6B3 JUMP JUMPDEST JUMPDEST SWAP3 SWAP2 POP POP JUMP JUMPDEST PUSH0 DUP2 SWAP1 POP DUP2 PUSH0 MSTORE PUSH1 0x20 PUSH0 KECCAK256 SWAP1 POP SWAP2 SWAP1 POP JUMP JUMPDEST PUSH0 PUSH1 0x20 PUSH1 0x1F DUP4 ADD DIV SWAP1 POP SWAP2 SWAP1 POP JUMP JUMPDEST PUSH0 DUP3 DUP3 SHL SWAP1 POP SWAP3 SWAP2 POP POP JUMP JUMPDEST PUSH0 PUSH1 0x8 DUP4 MUL PUSH2 0x76F PUSH32 0xFFFFFFFFFFFFFFFFFFFFFFFFFFFFFFFFFFFFFFFFFFFFFFFFFFFFFFFFFFFFFFFF DUP3 PUSH2 0x734 JUMP JUMPDEST PUSH2 0x779 DUP7 DUP4 PUSH2 0x734 JUMP JUMPDEST SWAP6 POP DUP1 NOT DUP5 AND SWAP4 POP DUP1 DUP7 AND DUP5 OR SWAP3 POP POP POP SWAP4 SWAP3 POP POP POP JUMP JUMPDEST PUSH0 DUP2 SWAP1 POP SWAP2 SWAP1 POP JUMP JUMPDEST PUSH0 PUSH2 0x7B4 PUSH2 0x7AF PUSH2 0x7AA DUP5 PUSH2 0x4E8 JUMP JUMPDEST PUSH2 0x791 JUMP JUMPDEST PUSH2 0x4E8 JUMP JUMPDEST SWAP1 POP SWAP2 SWAP1 POP JUMP JUMPDEST PUSH0 DUP2 SWAP1 POP SWAP2 SWAP1 POP JUMP JUMPDEST PUSH2 0x7CD DUP4 PUSH2 0x79A JUMP JUMPDEST PUSH2 0x7E1 PUSH2 0x7D9 DUP3 PUSH2 0x7BB JUMP JUMPDEST DUP5 DUP5 SLOAD PUSH2 0x740 JUMP JUMPDEST DUP3 SSTORE POP POP POP POP JUMP JUMPDEST PUSH0 PUSH0 SWAP1 POP SWAP1 JUMP JUMPDEST PUSH2 0x7F8 PUSH2 0x7E9 JUMP JUMPDEST PUSH2 0x803 DUP2 DUP5 DUP5 PUSH2 0x7C4 JUMP JUMPDEST POP POP POP JUMP JUMPDEST JUMPDEST DUP2 DUP2 LT ISZERO PUSH2 0x826 JUMPI PUSH2 0x81B PUSH0 DUP3 PUSH2 0x7F0 JUMP JUMPDEST PUSH1 0x1 DUP2 ADD SWAP1 POP PUSH2 0x809 JUMP JUMPDEST POP POP JUMP JUMPDEST PUSH1 0x1F DUP3 GT ISZERO PUSH2 0x86B JUMPI PUSH2 0x83C DUP2 PUSH2 0x713 JUMP JUMPDEST PUSH2 0x845 DUP5 PUSH2 0x725 JUMP JUMPDEST DUP2 ADD PUSH1 0x20 DUP6 LT ISZERO PUSH2 0x854 JUMPI DUP2 SWAP1 POP JUMPDEST PUSH2 0x868 PUSH2 0x860 DUP6 PUSH2 0x725 JUMP JUMPDEST DUP4 ADD DUP3 PUSH2 0x808 JUMP JUMPDEST POP POP JUMPDEST POP POP POP JUMP JUMPDEST PUSH0 DUP3 DUP3 SHR SWAP1 POP SWAP3 SWAP2 POP POP JUMP JUMPDEST PUSH0 PUSH2 0x88B PUSH0 NOT DUP5 PUSH1 0x8 MUL PUSH2 0x870 JUMP JUMPDEST NOT DUP1 DUP4 AND SWAP2 POP POP SWAP3 SWAP2 POP POP JUMP JUMPDEST PUSH0 PUSH2 0x8A3 DUP4 DUP4 PUSH2 0x87C JUMP JUMPDEST SWAP2 POP DUP3 PUSH1 0x2 MUL DUP3 OR SWAP1 POP SWAP3 SWAP2 POP POP JUMP JUMPDEST PUSH2 0x8BC DUP3 PUSH2 0x56E JUMP JUMPDEST PUSH8 0xFFFFFFFFFFFFFFFF DUP2 GT ISZERO PUSH2 0x8D5 JUMPI PUSH2 0x8D4 PUSH2 0x37D JUMP JUMPDEST JUMPDEST PUSH2 0x8DF DUP3 SLOAD PUSH2 0x683 JUMP JUMPDEST PUSH2 0x8EA DUP3 DUP3 DUP6 PUSH2 0x82A JUMP JUMPDEST PUSH0 PUSH1 0x20 SWAP1 POP PUSH1 0x1F DUP4 GT PUSH1 0x1 DUP2 EQ PUSH2 0x91B JUMPI PUSH0 DUP5 ISZERO PUSH2 0x909 JUMPI DUP3 DUP8 ADD MLOAD SWAP1 POP JUMPDEST PUSH2 0x913 DUP6 DUP3 PUSH2 0x898 JUMP JUMPDEST DUP7 SSTORE POP PUSH2 0x97A JUMP JUMPDEST PUSH1 0x1F NOT DUP5 AND PUSH2 0x929 DUP7 PUSH2 0x713 JUMP JUMPDEST PUSH0 JUMPDEST DUP3 DUP2 LT ISZERO PUSH2 0x950 JUMPI DUP5 DUP10 ADD MLOAD DUP3 SSTORE PUSH1 0x1 DUP3 ADD SWAP2 POP PUSH1 0x20 DUP6 ADD SWAP5 POP PUSH1 0x20 DUP2 ADD SWAP1 POP PUSH2 0x92B JUMP JUMPDEST DUP7 DUP4 LT ISZERO PUSH2 0x96D JUMPI DUP5 DUP10 ADD MLOAD PUSH2 0x969 PUSH1 0x1F DUP10 AND DUP3 PUSH2 0x87C JUMP JUMPDEST DUP4 SSTORE POP JUMPDEST PUSH1 0x1 PUSH1 0x2 DUP9 MUL ADD DUP9 SSTORE POP POP POP JUMPDEST POP POP POP POP POP POP JUMP JUMPDEST PUSH0 DUP2 SWAP1 POP SWAP3 SWAP2 POP POP JUMP JUMPDEST PUSH0 PUSH2 0x996 DUP3 PUSH2 0x56E JUMP JUMPDEST PUSH2 0x9A0 DUP2 DUP6 PUSH2 0x982 JUMP JUMPDEST SWAP4 POP PUSH2 0x9B0 DUP2 DUP6 PUSH1 0x20 DUP7 ADD PUSH2 0x588 JUMP JUMPDEST DUP1 DUP5 ADD SWAP2 POP POP SWAP3 SWAP2 POP POP JUMP JUMPDEST PUSH0 PUSH2 0x9C7 DUP3 DUP5 PUSH2 0x98C JUMP JUMPDEST SWAP2 POP DUP2 SWAP1 POP SWAP3 SWAP2 POP POP JUMP INVALID LOG2 PUSH5 0x6970667358 0x22 SLT KECCAK256 DUP5 EOFCREATE 0x23 0xC1 EXTCODECOPY INVALID 0xB9 0x4D CHAINID 0xAE AND ADD DUP16 LOG3 XOR CALLDATACOPY LT 0xD6 0xAE 0xC2 ORIGIN 0xDF PUSH12 0x31359D0335B79F458064736F PUSH13 0x634300081E0033000000000000 "
				},
				"gasEstimates": {
					"creation": {
						"codeDepositCost": "513600",
						"executionCost": "infinite",
						"totalCost": "infinite"
					},
					"external": {
						"addPerson(string,uint256)": "infinite",
						"listOfPeople(uint256)": "infinite",
						"mybrother()": "infinite",
						"nameToFavNum(string)": "infinite",
						"retreive()": "2519",
						"store(uint256)": "infinite"
					}
				},
				"methodIdentifiers": {
					"addPerson(string,uint256)": "6f760f41",
					"listOfPeople(uint256)": "2ebce631",
					"mybrother()": "acce3cce",
					"nameToFavNum(string)": "06c62c2c",
					"retreive()": "b05784b8",
					"store(uint256)": "6057361d"
				}
			},
			"storageLayout": {
				"storage": [
					{
						"astId": 23,
						"contract": "contracts/Override.sol:Override",
						"label": "myFavouriteNumber",
						"offset": 0,
						"slot": "0",
						"type": "t_uint256"
					},
					{
						"astId": 32,
						"contract": "contracts/Override.sol:Override",
						"label": "listOfPeople",
						"offset": 0,
						"slot": "1",
						"type": "t_array(t_struct(Person)28_storage)dyn_storage"
					},
					{
						"astId": 36,
						"contract": "contracts/Override.sol:Override",
						"label": "nameToFavNum",
						"offset": 0,
						"slot": "2",
						"type": "t_mapping(t_string_memory_ptr,t_uint256)"
					},
					{
						"astId": 43,
						"contract": "contracts/Override.sol:Override",
						"label": "mybrother",
						"offset": 0,
						"slot": "3",
						"type": "t_struct(Person)28_storage"
					}
				],
				"types": {
					"t_array(t_struct(Person)28_storage)dyn_storage": {
						"base": "t_struct(Person)28_storage",
						"encoding": "dynamic_array",
						"label": "struct SimpleStorage.Person[]",
						"numberOfBytes": "32"
					},
					"t_mapping(t_string_memory_ptr,t_uint256)": {
						"encoding": "mapping",
						"key": "t_string_memory_ptr",
						"label": "mapping(string => uint256)",
						"numberOfBytes": "32",
						"value": "t_uint256"
					},
					"t_string_memory_ptr": {
						"encoding": "bytes",
						"label": "string",
						"numberOfBytes": "32"
					},
					"t_string_storage": {
						"encoding": "bytes",
						"label": "string",
						"numberOfBytes": "32"
					},
					"t_struct(Person)28_storage": {
						"encoding": "inplace",
						"label": "struct SimpleStorage.Person",
						"members": [
							{
								"astId": 25,
								"contract": "contracts/Override.sol:Override",
								"label": "favNum",
								"offset": 0,
								"slot": "0",
								"type": "t_uint256"
							},
							{
								"astId": 27,
								"contract": "contracts/Override.sol:Override",
								"label": "name",
								"offset": 0,
								"slot": "1",
								"type": "t_string_storage"
							}
						],
						"numberOfBytes": "64"
					},
					"t_uint256": {
						"encoding": "inplace",
						"label": "uint256",
						"numberOfBytes": "32"
					}
				}
			},
			"userdoc": {
				"kind": "user",
				"methods": {},
				"version": 1
			}
		}
	}
}